{"contracts/ico.sol":{"ICO":{"abi":[{"inputs":[{"internalType":"address","name":"tokenAddress","type":"address"},{"internalType":"address","name":"usdtadd","type":"address"}],"stateMutability":"nonpayable","type":"constructor"},{"anonymous":false,"inputs":[{"indexed":false,"internalType":"address","name":"buyer","type":"address"},{"indexed":false,"internalType":"uint256","name":"noOfTokens","type":"uint256"}],"name":"IcoTokenpurchased","type":"event"},{"anonymous":false,"inputs":[{"indexed":true,"internalType":"address","name":"previousOwner","type":"address"},{"indexed":true,"internalType":"address","name":"newOwner","type":"address"}],"name":"OwnershipTransferred","type":"event"},{"inputs":[],"name":"_maxPhase","outputs":[{"internalType":"uint256","name":"","type":"uint256"}],"stateMutability":"view","type":"function"},{"inputs":[{"internalType":"uint256","name":"amount","type":"uint256"}],"name":"buytokens","outputs":[],"stateMutability":"nonpayable","type":"function"},{"inputs":[],"name":"claimTokens","outputs":[],"stateMutability":"nonpayable","type":"function"},{"inputs":[{"internalType":"uint256","name":"rate","type":"uint256"},{"internalType":"uint256","name":"phaseNo","type":"uint256"}],"name":"convertToAmount","outputs":[{"internalType":"uint256","name":"","type":"uint256"}],"stateMutability":"view","type":"function"},{"inputs":[{"internalType":"uint256","name":"amount","type":"uint256"},{"internalType":"uint256","name":"rate","type":"uint256"}],"name":"covertToTokens","outputs":[{"internalType":"uint256","name":"","type":"uint256"}],"stateMutability":"pure","type":"function"},{"inputs":[],"name":"currPhase","outputs":[{"internalType":"uint256","name":"","type":"uint256"}],"stateMutability":"view","type":"function"},{"inputs":[{"internalType":"uint256","name":"amount","type":"uint256"}],"name":"estimateTokens","outputs":[{"internalType":"uint256","name":"","type":"uint256"}],"stateMutability":"view","type":"function"},{"inputs":[],"name":"getCurrtime","outputs":[{"internalType":"uint256","name":"","type":"uint256"}],"stateMutability":"view","type":"function"},{"inputs":[{"internalType":"uint256","name":"","type":"uint256"}],"name":"myPhases","outputs":[{"internalType":"uint256","name":"rate","type":"uint256"},{"internalType":"uint256","name":"limit","type":"uint256"},{"internalType":"uint256","name":"openingTime","type":"uint256"},{"internalType":"uint256","name":"closingTime","type":"uint256"},{"internalType":"uint256","name":"remainingTokens","type":"uint256"}],"stateMutability":"view","type":"function"},{"inputs":[],"name":"owner","outputs":[{"internalType":"address","name":"","type":"address"}],"stateMutability":"view","type":"function"},{"inputs":[],"name":"pause","outputs":[{"internalType":"bool","name":"","type":"bool"}],"stateMutability":"view","type":"function"},{"inputs":[],"name":"pause_unpause","outputs":[],"stateMutability":"nonpayable","type":"function"},{"inputs":[],"name":"renounceOwnership","outputs":[],"stateMutability":"nonpayable","type":"function"},{"inputs":[{"internalType":"uint256","name":"tks","type":"uint256"},{"internalType":"uint256","name":"amount","type":"uint256"}],"name":"transfer","outputs":[],"stateMutability":"nonpayable","type":"function"},{"inputs":[{"internalType":"address","name":"newOwner","type":"address"}],"name":"transferOwnership","outputs":[],"stateMutability":"nonpayable","type":"function"},{"inputs":[{"internalType":"address","name":"","type":"address"}],"name":"userTokens","outputs":[{"internalType":"uint256","name":"tokensPurchased","type":"uint256"},{"internalType":"uint256","name":"tokensLeft","type":"uint256"},{"internalType":"uint256","name":"partsTaken","type":"uint256"}],"stateMutability":"view","type":"function"}],"evm":{"bytecode":{"linkReferences":{},"object":"6080604052600180556003600255734b531a318b0e44b549f3b2f824721b3d0d51930a600360006101000a81548173ffffffffffffffffffffffffffffffffffffffff021916908373ffffffffffffffffffffffffffffffffffffffff1602179055503480156200006f57600080fd5b50604051620024ec380380620024ec833981810160405281019062000095919062000459565b620000b5620000a96200032360201b60201c565b6200032b60201b60201c565b6040518060a00160405280600181526020016064815260200142815260200161019042620000e49190620004d9565b81526020016064815250600460006001815260200190815260200160002060008201518160000155602082015181600101556040820151816002015560608201518160030155608082015181600401559050506040518060a001604052806002815260200160c881526020016004600060018152602001908152602001600020600301548152602001610190600460006001815260200190815260200160002060030154620001949190620004d9565b815260200160c8815250600460006002815260200190815260200160002060008201518160000155602082015181600101556040820151816002015560608201518160030155608082015181600401559050506040518060a001604052806005815260200161012c81526020016004600060028152602001908152602001600020600301548152602001610190600460006002815260200190815260200160002060030154620002459190620004d9565b815260200161012c8152506004600060038152602001908152602001600020600082015181600001556020820151816001015560408201518160020155606082015181600301556080820151816004015590505081600660006101000a81548173ffffffffffffffffffffffffffffffffffffffff021916908373ffffffffffffffffffffffffffffffffffffffff16021790555080600760006101000a81548173ffffffffffffffffffffffffffffffffffffffff021916908373ffffffffffffffffffffffffffffffffffffffff160217905550505062000514565b600033905090565b60008060009054906101000a900473ffffffffffffffffffffffffffffffffffffffff169050816000806101000a81548173ffffffffffffffffffffffffffffffffffffffff021916908373ffffffffffffffffffffffffffffffffffffffff1602179055508173ffffffffffffffffffffffffffffffffffffffff168173ffffffffffffffffffffffffffffffffffffffff167f8be0079c531659141344cd1fd0a4f28419497f9722a3daafe3b4186f6b6457e060405160405180910390a35050565b600080fd5b600073ffffffffffffffffffffffffffffffffffffffff82169050919050565b60006200042182620003f4565b9050919050565b620004338162000414565b81146200043f57600080fd5b50565b600081519050620004538162000428565b92915050565b60008060408385031215620004735762000472620003ef565b5b6000620004838582860162000442565b9250506020620004968582860162000442565b9150509250929050565b6000819050919050565b7f4e487b7100000000000000000000000000000000000000000000000000000000600052601160045260246000fd5b6000620004e682620004a0565b9150620004f383620004a0565b92508282019050808211156200050e576200050d620004aa565b5b92915050565b611fc880620005246000396000f3fe608060405234801561001057600080fd5b50600436106101005760003560e01c80638da5cb5b11610097578063e9e2100011610066578063e9e2100014610267578063ea6be96f14610285578063ed498fa8146102b5578063f2fde38b146102e757610100565b80638da5cb5b146101ed5780639d325ce81461020b578063c729029d14610215578063d93a4e891461024957610100565b80636b89c2c9116100d35780636b89c2c914610165578063715018a6146101955780637b80d25e1461019f5780638456cb59146101cf57610100565b80630cf79e0a146101055780633cc893801461012157806348c54b9d1461013f5780635ed1ca8514610149575b600080fd5b61011f600480360381019061011a9190611522565b610303565b005b610129610576565b6040516101369190611571565b60405180910390f35b61014761057c565b005b610163600480360381019061015e919061158c565b610881565b005b61017f600480360381019061017a9190611522565b610a5f565b60405161018c9190611571565b60405180910390f35b61019d610a9e565b005b6101b960048036038101906101b49190611522565b610ab2565b6040516101c69190611571565b60405180910390f35b6101d7610b07565b6040516101e491906115d4565b60405180910390f35b6101f5610b1a565b6040516102029190611630565b60405180910390f35b610213610b43565b005b61022f600480360381019061022a919061158c565b610b77565b60405161024095949392919061164b565b60405180910390f35b610251610bad565b60405161025e9190611571565b60405180910390f35b61026f610bb5565b60405161027c9190611571565b60405180910390f35b61029f600480360381019061029a919061158c565b610bbb565b6040516102ac9190611571565b60405180910390f35b6102cf60048036038101906102ca91906116ca565b610c2a565b6040516102de939291906116f7565b60405180910390f35b61030160048036038101906102fc91906116ca565b610c54565b005b80600760009054906101000a900473ffffffffffffffffffffffffffffffffffffffff1673ffffffffffffffffffffffffffffffffffffffff1663dd62ed3e33306040518363ffffffff1660e01b815260040161036192919061172e565b6020604051808303816000875af1158015610380573d6000803e3d6000fd5b505050506040513d601f19601f820116820180604052508101906103a4919061176c565b10156103e5576040517f08c379a00000000000000000000000000000000000000000000000000000000081526004016103dc906117f6565b60405180910390fd5b600760009054906101000a900473ffffffffffffffffffffffffffffffffffffffff1673ffffffffffffffffffffffffffffffffffffffff166323b872dd3330846040518463ffffffff1660e01b815260040161044493929190611816565b6020604051808303816000875af1158015610463573d6000803e3d6000fd5b505050506040513d601f19601f820116820180604052508101906104879190611879565b5081600560003373ffffffffffffffffffffffffffffffffffffffff1673ffffffffffffffffffffffffffffffffffffffff16815260200190815260200160002060000160008282546104da91906118d5565b9250508190555081600560003373ffffffffffffffffffffffffffffffffffffffff1673ffffffffffffffffffffffffffffffffffffffff168152602001908152602001600020600101600082825461053391906118d5565b925050819055507ecf51cab78618603b70ba6d83208cb163cfaa39d041d7fb33afc5e49970bada338360405161056a929190611909565b60405180910390a15050565b60015481565b60046000600181526020019081526020016000206002015442116105d5576040517f08c379a00000000000000000000000000000000000000000000000000000000081526004016105cc906119a4565b60405180910390fd5b60046000600254815260200190815260200160002060030154421161062f576040517f08c379a000000000000000000000000000000000000000000000000000000000815260040161062690611a36565b60405180910390fd5b601e60046000600254815260200190815260200160002060030154426106559190611a56565b1015610696576040517f08c379a000000000000000000000000000000000000000000000000000000000815260040161068d90611ad6565b60405180910390fd5b6000600560003373ffffffffffffffffffffffffffffffffffffffff1673ffffffffffffffffffffffffffffffffffffffff168152602001908152602001600020600101540361071b576040517f08c379a000000000000000000000000000000000000000000000000000000000815260040161071290611b68565b60405180910390fd5b600080610726610cd7565b9150915080600560003373ffffffffffffffffffffffffffffffffffffffff1673ffffffffffffffffffffffffffffffffffffffff168152602001908152602001600020600201600082825461077c91906118d5565b9250508190555081600560003373ffffffffffffffffffffffffffffffffffffffff1673ffffffffffffffffffffffffffffffffffffffff16815260200190815260200160002060010160008282546107d59190611a56565b92505081905550600660009054906101000a900473ffffffffffffffffffffffffffffffffffffffff1673ffffffffffffffffffffffffffffffffffffffff1663a9059cbb33846040518363ffffffff1660e01b8152600401610839929190611909565b6020604051808303816000875af1158015610858573d6000803e3d6000fd5b505050506040513d601f19601f8201168201806040525081019061087c9190611879565b505050565b6000429050600060149054906101000a900460ff16156108d6576040517f08c379a00000000000000000000000000000000000000000000000000000000081526004016108cd90611bd4565b60405180910390fd5b600460006001815260200190815260200160002060020154811015610930576040517f08c379a000000000000000000000000000000000000000000000000000000000815260040161092790611c40565b60405180910390fd5b6004600060015481526020019081526020016000206003015481106109bc576001600081548092919061096290611c60565b919050555060025460015411156109ae576040517f08c379a00000000000000000000000000000000000000000000000000000000081526004016109a590611cf4565b60405180910390fd5b6109b782610881565b610a5b565b60025460015411610a1f576109cf610dc2565b60008060006109e060015486610e95565b8093508194508295505050506109f78383836110e7565b610a02828483611186565b610a17838287610a129190611a56565b610303565b505050610a5a565b6040517f08c379a0000000000000000000000000000000000000000000000000000000008152600401610a5190611cf4565b60405180910390fd5b5b5050565b600080633b9aca00905060006305f5e10084610a7b9190611d14565b8583610a879190611d14565b610a919190611d85565b9050809250505092915050565b610aa6611297565b610ab06000611315565b565b600080633b9aca0090506000816305f5e100866004600088815260200190815260200160002060040154610ae69190611d14565b610af09190611d14565b610afa9190611d85565b9050809250505092915050565b600060149054906101000a900460ff1681565b60008060009054906101000a900473ffffffffffffffffffffffffffffffffffffffff16905090565b610b4b611297565b600060149054906101000a900460ff1615600060146101000a81548160ff021916908315150217905550565b60046020528060005260406000206000915090508060000154908060010154908060020154908060030154908060040154905085565b600042905090565b60025481565b600080600060149054906101000a900460ff1615610c0e576040517f08c379a0000000000000000000000000000000000000000000000000000000008152600401610c0590611bd4565b60405180910390fd5b610c1a60015484610e95565b9050508091505080915050919050565b60056020528060005260406000206000915090508060000154908060010154908060020154905083565b610c5c611297565b600073ffffffffffffffffffffffffffffffffffffffff168173ffffffffffffffffffffffffffffffffffffffff1603610ccb576040517f08c379a0000000000000000000000000000000000000000000000000000000008152600401610cc290611e28565b60405180910390fd5b610cd481611315565b50565b6000806000601e60046000600254815260200190815260200160002060030154420381610d0757610d06611d56565b5b049050600a811115610d1857600a90505b6000600560003373ffffffffffffffffffffffffffffffffffffffff1673ffffffffffffffffffffffffffffffffffffffff1681526020019081526020016000206002015482039050600a600560003373ffffffffffffffffffffffffffffffffffffffff1673ffffffffffffffffffffffffffffffffffffffff16815260200190815260200160002060000154820281610db657610db5611d56565b5b04819350935050509091565b6001805414158015610df7575060006004600060018054610de39190611a56565b815260200190815260200160002060040154115b15610e9357600080600190505b600154811015610e6157600460008281526020019081526020016000206004015482610e3091906118d5565b9150600060046000838152602001908152602001600020600401819055508080610e5990611c60565b915050610e04565b50806004600060015481526020019081526020016000206004016000828254610e8a91906118d5565b92505081905550505b565b6000806000600254851115610edf576040517f08c379a0000000000000000000000000000000000000000000000000000000008152600401610ed690611cf4565b60405180910390fd5b60046000868152602001908152602001600020600301544210610f1a57610f12600186610f0c91906118d5565b85610e95565b5050506110d4565b6000806000806000600460008b81526020019081526020016000206040518060a00160405290816000820154815260200160018201548152602001600282015481526020016003820154815260200160048201548152505090506000610f848a8360000151610a5f565b90508160800151811015610fa757808b60009850985098505050505050506110e0565b81608001518103610fd3578060018c610fc091906118d5565b60009850985098505050505050506110e0565b81608001518111156110cd57816080015194506110256040518060400160405280600b81526020017f746f74616c746f6b656e73000000000000000000000000000000000000000000815250826113d9565b600061103583600001518d610ab2565b90506002548c10156110a15761106260018d61105191906118d5565b828d61105d9190611a56565b610e95565b809650819750829950505050868661107a91906118d5565b6110848d87611475565b61108f600087611475565b995099509950505050505050506110e0565b6002548c036110cb57856003828d6110b99190611a56565b995099509950505050505050506110e0565b505b5050505050505b60008060009250925092505b9250925092565b6111818383836040516024016110ff939291906116f7565b6040516020818303038152906040527fd1ed7a3c000000000000000000000000000000000000000000000000000000007bffffffffffffffffffffffffffffffffffffffffffffffffffffffff19166020820180517bffffffffffffffffffffffffffffffffffffffffffffffffffffffff838183161783525050505061148f565b505050565b60015483036111ba578160046000600154815260200190815260200160002060040160008282540392505081905550611253565b60008060015490505b8481101561122a576004600082815260200190815260200160002060040154820191506000600460008381526020019081526020016000206004018190555042600460008381526020019081526020016000206003018190555080806001019150506111c3565b508083036004600086815260200190815260200160002060040160008282540392505081905550505b600081111561128a576001600254016001819055504260046000600254815260200190815260200160002060030181905550611292565b826001819055505b505050565b61129f6114a9565b73ffffffffffffffffffffffffffffffffffffffff166112bd610b1a565b73ffffffffffffffffffffffffffffffffffffffff1614611313576040517f08c379a000000000000000000000000000000000000000000000000000000000815260040161130a90611e94565b60405180910390fd5b565b60008060009054906101000a900473ffffffffffffffffffffffffffffffffffffffff169050816000806101000a81548173ffffffffffffffffffffffffffffffffffffffff021916908373ffffffffffffffffffffffffffffffffffffffff1602179055508173ffffffffffffffffffffffffffffffffffffffff168173ffffffffffffffffffffffffffffffffffffffff167f8be0079c531659141344cd1fd0a4f28419497f9722a3daafe3b4186f6b6457e060405160405180910390a35050565b61147182826040516024016113ef929190611f33565b6040516020818303038152906040527fb60e72cc000000000000000000000000000000000000000000000000000000007bffffffffffffffffffffffffffffffffffffffffffffffffffffffff19166020820180517bffffffffffffffffffffffffffffffffffffffffffffffffffffffff838183161783525050505061148f565b5050565b6000818310156114855781611487565b825b905092915050565b6114a68161149e6114b16114d2565b63ffffffff16565b50565b600033905090565b60006a636f6e736f6c652e6c6f679050600080835160208501845afa505050565b6114dd819050919050565b6114e5611f63565b565b600080fd5b6000819050919050565b6114ff816114ec565b811461150a57600080fd5b50565b60008135905061151c816114f6565b92915050565b60008060408385031215611539576115386114e7565b5b60006115478582860161150d565b92505060206115588582860161150d565b9150509250929050565b61156b816114ec565b82525050565b60006020820190506115866000830184611562565b92915050565b6000602082840312156115a2576115a16114e7565b5b60006115b08482850161150d565b91505092915050565b60008115159050919050565b6115ce816115b9565b82525050565b60006020820190506115e960008301846115c5565b92915050565b600073ffffffffffffffffffffffffffffffffffffffff82169050919050565b600061161a826115ef565b9050919050565b61162a8161160f565b82525050565b60006020820190506116456000830184611621565b92915050565b600060a0820190506116606000830188611562565b61166d6020830187611562565b61167a6040830186611562565b6116876060830185611562565b6116946080830184611562565b9695505050505050565b6116a78161160f565b81146116b257600080fd5b50565b6000813590506116c48161169e565b92915050565b6000602082840312156116e0576116df6114e7565b5b60006116ee848285016116b5565b91505092915050565b600060608201905061170c6000830186611562565b6117196020830185611562565b6117266040830184611562565b949350505050565b60006040820190506117436000830185611621565b6117506020830184611621565b9392505050565b600081519050611766816114f6565b92915050565b600060208284031215611782576117816114e7565b5b600061179084828501611757565b91505092915050565b600082825260208201905092915050565b7f706c6561736520696e63726561736520616c6c6f77616e636500000000000000600082015250565b60006117e0601983611799565b91506117eb826117aa565b602082019050919050565b6000602082019050818103600083015261180f816117d3565b9050919050565b600060608201905061182b6000830186611621565b6118386020830185611621565b6118456040830184611562565b949350505050565b611856816115b9565b811461186157600080fd5b50565b6000815190506118738161184d565b92915050565b60006020828403121561188f5761188e6114e7565b5b600061189d84828501611864565b91505092915050565b7f4e487b7100000000000000000000000000000000000000000000000000000000600052601160045260246000fd5b60006118e0826114ec565b91506118eb836114ec565b9250828201905080821115611903576119026118a6565b5b92915050565b600060408201905061191e6000830185611621565b61192b6020830184611562565b9392505050565b7f7761697420666f722049434f20746f206f70656e20666f7220696e766573746d60008201527f656e740000000000000000000000000000000000000000000000000000000000602082015250565b600061198e602383611799565b915061199982611932565b604082019050919050565b600060208201905081810360008301526119bd81611981565b9050919050565b7f7761697420666f722049434f20746f20656e6420746f20636c61696d2079722060008201527f746f6b656e730000000000000000000000000000000000000000000000000000602082015250565b6000611a20602683611799565b9150611a2b826119c4565b604082019050919050565b60006020820190508181036000830152611a4f81611a13565b9050919050565b6000611a61826114ec565b9150611a6c836114ec565b9250828203905081811115611a8457611a836118a6565b5b92915050565b7f706c65617365207761697420666f72206d696e696d756d203330207365630000600082015250565b6000611ac0601e83611799565b9150611acb82611a8a565b602082019050919050565b60006020820190508181036000830152611aef81611ab3565b9050919050565b7f796f75206861766520616c726561647920636c61696d656420616c6c2079722060008201527f746f6b656e730000000000000000000000000000000000000000000000000000602082015250565b6000611b52602683611799565b9150611b5d82611af6565b604082019050919050565b60006020820190508181036000830152611b8181611b45565b9050919050565b7f63757272656e746c792069636f20697320636c6f736564000000000000000000600082015250565b6000611bbe601783611799565b9150611bc982611b88565b602082019050919050565b60006020820190508181036000830152611bed81611bb1565b9050919050565b7f7761697420666f722069636f20746f206f70656e757000000000000000000000600082015250565b6000611c2a601683611799565b9150611c3582611bf4565b602082019050919050565b60006020820190508181036000830152611c5981611c1d565b9050919050565b6000611c6b826114ec565b91507fffffffffffffffffffffffffffffffffffffffffffffffffffffffffffffffff8203611c9d57611c9c6118a6565b5b600182019050919050565b7f69636f206973206f766572000000000000000000000000000000000000000000600082015250565b6000611cde600b83611799565b9150611ce982611ca8565b602082019050919050565b60006020820190508181036000830152611d0d81611cd1565b9050919050565b6000611d1f826114ec565b9150611d2a836114ec565b9250828202611d38816114ec565b91508282048414831517611d4f57611d4e6118a6565b5b5092915050565b7f4e487b7100000000000000000000000000000000000000000000000000000000600052601260045260246000fd5b6000611d90826114ec565b9150611d9b836114ec565b925082611dab57611daa611d56565b5b828204905092915050565b7f4f776e61626c653a206e6577206f776e657220697320746865207a65726f206160008201527f6464726573730000000000000000000000000000000000000000000000000000602082015250565b6000611e12602683611799565b9150611e1d82611db6565b604082019050919050565b60006020820190508181036000830152611e4181611e05565b9050919050565b7f4f776e61626c653a2063616c6c6572206973206e6f7420746865206f776e6572600082015250565b6000611e7e602083611799565b9150611e8982611e48565b602082019050919050565b60006020820190508181036000830152611ead81611e71565b9050919050565b600081519050919050565b60005b83811015611edd578082015181840152602081019050611ec2565b60008484015250505050565b6000601f19601f8301169050919050565b6000611f0582611eb4565b611f0f8185611799565b9350611f1f818560208601611ebf565b611f2881611ee9565b840191505092915050565b60006040820190508181036000830152611f4d8185611efa565b9050611f5c6020830184611562565b9392505050565b7f4e487b7100000000000000000000000000000000000000000000000000000000600052605160045260246000fdfea2646970667358221220ebecb5cf9a121cb67d2aaf20a019b72a35c41000a43d70fa489fd2a32598fe6064736f6c63430008130033","opcodes":"PUSH1 0x80 PUSH1 0x40 MSTORE PUSH1 0x1 DUP1 SSTORE PUSH1 0x3 PUSH1 0x2 SSTORE PUSH20 0x4B531A318B0E44B549F3B2F824721B3D0D51930A PUSH1 0x3 PUSH1 0x0 PUSH2 0x100 EXP DUP2 SLOAD DUP2 PUSH20 0xFFFFFFFFFFFFFFFFFFFFFFFFFFFFFFFFFFFFFFFF MUL NOT AND SWAP1 DUP4 PUSH20 0xFFFFFFFFFFFFFFFFFFFFFFFFFFFFFFFFFFFFFFFF AND MUL OR SWAP1 SSTORE POP CALLVALUE DUP1 ISZERO PUSH3 0x6F JUMPI PUSH1 0x0 DUP1 REVERT JUMPDEST POP PUSH1 0x40 MLOAD PUSH3 0x24EC CODESIZE SUB DUP1 PUSH3 0x24EC DUP4 CODECOPY DUP2 DUP2 ADD PUSH1 0x40 MSTORE DUP2 ADD SWAP1 PUSH3 0x95 SWAP2 SWAP1 PUSH3 0x459 JUMP JUMPDEST PUSH3 0xB5 PUSH3 0xA9 PUSH3 0x323 PUSH1 0x20 SHL PUSH1 0x20 SHR JUMP JUMPDEST PUSH3 0x32B PUSH1 0x20 SHL PUSH1 0x20 SHR JUMP JUMPDEST PUSH1 0x40 MLOAD DUP1 PUSH1 0xA0 ADD PUSH1 0x40 MSTORE DUP1 PUSH1 0x1 DUP2 MSTORE PUSH1 0x20 ADD PUSH1 0x64 DUP2 MSTORE PUSH1 0x20 ADD TIMESTAMP DUP2 MSTORE PUSH1 0x20 ADD PUSH2 0x190 TIMESTAMP PUSH3 0xE4 SWAP2 SWAP1 PUSH3 0x4D9 JUMP JUMPDEST DUP2 MSTORE PUSH1 0x20 ADD PUSH1 0x64 DUP2 MSTORE POP PUSH1 0x4 PUSH1 0x0 PUSH1 0x1 DUP2 MSTORE PUSH1 0x20 ADD SWAP1 DUP2 MSTORE PUSH1 0x20 ADD PUSH1 0x0 KECCAK256 PUSH1 0x0 DUP3 ADD MLOAD DUP2 PUSH1 0x0 ADD SSTORE PUSH1 0x20 DUP3 ADD MLOAD DUP2 PUSH1 0x1 ADD SSTORE PUSH1 0x40 DUP3 ADD MLOAD DUP2 PUSH1 0x2 ADD SSTORE PUSH1 0x60 DUP3 ADD MLOAD DUP2 PUSH1 0x3 ADD SSTORE PUSH1 0x80 DUP3 ADD MLOAD DUP2 PUSH1 0x4 ADD SSTORE SWAP1 POP POP PUSH1 0x40 MLOAD DUP1 PUSH1 0xA0 ADD PUSH1 0x40 MSTORE DUP1 PUSH1 0x2 DUP2 MSTORE PUSH1 0x20 ADD PUSH1 0xC8 DUP2 MSTORE PUSH1 0x20 ADD PUSH1 0x4 PUSH1 0x0 PUSH1 0x1 DUP2 MSTORE PUSH1 0x20 ADD SWAP1 DUP2 MSTORE PUSH1 0x20 ADD PUSH1 0x0 KECCAK256 PUSH1 0x3 ADD SLOAD DUP2 MSTORE PUSH1 0x20 ADD PUSH2 0x190 PUSH1 0x4 PUSH1 0x0 PUSH1 0x1 DUP2 MSTORE PUSH1 0x20 ADD SWAP1 DUP2 MSTORE PUSH1 0x20 ADD PUSH1 0x0 KECCAK256 PUSH1 0x3 ADD SLOAD PUSH3 0x194 SWAP2 SWAP1 PUSH3 0x4D9 JUMP JUMPDEST DUP2 MSTORE PUSH1 0x20 ADD PUSH1 0xC8 DUP2 MSTORE POP PUSH1 0x4 PUSH1 0x0 PUSH1 0x2 DUP2 MSTORE PUSH1 0x20 ADD SWAP1 DUP2 MSTORE PUSH1 0x20 ADD PUSH1 0x0 KECCAK256 PUSH1 0x0 DUP3 ADD MLOAD DUP2 PUSH1 0x0 ADD SSTORE PUSH1 0x20 DUP3 ADD MLOAD DUP2 PUSH1 0x1 ADD SSTORE PUSH1 0x40 DUP3 ADD MLOAD DUP2 PUSH1 0x2 ADD SSTORE PUSH1 0x60 DUP3 ADD MLOAD DUP2 PUSH1 0x3 ADD SSTORE PUSH1 0x80 DUP3 ADD MLOAD DUP2 PUSH1 0x4 ADD SSTORE SWAP1 POP POP PUSH1 0x40 MLOAD DUP1 PUSH1 0xA0 ADD PUSH1 0x40 MSTORE DUP1 PUSH1 0x5 DUP2 MSTORE PUSH1 0x20 ADD PUSH2 0x12C DUP2 MSTORE PUSH1 0x20 ADD PUSH1 0x4 PUSH1 0x0 PUSH1 0x2 DUP2 MSTORE PUSH1 0x20 ADD SWAP1 DUP2 MSTORE PUSH1 0x20 ADD PUSH1 0x0 KECCAK256 PUSH1 0x3 ADD SLOAD DUP2 MSTORE PUSH1 0x20 ADD PUSH2 0x190 PUSH1 0x4 PUSH1 0x0 PUSH1 0x2 DUP2 MSTORE PUSH1 0x20 ADD SWAP1 DUP2 MSTORE PUSH1 0x20 ADD PUSH1 0x0 KECCAK256 PUSH1 0x3 ADD SLOAD PUSH3 0x245 SWAP2 SWAP1 PUSH3 0x4D9 JUMP JUMPDEST DUP2 MSTORE PUSH1 0x20 ADD PUSH2 0x12C DUP2 MSTORE POP PUSH1 0x4 PUSH1 0x0 PUSH1 0x3 DUP2 MSTORE PUSH1 0x20 ADD SWAP1 DUP2 MSTORE PUSH1 0x20 ADD PUSH1 0x0 KECCAK256 PUSH1 0x0 DUP3 ADD MLOAD DUP2 PUSH1 0x0 ADD SSTORE PUSH1 0x20 DUP3 ADD MLOAD DUP2 PUSH1 0x1 ADD SSTORE PUSH1 0x40 DUP3 ADD MLOAD DUP2 PUSH1 0x2 ADD SSTORE PUSH1 0x60 DUP3 ADD MLOAD DUP2 PUSH1 0x3 ADD SSTORE PUSH1 0x80 DUP3 ADD MLOAD DUP2 PUSH1 0x4 ADD SSTORE SWAP1 POP POP DUP2 PUSH1 0x6 PUSH1 0x0 PUSH2 0x100 EXP DUP2 SLOAD DUP2 PUSH20 0xFFFFFFFFFFFFFFFFFFFFFFFFFFFFFFFFFFFFFFFF MUL NOT AND SWAP1 DUP4 PUSH20 0xFFFFFFFFFFFFFFFFFFFFFFFFFFFFFFFFFFFFFFFF AND MUL OR SWAP1 SSTORE POP DUP1 PUSH1 0x7 PUSH1 0x0 PUSH2 0x100 EXP DUP2 SLOAD DUP2 PUSH20 0xFFFFFFFFFFFFFFFFFFFFFFFFFFFFFFFFFFFFFFFF MUL NOT AND SWAP1 DUP4 PUSH20 0xFFFFFFFFFFFFFFFFFFFFFFFFFFFFFFFFFFFFFFFF AND MUL OR SWAP1 SSTORE POP POP POP PUSH3 0x514 JUMP JUMPDEST PUSH1 0x0 CALLER SWAP1 POP SWAP1 JUMP JUMPDEST PUSH1 0x0 DUP1 PUSH1 0x0 SWAP1 SLOAD SWAP1 PUSH2 0x100 EXP SWAP1 DIV PUSH20 0xFFFFFFFFFFFFFFFFFFFFFFFFFFFFFFFFFFFFFFFF AND SWAP1 POP DUP2 PUSH1 0x0 DUP1 PUSH2 0x100 EXP DUP2 SLOAD DUP2 PUSH20 0xFFFFFFFFFFFFFFFFFFFFFFFFFFFFFFFFFFFFFFFF MUL NOT AND SWAP1 DUP4 PUSH20 0xFFFFFFFFFFFFFFFFFFFFFFFFFFFFFFFFFFFFFFFF AND MUL OR SWAP1 SSTORE POP DUP2 PUSH20 0xFFFFFFFFFFFFFFFFFFFFFFFFFFFFFFFFFFFFFFFF AND DUP2 PUSH20 0xFFFFFFFFFFFFFFFFFFFFFFFFFFFFFFFFFFFFFFFF AND PUSH32 0x8BE0079C531659141344CD1FD0A4F28419497F9722A3DAAFE3B4186F6B6457E0 PUSH1 0x40 MLOAD PUSH1 0x40 MLOAD DUP1 SWAP2 SUB SWAP1 LOG3 POP POP JUMP JUMPDEST PUSH1 0x0 DUP1 REVERT JUMPDEST PUSH1 0x0 PUSH20 0xFFFFFFFFFFFFFFFFFFFFFFFFFFFFFFFFFFFFFFFF DUP3 AND SWAP1 POP SWAP2 SWAP1 POP JUMP JUMPDEST PUSH1 0x0 PUSH3 0x421 DUP3 PUSH3 0x3F4 JUMP JUMPDEST SWAP1 POP SWAP2 SWAP1 POP JUMP JUMPDEST PUSH3 0x433 DUP2 PUSH3 0x414 JUMP JUMPDEST DUP2 EQ PUSH3 0x43F JUMPI PUSH1 0x0 DUP1 REVERT JUMPDEST POP JUMP JUMPDEST PUSH1 0x0 DUP2 MLOAD SWAP1 POP PUSH3 0x453 DUP2 PUSH3 0x428 JUMP JUMPDEST SWAP3 SWAP2 POP POP JUMP JUMPDEST PUSH1 0x0 DUP1 PUSH1 0x40 DUP4 DUP6 SUB SLT ISZERO PUSH3 0x473 JUMPI PUSH3 0x472 PUSH3 0x3EF JUMP JUMPDEST JUMPDEST PUSH1 0x0 PUSH3 0x483 DUP6 DUP3 DUP7 ADD PUSH3 0x442 JUMP JUMPDEST SWAP3 POP POP PUSH1 0x20 PUSH3 0x496 DUP6 DUP3 DUP7 ADD PUSH3 0x442 JUMP JUMPDEST SWAP2 POP POP SWAP3 POP SWAP3 SWAP1 POP JUMP JUMPDEST PUSH1 0x0 DUP2 SWAP1 POP SWAP2 SWAP1 POP JUMP JUMPDEST PUSH32 0x4E487B7100000000000000000000000000000000000000000000000000000000 PUSH1 0x0 MSTORE PUSH1 0x11 PUSH1 0x4 MSTORE PUSH1 0x24 PUSH1 0x0 REVERT JUMPDEST PUSH1 0x0 PUSH3 0x4E6 DUP3 PUSH3 0x4A0 JUMP JUMPDEST SWAP2 POP PUSH3 0x4F3 DUP4 PUSH3 0x4A0 JUMP JUMPDEST SWAP3 POP DUP3 DUP3 ADD SWAP1 POP DUP1 DUP3 GT ISZERO PUSH3 0x50E JUMPI PUSH3 0x50D PUSH3 0x4AA JUMP JUMPDEST JUMPDEST SWAP3 SWAP2 POP POP JUMP JUMPDEST PUSH2 0x1FC8 DUP1 PUSH3 0x524 PUSH1 0x0 CODECOPY PUSH1 0x0 RETURN INVALID PUSH1 0x80 PUSH1 0x40 MSTORE CALLVALUE DUP1 ISZERO PUSH2 0x10 JUMPI PUSH1 0x0 DUP1 REVERT JUMPDEST POP PUSH1 0x4 CALLDATASIZE LT PUSH2 0x100 JUMPI PUSH1 0x0 CALLDATALOAD PUSH1 0xE0 SHR DUP1 PUSH4 0x8DA5CB5B GT PUSH2 0x97 JUMPI DUP1 PUSH4 0xE9E21000 GT PUSH2 0x66 JUMPI DUP1 PUSH4 0xE9E21000 EQ PUSH2 0x267 JUMPI DUP1 PUSH4 0xEA6BE96F EQ PUSH2 0x285 JUMPI DUP1 PUSH4 0xED498FA8 EQ PUSH2 0x2B5 JUMPI DUP1 PUSH4 0xF2FDE38B EQ PUSH2 0x2E7 JUMPI PUSH2 0x100 JUMP JUMPDEST DUP1 PUSH4 0x8DA5CB5B EQ PUSH2 0x1ED JUMPI DUP1 PUSH4 0x9D325CE8 EQ PUSH2 0x20B JUMPI DUP1 PUSH4 0xC729029D EQ PUSH2 0x215 JUMPI DUP1 PUSH4 0xD93A4E89 EQ PUSH2 0x249 JUMPI PUSH2 0x100 JUMP JUMPDEST DUP1 PUSH4 0x6B89C2C9 GT PUSH2 0xD3 JUMPI DUP1 PUSH4 0x6B89C2C9 EQ PUSH2 0x165 JUMPI DUP1 PUSH4 0x715018A6 EQ PUSH2 0x195 JUMPI DUP1 PUSH4 0x7B80D25E EQ PUSH2 0x19F JUMPI DUP1 PUSH4 0x8456CB59 EQ PUSH2 0x1CF JUMPI PUSH2 0x100 JUMP JUMPDEST DUP1 PUSH4 0xCF79E0A EQ PUSH2 0x105 JUMPI DUP1 PUSH4 0x3CC89380 EQ PUSH2 0x121 JUMPI DUP1 PUSH4 0x48C54B9D EQ PUSH2 0x13F JUMPI DUP1 PUSH4 0x5ED1CA85 EQ PUSH2 0x149 JUMPI JUMPDEST PUSH1 0x0 DUP1 REVERT JUMPDEST PUSH2 0x11F PUSH1 0x4 DUP1 CALLDATASIZE SUB DUP2 ADD SWAP1 PUSH2 0x11A SWAP2 SWAP1 PUSH2 0x1522 JUMP JUMPDEST PUSH2 0x303 JUMP JUMPDEST STOP JUMPDEST PUSH2 0x129 PUSH2 0x576 JUMP JUMPDEST PUSH1 0x40 MLOAD PUSH2 0x136 SWAP2 SWAP1 PUSH2 0x1571 JUMP JUMPDEST PUSH1 0x40 MLOAD DUP1 SWAP2 SUB SWAP1 RETURN JUMPDEST PUSH2 0x147 PUSH2 0x57C JUMP JUMPDEST STOP JUMPDEST PUSH2 0x163 PUSH1 0x4 DUP1 CALLDATASIZE SUB DUP2 ADD SWAP1 PUSH2 0x15E SWAP2 SWAP1 PUSH2 0x158C JUMP JUMPDEST PUSH2 0x881 JUMP JUMPDEST STOP JUMPDEST PUSH2 0x17F PUSH1 0x4 DUP1 CALLDATASIZE SUB DUP2 ADD SWAP1 PUSH2 0x17A SWAP2 SWAP1 PUSH2 0x1522 JUMP JUMPDEST PUSH2 0xA5F JUMP JUMPDEST PUSH1 0x40 MLOAD PUSH2 0x18C SWAP2 SWAP1 PUSH2 0x1571 JUMP JUMPDEST PUSH1 0x40 MLOAD DUP1 SWAP2 SUB SWAP1 RETURN JUMPDEST PUSH2 0x19D PUSH2 0xA9E JUMP JUMPDEST STOP JUMPDEST PUSH2 0x1B9 PUSH1 0x4 DUP1 CALLDATASIZE SUB DUP2 ADD SWAP1 PUSH2 0x1B4 SWAP2 SWAP1 PUSH2 0x1522 JUMP JUMPDEST PUSH2 0xAB2 JUMP JUMPDEST PUSH1 0x40 MLOAD PUSH2 0x1C6 SWAP2 SWAP1 PUSH2 0x1571 JUMP JUMPDEST PUSH1 0x40 MLOAD DUP1 SWAP2 SUB SWAP1 RETURN JUMPDEST PUSH2 0x1D7 PUSH2 0xB07 JUMP JUMPDEST PUSH1 0x40 MLOAD PUSH2 0x1E4 SWAP2 SWAP1 PUSH2 0x15D4 JUMP JUMPDEST PUSH1 0x40 MLOAD DUP1 SWAP2 SUB SWAP1 RETURN JUMPDEST PUSH2 0x1F5 PUSH2 0xB1A JUMP JUMPDEST PUSH1 0x40 MLOAD PUSH2 0x202 SWAP2 SWAP1 PUSH2 0x1630 JUMP JUMPDEST PUSH1 0x40 MLOAD DUP1 SWAP2 SUB SWAP1 RETURN JUMPDEST PUSH2 0x213 PUSH2 0xB43 JUMP JUMPDEST STOP JUMPDEST PUSH2 0x22F PUSH1 0x4 DUP1 CALLDATASIZE SUB DUP2 ADD SWAP1 PUSH2 0x22A SWAP2 SWAP1 PUSH2 0x158C JUMP JUMPDEST PUSH2 0xB77 JUMP JUMPDEST PUSH1 0x40 MLOAD PUSH2 0x240 SWAP6 SWAP5 SWAP4 SWAP3 SWAP2 SWAP1 PUSH2 0x164B JUMP JUMPDEST PUSH1 0x40 MLOAD DUP1 SWAP2 SUB SWAP1 RETURN JUMPDEST PUSH2 0x251 PUSH2 0xBAD JUMP JUMPDEST PUSH1 0x40 MLOAD PUSH2 0x25E SWAP2 SWAP1 PUSH2 0x1571 JUMP JUMPDEST PUSH1 0x40 MLOAD DUP1 SWAP2 SUB SWAP1 RETURN JUMPDEST PUSH2 0x26F PUSH2 0xBB5 JUMP JUMPDEST PUSH1 0x40 MLOAD PUSH2 0x27C SWAP2 SWAP1 PUSH2 0x1571 JUMP JUMPDEST PUSH1 0x40 MLOAD DUP1 SWAP2 SUB SWAP1 RETURN JUMPDEST PUSH2 0x29F PUSH1 0x4 DUP1 CALLDATASIZE SUB DUP2 ADD SWAP1 PUSH2 0x29A SWAP2 SWAP1 PUSH2 0x158C JUMP JUMPDEST PUSH2 0xBBB JUMP JUMPDEST PUSH1 0x40 MLOAD PUSH2 0x2AC SWAP2 SWAP1 PUSH2 0x1571 JUMP JUMPDEST PUSH1 0x40 MLOAD DUP1 SWAP2 SUB SWAP1 RETURN JUMPDEST PUSH2 0x2CF PUSH1 0x4 DUP1 CALLDATASIZE SUB DUP2 ADD SWAP1 PUSH2 0x2CA SWAP2 SWAP1 PUSH2 0x16CA JUMP JUMPDEST PUSH2 0xC2A JUMP JUMPDEST PUSH1 0x40 MLOAD PUSH2 0x2DE SWAP4 SWAP3 SWAP2 SWAP1 PUSH2 0x16F7 JUMP JUMPDEST PUSH1 0x40 MLOAD DUP1 SWAP2 SUB SWAP1 RETURN JUMPDEST PUSH2 0x301 PUSH1 0x4 DUP1 CALLDATASIZE SUB DUP2 ADD SWAP1 PUSH2 0x2FC SWAP2 SWAP1 PUSH2 0x16CA JUMP JUMPDEST PUSH2 0xC54 JUMP JUMPDEST STOP JUMPDEST DUP1 PUSH1 0x7 PUSH1 0x0 SWAP1 SLOAD SWAP1 PUSH2 0x100 EXP SWAP1 DIV PUSH20 0xFFFFFFFFFFFFFFFFFFFFFFFFFFFFFFFFFFFFFFFF AND PUSH20 0xFFFFFFFFFFFFFFFFFFFFFFFFFFFFFFFFFFFFFFFF AND PUSH4 0xDD62ED3E CALLER ADDRESS PUSH1 0x40 MLOAD DUP4 PUSH4 0xFFFFFFFF AND PUSH1 0xE0 SHL DUP2 MSTORE PUSH1 0x4 ADD PUSH2 0x361 SWAP3 SWAP2 SWAP1 PUSH2 0x172E JUMP JUMPDEST PUSH1 0x20 PUSH1 0x40 MLOAD DUP1 DUP4 SUB DUP2 PUSH1 0x0 DUP8 GAS CALL ISZERO DUP1 ISZERO PUSH2 0x380 JUMPI RETURNDATASIZE PUSH1 0x0 DUP1 RETURNDATACOPY RETURNDATASIZE PUSH1 0x0 REVERT JUMPDEST POP POP POP POP PUSH1 0x40 MLOAD RETURNDATASIZE PUSH1 0x1F NOT PUSH1 0x1F DUP3 ADD AND DUP3 ADD DUP1 PUSH1 0x40 MSTORE POP DUP2 ADD SWAP1 PUSH2 0x3A4 SWAP2 SWAP1 PUSH2 0x176C JUMP JUMPDEST LT ISZERO PUSH2 0x3E5 JUMPI PUSH1 0x40 MLOAD PUSH32 0x8C379A000000000000000000000000000000000000000000000000000000000 DUP2 MSTORE PUSH1 0x4 ADD PUSH2 0x3DC SWAP1 PUSH2 0x17F6 JUMP JUMPDEST PUSH1 0x40 MLOAD DUP1 SWAP2 SUB SWAP1 REVERT JUMPDEST PUSH1 0x7 PUSH1 0x0 SWAP1 SLOAD SWAP1 PUSH2 0x100 EXP SWAP1 DIV PUSH20 0xFFFFFFFFFFFFFFFFFFFFFFFFFFFFFFFFFFFFFFFF AND PUSH20 0xFFFFFFFFFFFFFFFFFFFFFFFFFFFFFFFFFFFFFFFF AND PUSH4 0x23B872DD CALLER ADDRESS DUP5 PUSH1 0x40 MLOAD DUP5 PUSH4 0xFFFFFFFF AND PUSH1 0xE0 SHL DUP2 MSTORE PUSH1 0x4 ADD PUSH2 0x444 SWAP4 SWAP3 SWAP2 SWAP1 PUSH2 0x1816 JUMP JUMPDEST PUSH1 0x20 PUSH1 0x40 MLOAD DUP1 DUP4 SUB DUP2 PUSH1 0x0 DUP8 GAS CALL ISZERO DUP1 ISZERO PUSH2 0x463 JUMPI RETURNDATASIZE PUSH1 0x0 DUP1 RETURNDATACOPY RETURNDATASIZE PUSH1 0x0 REVERT JUMPDEST POP POP POP POP PUSH1 0x40 MLOAD RETURNDATASIZE PUSH1 0x1F NOT PUSH1 0x1F DUP3 ADD AND DUP3 ADD DUP1 PUSH1 0x40 MSTORE POP DUP2 ADD SWAP1 PUSH2 0x487 SWAP2 SWAP1 PUSH2 0x1879 JUMP JUMPDEST POP DUP2 PUSH1 0x5 PUSH1 0x0 CALLER PUSH20 0xFFFFFFFFFFFFFFFFFFFFFFFFFFFFFFFFFFFFFFFF AND PUSH20 0xFFFFFFFFFFFFFFFFFFFFFFFFFFFFFFFFFFFFFFFF AND DUP2 MSTORE PUSH1 0x20 ADD SWAP1 DUP2 MSTORE PUSH1 0x20 ADD PUSH1 0x0 KECCAK256 PUSH1 0x0 ADD PUSH1 0x0 DUP3 DUP3 SLOAD PUSH2 0x4DA SWAP2 SWAP1 PUSH2 0x18D5 JUMP JUMPDEST SWAP3 POP POP DUP2 SWAP1 SSTORE POP DUP2 PUSH1 0x5 PUSH1 0x0 CALLER PUSH20 0xFFFFFFFFFFFFFFFFFFFFFFFFFFFFFFFFFFFFFFFF AND PUSH20 0xFFFFFFFFFFFFFFFFFFFFFFFFFFFFFFFFFFFFFFFF AND DUP2 MSTORE PUSH1 0x20 ADD SWAP1 DUP2 MSTORE PUSH1 0x20 ADD PUSH1 0x0 KECCAK256 PUSH1 0x1 ADD PUSH1 0x0 DUP3 DUP3 SLOAD PUSH2 0x533 SWAP2 SWAP1 PUSH2 0x18D5 JUMP JUMPDEST SWAP3 POP POP DUP2 SWAP1 SSTORE POP PUSH31 0xCF51CAB78618603B70BA6D83208CB163CFAA39D041D7FB33AFC5E49970BADA CALLER DUP4 PUSH1 0x40 MLOAD PUSH2 0x56A SWAP3 SWAP2 SWAP1 PUSH2 0x1909 JUMP JUMPDEST PUSH1 0x40 MLOAD DUP1 SWAP2 SUB SWAP1 LOG1 POP POP JUMP JUMPDEST PUSH1 0x1 SLOAD DUP2 JUMP JUMPDEST PUSH1 0x4 PUSH1 0x0 PUSH1 0x1 DUP2 MSTORE PUSH1 0x20 ADD SWAP1 DUP2 MSTORE PUSH1 0x20 ADD PUSH1 0x0 KECCAK256 PUSH1 0x2 ADD SLOAD TIMESTAMP GT PUSH2 0x5D5 JUMPI PUSH1 0x40 MLOAD PUSH32 0x8C379A000000000000000000000000000000000000000000000000000000000 DUP2 MSTORE PUSH1 0x4 ADD PUSH2 0x5CC SWAP1 PUSH2 0x19A4 JUMP JUMPDEST PUSH1 0x40 MLOAD DUP1 SWAP2 SUB SWAP1 REVERT JUMPDEST PUSH1 0x4 PUSH1 0x0 PUSH1 0x2 SLOAD DUP2 MSTORE PUSH1 0x20 ADD SWAP1 DUP2 MSTORE PUSH1 0x20 ADD PUSH1 0x0 KECCAK256 PUSH1 0x3 ADD SLOAD TIMESTAMP GT PUSH2 0x62F JUMPI PUSH1 0x40 MLOAD PUSH32 0x8C379A000000000000000000000000000000000000000000000000000000000 DUP2 MSTORE PUSH1 0x4 ADD PUSH2 0x626 SWAP1 PUSH2 0x1A36 JUMP JUMPDEST PUSH1 0x40 MLOAD DUP1 SWAP2 SUB SWAP1 REVERT JUMPDEST PUSH1 0x1E PUSH1 0x4 PUSH1 0x0 PUSH1 0x2 SLOAD DUP2 MSTORE PUSH1 0x20 ADD SWAP1 DUP2 MSTORE PUSH1 0x20 ADD PUSH1 0x0 KECCAK256 PUSH1 0x3 ADD SLOAD TIMESTAMP PUSH2 0x655 SWAP2 SWAP1 PUSH2 0x1A56 JUMP JUMPDEST LT ISZERO PUSH2 0x696 JUMPI PUSH1 0x40 MLOAD PUSH32 0x8C379A000000000000000000000000000000000000000000000000000000000 DUP2 MSTORE PUSH1 0x4 ADD PUSH2 0x68D SWAP1 PUSH2 0x1AD6 JUMP JUMPDEST PUSH1 0x40 MLOAD DUP1 SWAP2 SUB SWAP1 REVERT JUMPDEST PUSH1 0x0 PUSH1 0x5 PUSH1 0x0 CALLER PUSH20 0xFFFFFFFFFFFFFFFFFFFFFFFFFFFFFFFFFFFFFFFF AND PUSH20 0xFFFFFFFFFFFFFFFFFFFFFFFFFFFFFFFFFFFFFFFF AND DUP2 MSTORE PUSH1 0x20 ADD SWAP1 DUP2 MSTORE PUSH1 0x20 ADD PUSH1 0x0 KECCAK256 PUSH1 0x1 ADD SLOAD SUB PUSH2 0x71B JUMPI PUSH1 0x40 MLOAD PUSH32 0x8C379A000000000000000000000000000000000000000000000000000000000 DUP2 MSTORE PUSH1 0x4 ADD PUSH2 0x712 SWAP1 PUSH2 0x1B68 JUMP JUMPDEST PUSH1 0x40 MLOAD DUP1 SWAP2 SUB SWAP1 REVERT JUMPDEST PUSH1 0x0 DUP1 PUSH2 0x726 PUSH2 0xCD7 JUMP JUMPDEST SWAP2 POP SWAP2 POP DUP1 PUSH1 0x5 PUSH1 0x0 CALLER PUSH20 0xFFFFFFFFFFFFFFFFFFFFFFFFFFFFFFFFFFFFFFFF AND PUSH20 0xFFFFFFFFFFFFFFFFFFFFFFFFFFFFFFFFFFFFFFFF AND DUP2 MSTORE PUSH1 0x20 ADD SWAP1 DUP2 MSTORE PUSH1 0x20 ADD PUSH1 0x0 KECCAK256 PUSH1 0x2 ADD PUSH1 0x0 DUP3 DUP3 SLOAD PUSH2 0x77C SWAP2 SWAP1 PUSH2 0x18D5 JUMP JUMPDEST SWAP3 POP POP DUP2 SWAP1 SSTORE POP DUP2 PUSH1 0x5 PUSH1 0x0 CALLER PUSH20 0xFFFFFFFFFFFFFFFFFFFFFFFFFFFFFFFFFFFFFFFF AND PUSH20 0xFFFFFFFFFFFFFFFFFFFFFFFFFFFFFFFFFFFFFFFF AND DUP2 MSTORE PUSH1 0x20 ADD SWAP1 DUP2 MSTORE PUSH1 0x20 ADD PUSH1 0x0 KECCAK256 PUSH1 0x1 ADD PUSH1 0x0 DUP3 DUP3 SLOAD PUSH2 0x7D5 SWAP2 SWAP1 PUSH2 0x1A56 JUMP JUMPDEST SWAP3 POP POP DUP2 SWAP1 SSTORE POP PUSH1 0x6 PUSH1 0x0 SWAP1 SLOAD SWAP1 PUSH2 0x100 EXP SWAP1 DIV PUSH20 0xFFFFFFFFFFFFFFFFFFFFFFFFFFFFFFFFFFFFFFFF AND PUSH20 0xFFFFFFFFFFFFFFFFFFFFFFFFFFFFFFFFFFFFFFFF AND PUSH4 0xA9059CBB CALLER DUP5 PUSH1 0x40 MLOAD DUP4 PUSH4 0xFFFFFFFF AND PUSH1 0xE0 SHL DUP2 MSTORE PUSH1 0x4 ADD PUSH2 0x839 SWAP3 SWAP2 SWAP1 PUSH2 0x1909 JUMP JUMPDEST PUSH1 0x20 PUSH1 0x40 MLOAD DUP1 DUP4 SUB DUP2 PUSH1 0x0 DUP8 GAS CALL ISZERO DUP1 ISZERO PUSH2 0x858 JUMPI RETURNDATASIZE PUSH1 0x0 DUP1 RETURNDATACOPY RETURNDATASIZE PUSH1 0x0 REVERT JUMPDEST POP POP POP POP PUSH1 0x40 MLOAD RETURNDATASIZE PUSH1 0x1F NOT PUSH1 0x1F DUP3 ADD AND DUP3 ADD DUP1 PUSH1 0x40 MSTORE POP DUP2 ADD SWAP1 PUSH2 0x87C SWAP2 SWAP1 PUSH2 0x1879 JUMP JUMPDEST POP POP POP JUMP JUMPDEST PUSH1 0x0 TIMESTAMP SWAP1 POP PUSH1 0x0 PUSH1 0x14 SWAP1 SLOAD SWAP1 PUSH2 0x100 EXP SWAP1 DIV PUSH1 0xFF AND ISZERO PUSH2 0x8D6 JUMPI PUSH1 0x40 MLOAD PUSH32 0x8C379A000000000000000000000000000000000000000000000000000000000 DUP2 MSTORE PUSH1 0x4 ADD PUSH2 0x8CD SWAP1 PUSH2 0x1BD4 JUMP JUMPDEST PUSH1 0x40 MLOAD DUP1 SWAP2 SUB SWAP1 REVERT JUMPDEST PUSH1 0x4 PUSH1 0x0 PUSH1 0x1 DUP2 MSTORE PUSH1 0x20 ADD SWAP1 DUP2 MSTORE PUSH1 0x20 ADD PUSH1 0x0 KECCAK256 PUSH1 0x2 ADD SLOAD DUP2 LT ISZERO PUSH2 0x930 JUMPI PUSH1 0x40 MLOAD PUSH32 0x8C379A000000000000000000000000000000000000000000000000000000000 DUP2 MSTORE PUSH1 0x4 ADD PUSH2 0x927 SWAP1 PUSH2 0x1C40 JUMP JUMPDEST PUSH1 0x40 MLOAD DUP1 SWAP2 SUB SWAP1 REVERT JUMPDEST PUSH1 0x4 PUSH1 0x0 PUSH1 0x1 SLOAD DUP2 MSTORE PUSH1 0x20 ADD SWAP1 DUP2 MSTORE PUSH1 0x20 ADD PUSH1 0x0 KECCAK256 PUSH1 0x3 ADD SLOAD DUP2 LT PUSH2 0x9BC JUMPI PUSH1 0x1 PUSH1 0x0 DUP2 SLOAD DUP1 SWAP3 SWAP2 SWAP1 PUSH2 0x962 SWAP1 PUSH2 0x1C60 JUMP JUMPDEST SWAP2 SWAP1 POP SSTORE POP PUSH1 0x2 SLOAD PUSH1 0x1 SLOAD GT ISZERO PUSH2 0x9AE JUMPI PUSH1 0x40 MLOAD PUSH32 0x8C379A000000000000000000000000000000000000000000000000000000000 DUP2 MSTORE PUSH1 0x4 ADD PUSH2 0x9A5 SWAP1 PUSH2 0x1CF4 JUMP JUMPDEST PUSH1 0x40 MLOAD DUP1 SWAP2 SUB SWAP1 REVERT JUMPDEST PUSH2 0x9B7 DUP3 PUSH2 0x881 JUMP JUMPDEST PUSH2 0xA5B JUMP JUMPDEST PUSH1 0x2 SLOAD PUSH1 0x1 SLOAD GT PUSH2 0xA1F JUMPI PUSH2 0x9CF PUSH2 0xDC2 JUMP JUMPDEST PUSH1 0x0 DUP1 PUSH1 0x0 PUSH2 0x9E0 PUSH1 0x1 SLOAD DUP7 PUSH2 0xE95 JUMP JUMPDEST DUP1 SWAP4 POP DUP2 SWAP5 POP DUP3 SWAP6 POP POP POP POP PUSH2 0x9F7 DUP4 DUP4 DUP4 PUSH2 0x10E7 JUMP JUMPDEST PUSH2 0xA02 DUP3 DUP5 DUP4 PUSH2 0x1186 JUMP JUMPDEST PUSH2 0xA17 DUP4 DUP3 DUP8 PUSH2 0xA12 SWAP2 SWAP1 PUSH2 0x1A56 JUMP JUMPDEST PUSH2 0x303 JUMP JUMPDEST POP POP POP PUSH2 0xA5A JUMP JUMPDEST PUSH1 0x40 MLOAD PUSH32 0x8C379A000000000000000000000000000000000000000000000000000000000 DUP2 MSTORE PUSH1 0x4 ADD PUSH2 0xA51 SWAP1 PUSH2 0x1CF4 JUMP JUMPDEST PUSH1 0x40 MLOAD DUP1 SWAP2 SUB SWAP1 REVERT JUMPDEST JUMPDEST POP POP JUMP JUMPDEST PUSH1 0x0 DUP1 PUSH4 0x3B9ACA00 SWAP1 POP PUSH1 0x0 PUSH4 0x5F5E100 DUP5 PUSH2 0xA7B SWAP2 SWAP1 PUSH2 0x1D14 JUMP JUMPDEST DUP6 DUP4 PUSH2 0xA87 SWAP2 SWAP1 PUSH2 0x1D14 JUMP JUMPDEST PUSH2 0xA91 SWAP2 SWAP1 PUSH2 0x1D85 JUMP JUMPDEST SWAP1 POP DUP1 SWAP3 POP POP POP SWAP3 SWAP2 POP POP JUMP JUMPDEST PUSH2 0xAA6 PUSH2 0x1297 JUMP JUMPDEST PUSH2 0xAB0 PUSH1 0x0 PUSH2 0x1315 JUMP JUMPDEST JUMP JUMPDEST PUSH1 0x0 DUP1 PUSH4 0x3B9ACA00 SWAP1 POP PUSH1 0x0 DUP2 PUSH4 0x5F5E100 DUP7 PUSH1 0x4 PUSH1 0x0 DUP9 DUP2 MSTORE PUSH1 0x20 ADD SWAP1 DUP2 MSTORE PUSH1 0x20 ADD PUSH1 0x0 KECCAK256 PUSH1 0x4 ADD SLOAD PUSH2 0xAE6 SWAP2 SWAP1 PUSH2 0x1D14 JUMP JUMPDEST PUSH2 0xAF0 SWAP2 SWAP1 PUSH2 0x1D14 JUMP JUMPDEST PUSH2 0xAFA SWAP2 SWAP1 PUSH2 0x1D85 JUMP JUMPDEST SWAP1 POP DUP1 SWAP3 POP POP POP SWAP3 SWAP2 POP POP JUMP JUMPDEST PUSH1 0x0 PUSH1 0x14 SWAP1 SLOAD SWAP1 PUSH2 0x100 EXP SWAP1 DIV PUSH1 0xFF AND DUP2 JUMP JUMPDEST PUSH1 0x0 DUP1 PUSH1 0x0 SWAP1 SLOAD SWAP1 PUSH2 0x100 EXP SWAP1 DIV PUSH20 0xFFFFFFFFFFFFFFFFFFFFFFFFFFFFFFFFFFFFFFFF AND SWAP1 POP SWAP1 JUMP JUMPDEST PUSH2 0xB4B PUSH2 0x1297 JUMP JUMPDEST PUSH1 0x0 PUSH1 0x14 SWAP1 SLOAD SWAP1 PUSH2 0x100 EXP SWAP1 DIV PUSH1 0xFF AND ISZERO PUSH1 0x0 PUSH1 0x14 PUSH2 0x100 EXP DUP2 SLOAD DUP2 PUSH1 0xFF MUL NOT AND SWAP1 DUP4 ISZERO ISZERO MUL OR SWAP1 SSTORE POP JUMP JUMPDEST PUSH1 0x4 PUSH1 0x20 MSTORE DUP1 PUSH1 0x0 MSTORE PUSH1 0x40 PUSH1 0x0 KECCAK256 PUSH1 0x0 SWAP2 POP SWAP1 POP DUP1 PUSH1 0x0 ADD SLOAD SWAP1 DUP1 PUSH1 0x1 ADD SLOAD SWAP1 DUP1 PUSH1 0x2 ADD SLOAD SWAP1 DUP1 PUSH1 0x3 ADD SLOAD SWAP1 DUP1 PUSH1 0x4 ADD SLOAD SWAP1 POP DUP6 JUMP JUMPDEST PUSH1 0x0 TIMESTAMP SWAP1 POP SWAP1 JUMP JUMPDEST PUSH1 0x2 SLOAD DUP2 JUMP JUMPDEST PUSH1 0x0 DUP1 PUSH1 0x0 PUSH1 0x14 SWAP1 SLOAD SWAP1 PUSH2 0x100 EXP SWAP1 DIV PUSH1 0xFF AND ISZERO PUSH2 0xC0E JUMPI PUSH1 0x40 MLOAD PUSH32 0x8C379A000000000000000000000000000000000000000000000000000000000 DUP2 MSTORE PUSH1 0x4 ADD PUSH2 0xC05 SWAP1 PUSH2 0x1BD4 JUMP JUMPDEST PUSH1 0x40 MLOAD DUP1 SWAP2 SUB SWAP1 REVERT JUMPDEST PUSH2 0xC1A PUSH1 0x1 SLOAD DUP5 PUSH2 0xE95 JUMP JUMPDEST SWAP1 POP POP DUP1 SWAP2 POP POP DUP1 SWAP2 POP POP SWAP2 SWAP1 POP JUMP JUMPDEST PUSH1 0x5 PUSH1 0x20 MSTORE DUP1 PUSH1 0x0 MSTORE PUSH1 0x40 PUSH1 0x0 KECCAK256 PUSH1 0x0 SWAP2 POP SWAP1 POP DUP1 PUSH1 0x0 ADD SLOAD SWAP1 DUP1 PUSH1 0x1 ADD SLOAD SWAP1 DUP1 PUSH1 0x2 ADD SLOAD SWAP1 POP DUP4 JUMP JUMPDEST PUSH2 0xC5C PUSH2 0x1297 JUMP JUMPDEST PUSH1 0x0 PUSH20 0xFFFFFFFFFFFFFFFFFFFFFFFFFFFFFFFFFFFFFFFF AND DUP2 PUSH20 0xFFFFFFFFFFFFFFFFFFFFFFFFFFFFFFFFFFFFFFFF AND SUB PUSH2 0xCCB JUMPI PUSH1 0x40 MLOAD PUSH32 0x8C379A000000000000000000000000000000000000000000000000000000000 DUP2 MSTORE PUSH1 0x4 ADD PUSH2 0xCC2 SWAP1 PUSH2 0x1E28 JUMP JUMPDEST PUSH1 0x40 MLOAD DUP1 SWAP2 SUB SWAP1 REVERT JUMPDEST PUSH2 0xCD4 DUP2 PUSH2 0x1315 JUMP JUMPDEST POP JUMP JUMPDEST PUSH1 0x0 DUP1 PUSH1 0x0 PUSH1 0x1E PUSH1 0x4 PUSH1 0x0 PUSH1 0x2 SLOAD DUP2 MSTORE PUSH1 0x20 ADD SWAP1 DUP2 MSTORE PUSH1 0x20 ADD PUSH1 0x0 KECCAK256 PUSH1 0x3 ADD SLOAD TIMESTAMP SUB DUP2 PUSH2 0xD07 JUMPI PUSH2 0xD06 PUSH2 0x1D56 JUMP JUMPDEST JUMPDEST DIV SWAP1 POP PUSH1 0xA DUP2 GT ISZERO PUSH2 0xD18 JUMPI PUSH1 0xA SWAP1 POP JUMPDEST PUSH1 0x0 PUSH1 0x5 PUSH1 0x0 CALLER PUSH20 0xFFFFFFFFFFFFFFFFFFFFFFFFFFFFFFFFFFFFFFFF AND PUSH20 0xFFFFFFFFFFFFFFFFFFFFFFFFFFFFFFFFFFFFFFFF AND DUP2 MSTORE PUSH1 0x20 ADD SWAP1 DUP2 MSTORE PUSH1 0x20 ADD PUSH1 0x0 KECCAK256 PUSH1 0x2 ADD SLOAD DUP3 SUB SWAP1 POP PUSH1 0xA PUSH1 0x5 PUSH1 0x0 CALLER PUSH20 0xFFFFFFFFFFFFFFFFFFFFFFFFFFFFFFFFFFFFFFFF AND PUSH20 0xFFFFFFFFFFFFFFFFFFFFFFFFFFFFFFFFFFFFFFFF AND DUP2 MSTORE PUSH1 0x20 ADD SWAP1 DUP2 MSTORE PUSH1 0x20 ADD PUSH1 0x0 KECCAK256 PUSH1 0x0 ADD SLOAD DUP3 MUL DUP2 PUSH2 0xDB6 JUMPI PUSH2 0xDB5 PUSH2 0x1D56 JUMP JUMPDEST JUMPDEST DIV DUP2 SWAP4 POP SWAP4 POP POP POP SWAP1 SWAP2 JUMP JUMPDEST PUSH1 0x1 DUP1 SLOAD EQ ISZERO DUP1 ISZERO PUSH2 0xDF7 JUMPI POP PUSH1 0x0 PUSH1 0x4 PUSH1 0x0 PUSH1 0x1 DUP1 SLOAD PUSH2 0xDE3 SWAP2 SWAP1 PUSH2 0x1A56 JUMP JUMPDEST DUP2 MSTORE PUSH1 0x20 ADD SWAP1 DUP2 MSTORE PUSH1 0x20 ADD PUSH1 0x0 KECCAK256 PUSH1 0x4 ADD SLOAD GT JUMPDEST ISZERO PUSH2 0xE93 JUMPI PUSH1 0x0 DUP1 PUSH1 0x1 SWAP1 POP JUMPDEST PUSH1 0x1 SLOAD DUP2 LT ISZERO PUSH2 0xE61 JUMPI PUSH1 0x4 PUSH1 0x0 DUP3 DUP2 MSTORE PUSH1 0x20 ADD SWAP1 DUP2 MSTORE PUSH1 0x20 ADD PUSH1 0x0 KECCAK256 PUSH1 0x4 ADD SLOAD DUP3 PUSH2 0xE30 SWAP2 SWAP1 PUSH2 0x18D5 JUMP JUMPDEST SWAP2 POP PUSH1 0x0 PUSH1 0x4 PUSH1 0x0 DUP4 DUP2 MSTORE PUSH1 0x20 ADD SWAP1 DUP2 MSTORE PUSH1 0x20 ADD PUSH1 0x0 KECCAK256 PUSH1 0x4 ADD DUP2 SWAP1 SSTORE POP DUP1 DUP1 PUSH2 0xE59 SWAP1 PUSH2 0x1C60 JUMP JUMPDEST SWAP2 POP POP PUSH2 0xE04 JUMP JUMPDEST POP DUP1 PUSH1 0x4 PUSH1 0x0 PUSH1 0x1 SLOAD DUP2 MSTORE PUSH1 0x20 ADD SWAP1 DUP2 MSTORE PUSH1 0x20 ADD PUSH1 0x0 KECCAK256 PUSH1 0x4 ADD PUSH1 0x0 DUP3 DUP3 SLOAD PUSH2 0xE8A SWAP2 SWAP1 PUSH2 0x18D5 JUMP JUMPDEST SWAP3 POP POP DUP2 SWAP1 SSTORE POP POP JUMPDEST JUMP JUMPDEST PUSH1 0x0 DUP1 PUSH1 0x0 PUSH1 0x2 SLOAD DUP6 GT ISZERO PUSH2 0xEDF JUMPI PUSH1 0x40 MLOAD PUSH32 0x8C379A000000000000000000000000000000000000000000000000000000000 DUP2 MSTORE PUSH1 0x4 ADD PUSH2 0xED6 SWAP1 PUSH2 0x1CF4 JUMP JUMPDEST PUSH1 0x40 MLOAD DUP1 SWAP2 SUB SWAP1 REVERT JUMPDEST PUSH1 0x4 PUSH1 0x0 DUP7 DUP2 MSTORE PUSH1 0x20 ADD SWAP1 DUP2 MSTORE PUSH1 0x20 ADD PUSH1 0x0 KECCAK256 PUSH1 0x3 ADD SLOAD TIMESTAMP LT PUSH2 0xF1A JUMPI PUSH2 0xF12 PUSH1 0x1 DUP7 PUSH2 0xF0C SWAP2 SWAP1 PUSH2 0x18D5 JUMP JUMPDEST DUP6 PUSH2 0xE95 JUMP JUMPDEST POP POP POP PUSH2 0x10D4 JUMP JUMPDEST PUSH1 0x0 DUP1 PUSH1 0x0 DUP1 PUSH1 0x0 PUSH1 0x4 PUSH1 0x0 DUP12 DUP2 MSTORE PUSH1 0x20 ADD SWAP1 DUP2 MSTORE PUSH1 0x20 ADD PUSH1 0x0 KECCAK256 PUSH1 0x40 MLOAD DUP1 PUSH1 0xA0 ADD PUSH1 0x40 MSTORE SWAP1 DUP2 PUSH1 0x0 DUP3 ADD SLOAD DUP2 MSTORE PUSH1 0x20 ADD PUSH1 0x1 DUP3 ADD SLOAD DUP2 MSTORE PUSH1 0x20 ADD PUSH1 0x2 DUP3 ADD SLOAD DUP2 MSTORE PUSH1 0x20 ADD PUSH1 0x3 DUP3 ADD SLOAD DUP2 MSTORE PUSH1 0x20 ADD PUSH1 0x4 DUP3 ADD SLOAD DUP2 MSTORE POP POP SWAP1 POP PUSH1 0x0 PUSH2 0xF84 DUP11 DUP4 PUSH1 0x0 ADD MLOAD PUSH2 0xA5F JUMP JUMPDEST SWAP1 POP DUP2 PUSH1 0x80 ADD MLOAD DUP2 LT ISZERO PUSH2 0xFA7 JUMPI DUP1 DUP12 PUSH1 0x0 SWAP9 POP SWAP9 POP SWAP9 POP POP POP POP POP POP POP PUSH2 0x10E0 JUMP JUMPDEST DUP2 PUSH1 0x80 ADD MLOAD DUP2 SUB PUSH2 0xFD3 JUMPI DUP1 PUSH1 0x1 DUP13 PUSH2 0xFC0 SWAP2 SWAP1 PUSH2 0x18D5 JUMP JUMPDEST PUSH1 0x0 SWAP9 POP SWAP9 POP SWAP9 POP POP POP POP POP POP POP PUSH2 0x10E0 JUMP JUMPDEST DUP2 PUSH1 0x80 ADD MLOAD DUP2 GT ISZERO PUSH2 0x10CD JUMPI DUP2 PUSH1 0x80 ADD MLOAD SWAP5 POP PUSH2 0x1025 PUSH1 0x40 MLOAD DUP1 PUSH1 0x40 ADD PUSH1 0x40 MSTORE DUP1 PUSH1 0xB DUP2 MSTORE PUSH1 0x20 ADD PUSH32 0x746F74616C746F6B656E73000000000000000000000000000000000000000000 DUP2 MSTORE POP DUP3 PUSH2 0x13D9 JUMP JUMPDEST PUSH1 0x0 PUSH2 0x1035 DUP4 PUSH1 0x0 ADD MLOAD DUP14 PUSH2 0xAB2 JUMP JUMPDEST SWAP1 POP PUSH1 0x2 SLOAD DUP13 LT ISZERO PUSH2 0x10A1 JUMPI PUSH2 0x1062 PUSH1 0x1 DUP14 PUSH2 0x1051 SWAP2 SWAP1 PUSH2 0x18D5 JUMP JUMPDEST DUP3 DUP14 PUSH2 0x105D SWAP2 SWAP1 PUSH2 0x1A56 JUMP JUMPDEST PUSH2 0xE95 JUMP JUMPDEST DUP1 SWAP7 POP DUP2 SWAP8 POP DUP3 SWAP10 POP POP POP POP DUP7 DUP7 PUSH2 0x107A SWAP2 SWAP1 PUSH2 0x18D5 JUMP JUMPDEST PUSH2 0x1084 DUP14 DUP8 PUSH2 0x1475 JUMP JUMPDEST PUSH2 0x108F PUSH1 0x0 DUP8 PUSH2 0x1475 JUMP JUMPDEST SWAP10 POP SWAP10 POP SWAP10 POP POP POP POP POP POP POP POP PUSH2 0x10E0 JUMP JUMPDEST PUSH1 0x2 SLOAD DUP13 SUB PUSH2 0x10CB JUMPI DUP6 PUSH1 0x3 DUP3 DUP14 PUSH2 0x10B9 SWAP2 SWAP1 PUSH2 0x1A56 JUMP JUMPDEST SWAP10 POP SWAP10 POP SWAP10 POP POP POP POP POP POP POP POP PUSH2 0x10E0 JUMP JUMPDEST POP JUMPDEST POP POP POP POP POP POP JUMPDEST PUSH1 0x0 DUP1 PUSH1 0x0 SWAP3 POP SWAP3 POP SWAP3 POP JUMPDEST SWAP3 POP SWAP3 POP SWAP3 JUMP JUMPDEST PUSH2 0x1181 DUP4 DUP4 DUP4 PUSH1 0x40 MLOAD PUSH1 0x24 ADD PUSH2 0x10FF SWAP4 SWAP3 SWAP2 SWAP1 PUSH2 0x16F7 JUMP JUMPDEST PUSH1 0x40 MLOAD PUSH1 0x20 DUP2 DUP4 SUB SUB DUP2 MSTORE SWAP1 PUSH1 0x40 MSTORE PUSH32 0xD1ED7A3C00000000000000000000000000000000000000000000000000000000 PUSH28 0xFFFFFFFFFFFFFFFFFFFFFFFFFFFFFFFFFFFFFFFFFFFFFFFFFFFFFFFF NOT AND PUSH1 0x20 DUP3 ADD DUP1 MLOAD PUSH28 0xFFFFFFFFFFFFFFFFFFFFFFFFFFFFFFFFFFFFFFFFFFFFFFFFFFFFFFFF DUP4 DUP2 DUP4 AND OR DUP4 MSTORE POP POP POP POP PUSH2 0x148F JUMP JUMPDEST POP POP POP JUMP JUMPDEST PUSH1 0x1 SLOAD DUP4 SUB PUSH2 0x11BA JUMPI DUP2 PUSH1 0x4 PUSH1 0x0 PUSH1 0x1 SLOAD DUP2 MSTORE PUSH1 0x20 ADD SWAP1 DUP2 MSTORE PUSH1 0x20 ADD PUSH1 0x0 KECCAK256 PUSH1 0x4 ADD PUSH1 0x0 DUP3 DUP3 SLOAD SUB SWAP3 POP POP DUP2 SWAP1 SSTORE POP PUSH2 0x1253 JUMP JUMPDEST PUSH1 0x0 DUP1 PUSH1 0x1 SLOAD SWAP1 POP JUMPDEST DUP5 DUP2 LT ISZERO PUSH2 0x122A JUMPI PUSH1 0x4 PUSH1 0x0 DUP3 DUP2 MSTORE PUSH1 0x20 ADD SWAP1 DUP2 MSTORE PUSH1 0x20 ADD PUSH1 0x0 KECCAK256 PUSH1 0x4 ADD SLOAD DUP3 ADD SWAP2 POP PUSH1 0x0 PUSH1 0x4 PUSH1 0x0 DUP4 DUP2 MSTORE PUSH1 0x20 ADD SWAP1 DUP2 MSTORE PUSH1 0x20 ADD PUSH1 0x0 KECCAK256 PUSH1 0x4 ADD DUP2 SWAP1 SSTORE POP TIMESTAMP PUSH1 0x4 PUSH1 0x0 DUP4 DUP2 MSTORE PUSH1 0x20 ADD SWAP1 DUP2 MSTORE PUSH1 0x20 ADD PUSH1 0x0 KECCAK256 PUSH1 0x3 ADD DUP2 SWAP1 SSTORE POP DUP1 DUP1 PUSH1 0x1 ADD SWAP2 POP POP PUSH2 0x11C3 JUMP JUMPDEST POP DUP1 DUP4 SUB PUSH1 0x4 PUSH1 0x0 DUP7 DUP2 MSTORE PUSH1 0x20 ADD SWAP1 DUP2 MSTORE PUSH1 0x20 ADD PUSH1 0x0 KECCAK256 PUSH1 0x4 ADD PUSH1 0x0 DUP3 DUP3 SLOAD SUB SWAP3 POP POP DUP2 SWAP1 SSTORE POP POP JUMPDEST PUSH1 0x0 DUP2 GT ISZERO PUSH2 0x128A JUMPI PUSH1 0x1 PUSH1 0x2 SLOAD ADD PUSH1 0x1 DUP2 SWAP1 SSTORE POP TIMESTAMP PUSH1 0x4 PUSH1 0x0 PUSH1 0x2 SLOAD DUP2 MSTORE PUSH1 0x20 ADD SWAP1 DUP2 MSTORE PUSH1 0x20 ADD PUSH1 0x0 KECCAK256 PUSH1 0x3 ADD DUP2 SWAP1 SSTORE POP PUSH2 0x1292 JUMP JUMPDEST DUP3 PUSH1 0x1 DUP2 SWAP1 SSTORE POP JUMPDEST POP POP POP JUMP JUMPDEST PUSH2 0x129F PUSH2 0x14A9 JUMP JUMPDEST PUSH20 0xFFFFFFFFFFFFFFFFFFFFFFFFFFFFFFFFFFFFFFFF AND PUSH2 0x12BD PUSH2 0xB1A JUMP JUMPDEST PUSH20 0xFFFFFFFFFFFFFFFFFFFFFFFFFFFFFFFFFFFFFFFF AND EQ PUSH2 0x1313 JUMPI PUSH1 0x40 MLOAD PUSH32 0x8C379A000000000000000000000000000000000000000000000000000000000 DUP2 MSTORE PUSH1 0x4 ADD PUSH2 0x130A SWAP1 PUSH2 0x1E94 JUMP JUMPDEST PUSH1 0x40 MLOAD DUP1 SWAP2 SUB SWAP1 REVERT JUMPDEST JUMP JUMPDEST PUSH1 0x0 DUP1 PUSH1 0x0 SWAP1 SLOAD SWAP1 PUSH2 0x100 EXP SWAP1 DIV PUSH20 0xFFFFFFFFFFFFFFFFFFFFFFFFFFFFFFFFFFFFFFFF AND SWAP1 POP DUP2 PUSH1 0x0 DUP1 PUSH2 0x100 EXP DUP2 SLOAD DUP2 PUSH20 0xFFFFFFFFFFFFFFFFFFFFFFFFFFFFFFFFFFFFFFFF MUL NOT AND SWAP1 DUP4 PUSH20 0xFFFFFFFFFFFFFFFFFFFFFFFFFFFFFFFFFFFFFFFF AND MUL OR SWAP1 SSTORE POP DUP2 PUSH20 0xFFFFFFFFFFFFFFFFFFFFFFFFFFFFFFFFFFFFFFFF AND DUP2 PUSH20 0xFFFFFFFFFFFFFFFFFFFFFFFFFFFFFFFFFFFFFFFF AND PUSH32 0x8BE0079C531659141344CD1FD0A4F28419497F9722A3DAAFE3B4186F6B6457E0 PUSH1 0x40 MLOAD PUSH1 0x40 MLOAD DUP1 SWAP2 SUB SWAP1 LOG3 POP POP JUMP JUMPDEST PUSH2 0x1471 DUP3 DUP3 PUSH1 0x40 MLOAD PUSH1 0x24 ADD PUSH2 0x13EF SWAP3 SWAP2 SWAP1 PUSH2 0x1F33 JUMP JUMPDEST PUSH1 0x40 MLOAD PUSH1 0x20 DUP2 DUP4 SUB SUB DUP2 MSTORE SWAP1 PUSH1 0x40 MSTORE PUSH32 0xB60E72CC00000000000000000000000000000000000000000000000000000000 PUSH28 0xFFFFFFFFFFFFFFFFFFFFFFFFFFFFFFFFFFFFFFFFFFFFFFFFFFFFFFFF NOT AND PUSH1 0x20 DUP3 ADD DUP1 MLOAD PUSH28 0xFFFFFFFFFFFFFFFFFFFFFFFFFFFFFFFFFFFFFFFFFFFFFFFFFFFFFFFF DUP4 DUP2 DUP4 AND OR DUP4 MSTORE POP POP POP POP PUSH2 0x148F JUMP JUMPDEST POP POP JUMP JUMPDEST PUSH1 0x0 DUP2 DUP4 LT ISZERO PUSH2 0x1485 JUMPI DUP2 PUSH2 0x1487 JUMP JUMPDEST DUP3 JUMPDEST SWAP1 POP SWAP3 SWAP2 POP POP JUMP JUMPDEST PUSH2 0x14A6 DUP2 PUSH2 0x149E PUSH2 0x14B1 PUSH2 0x14D2 JUMP JUMPDEST PUSH4 0xFFFFFFFF AND JUMP JUMPDEST POP JUMP JUMPDEST PUSH1 0x0 CALLER SWAP1 POP SWAP1 JUMP JUMPDEST PUSH1 0x0 PUSH11 0x636F6E736F6C652E6C6F67 SWAP1 POP PUSH1 0x0 DUP1 DUP4 MLOAD PUSH1 0x20 DUP6 ADD DUP5 GAS STATICCALL POP POP POP JUMP JUMPDEST PUSH2 0x14DD DUP2 SWAP1 POP SWAP2 SWAP1 POP JUMP JUMPDEST PUSH2 0x14E5 PUSH2 0x1F63 JUMP JUMPDEST JUMP JUMPDEST PUSH1 0x0 DUP1 REVERT JUMPDEST PUSH1 0x0 DUP2 SWAP1 POP SWAP2 SWAP1 POP JUMP JUMPDEST PUSH2 0x14FF DUP2 PUSH2 0x14EC JUMP JUMPDEST DUP2 EQ PUSH2 0x150A JUMPI PUSH1 0x0 DUP1 REVERT JUMPDEST POP JUMP JUMPDEST PUSH1 0x0 DUP2 CALLDATALOAD SWAP1 POP PUSH2 0x151C DUP2 PUSH2 0x14F6 JUMP JUMPDEST SWAP3 SWAP2 POP POP JUMP JUMPDEST PUSH1 0x0 DUP1 PUSH1 0x40 DUP4 DUP6 SUB SLT ISZERO PUSH2 0x1539 JUMPI PUSH2 0x1538 PUSH2 0x14E7 JUMP JUMPDEST JUMPDEST PUSH1 0x0 PUSH2 0x1547 DUP6 DUP3 DUP7 ADD PUSH2 0x150D JUMP JUMPDEST SWAP3 POP POP PUSH1 0x20 PUSH2 0x1558 DUP6 DUP3 DUP7 ADD PUSH2 0x150D JUMP JUMPDEST SWAP2 POP POP SWAP3 POP SWAP3 SWAP1 POP JUMP JUMPDEST PUSH2 0x156B DUP2 PUSH2 0x14EC JUMP JUMPDEST DUP3 MSTORE POP POP JUMP JUMPDEST PUSH1 0x0 PUSH1 0x20 DUP3 ADD SWAP1 POP PUSH2 0x1586 PUSH1 0x0 DUP4 ADD DUP5 PUSH2 0x1562 JUMP JUMPDEST SWAP3 SWAP2 POP POP JUMP JUMPDEST PUSH1 0x0 PUSH1 0x20 DUP3 DUP5 SUB SLT ISZERO PUSH2 0x15A2 JUMPI PUSH2 0x15A1 PUSH2 0x14E7 JUMP JUMPDEST JUMPDEST PUSH1 0x0 PUSH2 0x15B0 DUP5 DUP3 DUP6 ADD PUSH2 0x150D JUMP JUMPDEST SWAP2 POP POP SWAP3 SWAP2 POP POP JUMP JUMPDEST PUSH1 0x0 DUP2 ISZERO ISZERO SWAP1 POP SWAP2 SWAP1 POP JUMP JUMPDEST PUSH2 0x15CE DUP2 PUSH2 0x15B9 JUMP JUMPDEST DUP3 MSTORE POP POP JUMP JUMPDEST PUSH1 0x0 PUSH1 0x20 DUP3 ADD SWAP1 POP PUSH2 0x15E9 PUSH1 0x0 DUP4 ADD DUP5 PUSH2 0x15C5 JUMP JUMPDEST SWAP3 SWAP2 POP POP JUMP JUMPDEST PUSH1 0x0 PUSH20 0xFFFFFFFFFFFFFFFFFFFFFFFFFFFFFFFFFFFFFFFF DUP3 AND SWAP1 POP SWAP2 SWAP1 POP JUMP JUMPDEST PUSH1 0x0 PUSH2 0x161A DUP3 PUSH2 0x15EF JUMP JUMPDEST SWAP1 POP SWAP2 SWAP1 POP JUMP JUMPDEST PUSH2 0x162A DUP2 PUSH2 0x160F JUMP JUMPDEST DUP3 MSTORE POP POP JUMP JUMPDEST PUSH1 0x0 PUSH1 0x20 DUP3 ADD SWAP1 POP PUSH2 0x1645 PUSH1 0x0 DUP4 ADD DUP5 PUSH2 0x1621 JUMP JUMPDEST SWAP3 SWAP2 POP POP JUMP JUMPDEST PUSH1 0x0 PUSH1 0xA0 DUP3 ADD SWAP1 POP PUSH2 0x1660 PUSH1 0x0 DUP4 ADD DUP9 PUSH2 0x1562 JUMP JUMPDEST PUSH2 0x166D PUSH1 0x20 DUP4 ADD DUP8 PUSH2 0x1562 JUMP JUMPDEST PUSH2 0x167A PUSH1 0x40 DUP4 ADD DUP7 PUSH2 0x1562 JUMP JUMPDEST PUSH2 0x1687 PUSH1 0x60 DUP4 ADD DUP6 PUSH2 0x1562 JUMP JUMPDEST PUSH2 0x1694 PUSH1 0x80 DUP4 ADD DUP5 PUSH2 0x1562 JUMP JUMPDEST SWAP7 SWAP6 POP POP POP POP POP POP JUMP JUMPDEST PUSH2 0x16A7 DUP2 PUSH2 0x160F JUMP JUMPDEST DUP2 EQ PUSH2 0x16B2 JUMPI PUSH1 0x0 DUP1 REVERT JUMPDEST POP JUMP JUMPDEST PUSH1 0x0 DUP2 CALLDATALOAD SWAP1 POP PUSH2 0x16C4 DUP2 PUSH2 0x169E JUMP JUMPDEST SWAP3 SWAP2 POP POP JUMP JUMPDEST PUSH1 0x0 PUSH1 0x20 DUP3 DUP5 SUB SLT ISZERO PUSH2 0x16E0 JUMPI PUSH2 0x16DF PUSH2 0x14E7 JUMP JUMPDEST JUMPDEST PUSH1 0x0 PUSH2 0x16EE DUP5 DUP3 DUP6 ADD PUSH2 0x16B5 JUMP JUMPDEST SWAP2 POP POP SWAP3 SWAP2 POP POP JUMP JUMPDEST PUSH1 0x0 PUSH1 0x60 DUP3 ADD SWAP1 POP PUSH2 0x170C PUSH1 0x0 DUP4 ADD DUP7 PUSH2 0x1562 JUMP JUMPDEST PUSH2 0x1719 PUSH1 0x20 DUP4 ADD DUP6 PUSH2 0x1562 JUMP JUMPDEST PUSH2 0x1726 PUSH1 0x40 DUP4 ADD DUP5 PUSH2 0x1562 JUMP JUMPDEST SWAP5 SWAP4 POP POP POP POP JUMP JUMPDEST PUSH1 0x0 PUSH1 0x40 DUP3 ADD SWAP1 POP PUSH2 0x1743 PUSH1 0x0 DUP4 ADD DUP6 PUSH2 0x1621 JUMP JUMPDEST PUSH2 0x1750 PUSH1 0x20 DUP4 ADD DUP5 PUSH2 0x1621 JUMP JUMPDEST SWAP4 SWAP3 POP POP POP JUMP JUMPDEST PUSH1 0x0 DUP2 MLOAD SWAP1 POP PUSH2 0x1766 DUP2 PUSH2 0x14F6 JUMP JUMPDEST SWAP3 SWAP2 POP POP JUMP JUMPDEST PUSH1 0x0 PUSH1 0x20 DUP3 DUP5 SUB SLT ISZERO PUSH2 0x1782 JUMPI PUSH2 0x1781 PUSH2 0x14E7 JUMP JUMPDEST JUMPDEST PUSH1 0x0 PUSH2 0x1790 DUP5 DUP3 DUP6 ADD PUSH2 0x1757 JUMP JUMPDEST SWAP2 POP POP SWAP3 SWAP2 POP POP JUMP JUMPDEST PUSH1 0x0 DUP3 DUP3 MSTORE PUSH1 0x20 DUP3 ADD SWAP1 POP SWAP3 SWAP2 POP POP JUMP JUMPDEST PUSH32 0x706C6561736520696E63726561736520616C6C6F77616E636500000000000000 PUSH1 0x0 DUP3 ADD MSTORE POP JUMP JUMPDEST PUSH1 0x0 PUSH2 0x17E0 PUSH1 0x19 DUP4 PUSH2 0x1799 JUMP JUMPDEST SWAP2 POP PUSH2 0x17EB DUP3 PUSH2 0x17AA JUMP JUMPDEST PUSH1 0x20 DUP3 ADD SWAP1 POP SWAP2 SWAP1 POP JUMP JUMPDEST PUSH1 0x0 PUSH1 0x20 DUP3 ADD SWAP1 POP DUP2 DUP2 SUB PUSH1 0x0 DUP4 ADD MSTORE PUSH2 0x180F DUP2 PUSH2 0x17D3 JUMP JUMPDEST SWAP1 POP SWAP2 SWAP1 POP JUMP JUMPDEST PUSH1 0x0 PUSH1 0x60 DUP3 ADD SWAP1 POP PUSH2 0x182B PUSH1 0x0 DUP4 ADD DUP7 PUSH2 0x1621 JUMP JUMPDEST PUSH2 0x1838 PUSH1 0x20 DUP4 ADD DUP6 PUSH2 0x1621 JUMP JUMPDEST PUSH2 0x1845 PUSH1 0x40 DUP4 ADD DUP5 PUSH2 0x1562 JUMP JUMPDEST SWAP5 SWAP4 POP POP POP POP JUMP JUMPDEST PUSH2 0x1856 DUP2 PUSH2 0x15B9 JUMP JUMPDEST DUP2 EQ PUSH2 0x1861 JUMPI PUSH1 0x0 DUP1 REVERT JUMPDEST POP JUMP JUMPDEST PUSH1 0x0 DUP2 MLOAD SWAP1 POP PUSH2 0x1873 DUP2 PUSH2 0x184D JUMP JUMPDEST SWAP3 SWAP2 POP POP JUMP JUMPDEST PUSH1 0x0 PUSH1 0x20 DUP3 DUP5 SUB SLT ISZERO PUSH2 0x188F JUMPI PUSH2 0x188E PUSH2 0x14E7 JUMP JUMPDEST JUMPDEST PUSH1 0x0 PUSH2 0x189D DUP5 DUP3 DUP6 ADD PUSH2 0x1864 JUMP JUMPDEST SWAP2 POP POP SWAP3 SWAP2 POP POP JUMP JUMPDEST PUSH32 0x4E487B7100000000000000000000000000000000000000000000000000000000 PUSH1 0x0 MSTORE PUSH1 0x11 PUSH1 0x4 MSTORE PUSH1 0x24 PUSH1 0x0 REVERT JUMPDEST PUSH1 0x0 PUSH2 0x18E0 DUP3 PUSH2 0x14EC JUMP JUMPDEST SWAP2 POP PUSH2 0x18EB DUP4 PUSH2 0x14EC JUMP JUMPDEST SWAP3 POP DUP3 DUP3 ADD SWAP1 POP DUP1 DUP3 GT ISZERO PUSH2 0x1903 JUMPI PUSH2 0x1902 PUSH2 0x18A6 JUMP JUMPDEST JUMPDEST SWAP3 SWAP2 POP POP JUMP JUMPDEST PUSH1 0x0 PUSH1 0x40 DUP3 ADD SWAP1 POP PUSH2 0x191E PUSH1 0x0 DUP4 ADD DUP6 PUSH2 0x1621 JUMP JUMPDEST PUSH2 0x192B PUSH1 0x20 DUP4 ADD DUP5 PUSH2 0x1562 JUMP JUMPDEST SWAP4 SWAP3 POP POP POP JUMP JUMPDEST PUSH32 0x7761697420666F722049434F20746F206F70656E20666F7220696E766573746D PUSH1 0x0 DUP3 ADD MSTORE PUSH32 0x656E740000000000000000000000000000000000000000000000000000000000 PUSH1 0x20 DUP3 ADD MSTORE POP JUMP JUMPDEST PUSH1 0x0 PUSH2 0x198E PUSH1 0x23 DUP4 PUSH2 0x1799 JUMP JUMPDEST SWAP2 POP PUSH2 0x1999 DUP3 PUSH2 0x1932 JUMP JUMPDEST PUSH1 0x40 DUP3 ADD SWAP1 POP SWAP2 SWAP1 POP JUMP JUMPDEST PUSH1 0x0 PUSH1 0x20 DUP3 ADD SWAP1 POP DUP2 DUP2 SUB PUSH1 0x0 DUP4 ADD MSTORE PUSH2 0x19BD DUP2 PUSH2 0x1981 JUMP JUMPDEST SWAP1 POP SWAP2 SWAP1 POP JUMP JUMPDEST PUSH32 0x7761697420666F722049434F20746F20656E6420746F20636C61696D20797220 PUSH1 0x0 DUP3 ADD MSTORE PUSH32 0x746F6B656E730000000000000000000000000000000000000000000000000000 PUSH1 0x20 DUP3 ADD MSTORE POP JUMP JUMPDEST PUSH1 0x0 PUSH2 0x1A20 PUSH1 0x26 DUP4 PUSH2 0x1799 JUMP JUMPDEST SWAP2 POP PUSH2 0x1A2B DUP3 PUSH2 0x19C4 JUMP JUMPDEST PUSH1 0x40 DUP3 ADD SWAP1 POP SWAP2 SWAP1 POP JUMP JUMPDEST PUSH1 0x0 PUSH1 0x20 DUP3 ADD SWAP1 POP DUP2 DUP2 SUB PUSH1 0x0 DUP4 ADD MSTORE PUSH2 0x1A4F DUP2 PUSH2 0x1A13 JUMP JUMPDEST SWAP1 POP SWAP2 SWAP1 POP JUMP JUMPDEST PUSH1 0x0 PUSH2 0x1A61 DUP3 PUSH2 0x14EC JUMP JUMPDEST SWAP2 POP PUSH2 0x1A6C DUP4 PUSH2 0x14EC JUMP JUMPDEST SWAP3 POP DUP3 DUP3 SUB SWAP1 POP DUP2 DUP2 GT ISZERO PUSH2 0x1A84 JUMPI PUSH2 0x1A83 PUSH2 0x18A6 JUMP JUMPDEST JUMPDEST SWAP3 SWAP2 POP POP JUMP JUMPDEST PUSH32 0x706C65617365207761697420666F72206D696E696D756D203330207365630000 PUSH1 0x0 DUP3 ADD MSTORE POP JUMP JUMPDEST PUSH1 0x0 PUSH2 0x1AC0 PUSH1 0x1E DUP4 PUSH2 0x1799 JUMP JUMPDEST SWAP2 POP PUSH2 0x1ACB DUP3 PUSH2 0x1A8A JUMP JUMPDEST PUSH1 0x20 DUP3 ADD SWAP1 POP SWAP2 SWAP1 POP JUMP JUMPDEST PUSH1 0x0 PUSH1 0x20 DUP3 ADD SWAP1 POP DUP2 DUP2 SUB PUSH1 0x0 DUP4 ADD MSTORE PUSH2 0x1AEF DUP2 PUSH2 0x1AB3 JUMP JUMPDEST SWAP1 POP SWAP2 SWAP1 POP JUMP JUMPDEST PUSH32 0x796F75206861766520616C726561647920636C61696D656420616C6C20797220 PUSH1 0x0 DUP3 ADD MSTORE PUSH32 0x746F6B656E730000000000000000000000000000000000000000000000000000 PUSH1 0x20 DUP3 ADD MSTORE POP JUMP JUMPDEST PUSH1 0x0 PUSH2 0x1B52 PUSH1 0x26 DUP4 PUSH2 0x1799 JUMP JUMPDEST SWAP2 POP PUSH2 0x1B5D DUP3 PUSH2 0x1AF6 JUMP JUMPDEST PUSH1 0x40 DUP3 ADD SWAP1 POP SWAP2 SWAP1 POP JUMP JUMPDEST PUSH1 0x0 PUSH1 0x20 DUP3 ADD SWAP1 POP DUP2 DUP2 SUB PUSH1 0x0 DUP4 ADD MSTORE PUSH2 0x1B81 DUP2 PUSH2 0x1B45 JUMP JUMPDEST SWAP1 POP SWAP2 SWAP1 POP JUMP JUMPDEST PUSH32 0x63757272656E746C792069636F20697320636C6F736564000000000000000000 PUSH1 0x0 DUP3 ADD MSTORE POP JUMP JUMPDEST PUSH1 0x0 PUSH2 0x1BBE PUSH1 0x17 DUP4 PUSH2 0x1799 JUMP JUMPDEST SWAP2 POP PUSH2 0x1BC9 DUP3 PUSH2 0x1B88 JUMP JUMPDEST PUSH1 0x20 DUP3 ADD SWAP1 POP SWAP2 SWAP1 POP JUMP JUMPDEST PUSH1 0x0 PUSH1 0x20 DUP3 ADD SWAP1 POP DUP2 DUP2 SUB PUSH1 0x0 DUP4 ADD MSTORE PUSH2 0x1BED DUP2 PUSH2 0x1BB1 JUMP JUMPDEST SWAP1 POP SWAP2 SWAP1 POP JUMP JUMPDEST PUSH32 0x7761697420666F722069636F20746F206F70656E757000000000000000000000 PUSH1 0x0 DUP3 ADD MSTORE POP JUMP JUMPDEST PUSH1 0x0 PUSH2 0x1C2A PUSH1 0x16 DUP4 PUSH2 0x1799 JUMP JUMPDEST SWAP2 POP PUSH2 0x1C35 DUP3 PUSH2 0x1BF4 JUMP JUMPDEST PUSH1 0x20 DUP3 ADD SWAP1 POP SWAP2 SWAP1 POP JUMP JUMPDEST PUSH1 0x0 PUSH1 0x20 DUP3 ADD SWAP1 POP DUP2 DUP2 SUB PUSH1 0x0 DUP4 ADD MSTORE PUSH2 0x1C59 DUP2 PUSH2 0x1C1D JUMP JUMPDEST SWAP1 POP SWAP2 SWAP1 POP JUMP JUMPDEST PUSH1 0x0 PUSH2 0x1C6B DUP3 PUSH2 0x14EC JUMP JUMPDEST SWAP2 POP PUSH32 0xFFFFFFFFFFFFFFFFFFFFFFFFFFFFFFFFFFFFFFFFFFFFFFFFFFFFFFFFFFFFFFFF DUP3 SUB PUSH2 0x1C9D JUMPI PUSH2 0x1C9C PUSH2 0x18A6 JUMP JUMPDEST JUMPDEST PUSH1 0x1 DUP3 ADD SWAP1 POP SWAP2 SWAP1 POP JUMP JUMPDEST PUSH32 0x69636F206973206F766572000000000000000000000000000000000000000000 PUSH1 0x0 DUP3 ADD MSTORE POP JUMP JUMPDEST PUSH1 0x0 PUSH2 0x1CDE PUSH1 0xB DUP4 PUSH2 0x1799 JUMP JUMPDEST SWAP2 POP PUSH2 0x1CE9 DUP3 PUSH2 0x1CA8 JUMP JUMPDEST PUSH1 0x20 DUP3 ADD SWAP1 POP SWAP2 SWAP1 POP JUMP JUMPDEST PUSH1 0x0 PUSH1 0x20 DUP3 ADD SWAP1 POP DUP2 DUP2 SUB PUSH1 0x0 DUP4 ADD MSTORE PUSH2 0x1D0D DUP2 PUSH2 0x1CD1 JUMP JUMPDEST SWAP1 POP SWAP2 SWAP1 POP JUMP JUMPDEST PUSH1 0x0 PUSH2 0x1D1F DUP3 PUSH2 0x14EC JUMP JUMPDEST SWAP2 POP PUSH2 0x1D2A DUP4 PUSH2 0x14EC JUMP JUMPDEST SWAP3 POP DUP3 DUP3 MUL PUSH2 0x1D38 DUP2 PUSH2 0x14EC JUMP JUMPDEST SWAP2 POP DUP3 DUP3 DIV DUP5 EQ DUP4 ISZERO OR PUSH2 0x1D4F JUMPI PUSH2 0x1D4E PUSH2 0x18A6 JUMP JUMPDEST JUMPDEST POP SWAP3 SWAP2 POP POP JUMP JUMPDEST PUSH32 0x4E487B7100000000000000000000000000000000000000000000000000000000 PUSH1 0x0 MSTORE PUSH1 0x12 PUSH1 0x4 MSTORE PUSH1 0x24 PUSH1 0x0 REVERT JUMPDEST PUSH1 0x0 PUSH2 0x1D90 DUP3 PUSH2 0x14EC JUMP JUMPDEST SWAP2 POP PUSH2 0x1D9B DUP4 PUSH2 0x14EC JUMP JUMPDEST SWAP3 POP DUP3 PUSH2 0x1DAB JUMPI PUSH2 0x1DAA PUSH2 0x1D56 JUMP JUMPDEST JUMPDEST DUP3 DUP3 DIV SWAP1 POP SWAP3 SWAP2 POP POP JUMP JUMPDEST PUSH32 0x4F776E61626C653A206E6577206F776E657220697320746865207A65726F2061 PUSH1 0x0 DUP3 ADD MSTORE PUSH32 0x6464726573730000000000000000000000000000000000000000000000000000 PUSH1 0x20 DUP3 ADD MSTORE POP JUMP JUMPDEST PUSH1 0x0 PUSH2 0x1E12 PUSH1 0x26 DUP4 PUSH2 0x1799 JUMP JUMPDEST SWAP2 POP PUSH2 0x1E1D DUP3 PUSH2 0x1DB6 JUMP JUMPDEST PUSH1 0x40 DUP3 ADD SWAP1 POP SWAP2 SWAP1 POP JUMP JUMPDEST PUSH1 0x0 PUSH1 0x20 DUP3 ADD SWAP1 POP DUP2 DUP2 SUB PUSH1 0x0 DUP4 ADD MSTORE PUSH2 0x1E41 DUP2 PUSH2 0x1E05 JUMP JUMPDEST SWAP1 POP SWAP2 SWAP1 POP JUMP JUMPDEST PUSH32 0x4F776E61626C653A2063616C6C6572206973206E6F7420746865206F776E6572 PUSH1 0x0 DUP3 ADD MSTORE POP JUMP JUMPDEST PUSH1 0x0 PUSH2 0x1E7E PUSH1 0x20 DUP4 PUSH2 0x1799 JUMP JUMPDEST SWAP2 POP PUSH2 0x1E89 DUP3 PUSH2 0x1E48 JUMP JUMPDEST PUSH1 0x20 DUP3 ADD SWAP1 POP SWAP2 SWAP1 POP JUMP JUMPDEST PUSH1 0x0 PUSH1 0x20 DUP3 ADD SWAP1 POP DUP2 DUP2 SUB PUSH1 0x0 DUP4 ADD MSTORE PUSH2 0x1EAD DUP2 PUSH2 0x1E71 JUMP JUMPDEST SWAP1 POP SWAP2 SWAP1 POP JUMP JUMPDEST PUSH1 0x0 DUP2 MLOAD SWAP1 POP SWAP2 SWAP1 POP JUMP JUMPDEST PUSH1 0x0 JUMPDEST DUP4 DUP2 LT ISZERO PUSH2 0x1EDD JUMPI DUP1 DUP3 ADD MLOAD DUP2 DUP5 ADD MSTORE PUSH1 0x20 DUP2 ADD SWAP1 POP PUSH2 0x1EC2 JUMP JUMPDEST PUSH1 0x0 DUP5 DUP5 ADD MSTORE POP POP POP POP JUMP JUMPDEST PUSH1 0x0 PUSH1 0x1F NOT PUSH1 0x1F DUP4 ADD AND SWAP1 POP SWAP2 SWAP1 POP JUMP JUMPDEST PUSH1 0x0 PUSH2 0x1F05 DUP3 PUSH2 0x1EB4 JUMP JUMPDEST PUSH2 0x1F0F DUP2 DUP6 PUSH2 0x1799 JUMP JUMPDEST SWAP4 POP PUSH2 0x1F1F DUP2 DUP6 PUSH1 0x20 DUP7 ADD PUSH2 0x1EBF JUMP JUMPDEST PUSH2 0x1F28 DUP2 PUSH2 0x1EE9 JUMP JUMPDEST DUP5 ADD SWAP2 POP POP SWAP3 SWAP2 POP POP JUMP JUMPDEST PUSH1 0x0 PUSH1 0x40 DUP3 ADD SWAP1 POP DUP2 DUP2 SUB PUSH1 0x0 DUP4 ADD MSTORE PUSH2 0x1F4D DUP2 DUP6 PUSH2 0x1EFA JUMP JUMPDEST SWAP1 POP PUSH2 0x1F5C PUSH1 0x20 DUP4 ADD DUP5 PUSH2 0x1562 JUMP JUMPDEST SWAP4 SWAP3 POP POP POP JUMP JUMPDEST PUSH32 0x4E487B7100000000000000000000000000000000000000000000000000000000 PUSH1 0x0 MSTORE PUSH1 0x51 PUSH1 0x4 MSTORE PUSH1 0x24 PUSH1 0x0 REVERT INVALID LOG2 PUSH5 0x6970667358 0x22 SLT KECCAK256 0xEB 0xEC 0xB5 0xCF SWAP11 SLT SHR 0xB6 PUSH30 0x2AAF20A019B72A35C41000A43D70FA489FD2A32598FE6064736F6C634300 ADDMOD SGT STOP CALLER "},"methodIdentifiers":{"_maxPhase()":"e9e21000","buytokens(uint256)":"5ed1ca85","claimTokens()":"48c54b9d","convertToAmount(uint256,uint256)":"7b80d25e","covertToTokens(uint256,uint256)":"6b89c2c9","currPhase()":"3cc89380","estimateTokens(uint256)":"ea6be96f","getCurrtime()":"d93a4e89","myPhases(uint256)":"c729029d","owner()":"8da5cb5b","pause()":"8456cb59","pause_unpause()":"9d325ce8","renounceOwnership()":"715018a6","transfer(uint256,uint256)":"0cf79e0a","transferOwnership(address)":"f2fde38b","userTokens(address)":"ed498fa8"}}}}}