{"contracts/ico.sol":{"ICO":{"abi":[{"inputs":[{"internalType":"uint256","name":"icoOpeningtime","type":"uint256"},{"internalType":"address","name":"tokenAddress","type":"address"},{"internalType":"address","name":"usdtadd","type":"address"}],"stateMutability":"nonpayable","type":"constructor"},{"anonymous":false,"inputs":[{"indexed":false,"internalType":"address","name":"buyer","type":"address"},{"indexed":false,"internalType":"uint256","name":"noOfTokens","type":"uint256"}],"name":"IcoTokenpurchased","type":"event"},{"anonymous":false,"inputs":[{"indexed":true,"internalType":"address","name":"previousOwner","type":"address"},{"indexed":true,"internalType":"address","name":"newOwner","type":"address"}],"name":"OwnershipTransferred","type":"event"},{"inputs":[],"name":"_maxPhase","outputs":[{"internalType":"uint256","name":"","type":"uint256"}],"stateMutability":"view","type":"function"},{"inputs":[{"internalType":"uint256","name":"amount","type":"uint256"}],"name":"buytokens","outputs":[],"stateMutability":"nonpayable","type":"function"},{"inputs":[{"internalType":"uint256","name":"rate","type":"uint256"},{"internalType":"uint256","name":"phaseNo","type":"uint256"}],"name":"convertToAmount","outputs":[{"internalType":"uint256","name":"","type":"uint256"}],"stateMutability":"view","type":"function"},{"inputs":[{"internalType":"uint256","name":"amount","type":"uint256"},{"internalType":"uint256","name":"rate","type":"uint256"}],"name":"covertToTokens","outputs":[{"internalType":"uint256","name":"","type":"uint256"}],"stateMutability":"pure","type":"function"},{"inputs":[],"name":"currPhase","outputs":[{"internalType":"uint256","name":"","type":"uint256"}],"stateMutability":"view","type":"function"},{"inputs":[{"internalType":"uint256","name":"amount","type":"uint256"}],"name":"estimateTokens","outputs":[{"internalType":"uint256","name":"","type":"uint256"}],"stateMutability":"view","type":"function"},{"inputs":[],"name":"getCurrtime","outputs":[{"internalType":"uint256","name":"","type":"uint256"}],"stateMutability":"view","type":"function"},{"inputs":[{"internalType":"uint256","name":"","type":"uint256"}],"name":"myPhases","outputs":[{"internalType":"uint256","name":"rate","type":"uint256"},{"internalType":"uint256","name":"limit","type":"uint256"},{"internalType":"uint256","name":"openingTime","type":"uint256"},{"internalType":"uint256","name":"closingTime","type":"uint256"},{"internalType":"uint256","name":"remainingTokens","type":"uint256"}],"stateMutability":"view","type":"function"},{"inputs":[],"name":"owner","outputs":[{"internalType":"address","name":"","type":"address"}],"stateMutability":"view","type":"function"},{"inputs":[],"name":"pause","outputs":[{"internalType":"bool","name":"","type":"bool"}],"stateMutability":"view","type":"function"},{"inputs":[],"name":"pause_unpause","outputs":[],"stateMutability":"nonpayable","type":"function"},{"inputs":[],"name":"renounceOwnership","outputs":[],"stateMutability":"nonpayable","type":"function"},{"inputs":[{"internalType":"uint256","name":"tks","type":"uint256"},{"internalType":"uint256","name":"amount","type":"uint256"}],"name":"transfer","outputs":[],"stateMutability":"nonpayable","type":"function"},{"inputs":[{"internalType":"address","name":"newOwner","type":"address"}],"name":"transferOwnership","outputs":[],"stateMutability":"nonpayable","type":"function"}],"evm":{"bytecode":{"linkReferences":{},"object":"6080604052600180556003600255734b531a318b0e44b549f3b2f824721b3d0d51930a600360006101000a81548173ffffffffffffffffffffffffffffffffffffffff021916908373ffffffffffffffffffffffffffffffffffffffff1602179055503480156200006f57600080fd5b5060405162001e9f38038062001e9f833981810160405281019062000095919062000496565b620000b5620000a96200032560201b60201c565b6200032d60201b60201c565b6040518060a001604052806001815260200160c8815260200184815260200161019085620000e4919062000521565b815260200160c8815250600460006001815260200190815260200160002060008201518160000155602082015181600101556040820151816002015560608201518160030155608082015181600401559050506040518060a001604052806002815260200161012c8152602001600460006001815260200190815260200160002060030154815260200161019060046000600181526020019081526020016000206003015462000195919062000521565b815260200160c8815250600460006002815260200190815260200160002060008201518160000155602082015181600101556040820151816002015560608201518160030155608082015181600401559050506040518060a00160405280600381526020016101908152602001600460006002815260200190815260200160002060030154815260200161019060046000600281526020019081526020016000206003015462000246919062000521565b81526020016101908152506004600060038152602001908152602001600020600082015181600001556020820151816001015560408201518160020155606082015181600301556080820151816004015590505081600560006101000a81548173ffffffffffffffffffffffffffffffffffffffff021916908373ffffffffffffffffffffffffffffffffffffffff16021790555080600660006101000a81548173ffffffffffffffffffffffffffffffffffffffff021916908373ffffffffffffffffffffffffffffffffffffffff1602179055505050506200055c565b600033905090565b60008060009054906101000a900473ffffffffffffffffffffffffffffffffffffffff169050816000806101000a81548173ffffffffffffffffffffffffffffffffffffffff021916908373ffffffffffffffffffffffffffffffffffffffff1602179055508173ffffffffffffffffffffffffffffffffffffffff168173ffffffffffffffffffffffffffffffffffffffff167f8be0079c531659141344cd1fd0a4f28419497f9722a3daafe3b4186f6b6457e060405160405180910390a35050565b600080fd5b6000819050919050565b6200040b81620003f6565b81146200041757600080fd5b50565b6000815190506200042b8162000400565b92915050565b600073ffffffffffffffffffffffffffffffffffffffff82169050919050565b60006200045e8262000431565b9050919050565b620004708162000451565b81146200047c57600080fd5b50565b600081519050620004908162000465565b92915050565b600080600060608486031215620004b257620004b1620003f1565b5b6000620004c2868287016200041a565b9350506020620004d5868287016200047f565b9250506040620004e8868287016200047f565b9150509250925092565b7f4e487b7100000000000000000000000000000000000000000000000000000000600052601160045260246000fd5b60006200052e82620003f6565b91506200053b83620003f6565b9250828201905080821115620005565762000555620004f2565b5b92915050565b611933806200056c6000396000f3fe608060405234801561001057600080fd5b50600436106100ea5760003560e01c80638da5cb5b1161008c578063d93a4e8911610066578063d93a4e8914610229578063e9e2100014610247578063ea6be96f14610265578063f2fde38b14610295576100ea565b80638da5cb5b146101cd5780639d325ce8146101eb578063c729029d146101f5576100ea565b80636b89c2c9116100c85780636b89c2c914610145578063715018a6146101755780637b80d25e1461017f5780638456cb59146101af576100ea565b80630cf79e0a146100ef5780633cc893801461010b5780635ed1ca8514610129575b600080fd5b610109600480360381019061010491906110af565b6102b1565b005b610113610513565b60405161012091906110fe565b60405180910390f35b610143600480360381019061013e9190611119565b610519565b005b61015f600480360381019061015a91906110af565b6106f7565b60405161016c91906110fe565b60405180910390f35b61017d610736565b005b610199600480360381019061019491906110af565b61074a565b6040516101a691906110fe565b60405180910390f35b6101b761079f565b6040516101c49190611161565b60405180910390f35b6101d56107b2565b6040516101e291906111bd565b60405180910390f35b6101f36107db565b005b61020f600480360381019061020a9190611119565b61080f565b6040516102209594939291906111d8565b60405180910390f35b610231610845565b60405161023e91906110fe565b60405180910390f35b61024f61084d565b60405161025c91906110fe565b60405180910390f35b61027f600480360381019061027a9190611119565b610853565b60405161028c91906110fe565b60405180910390f35b6102af60048036038101906102aa9190611257565b6108c2565b005b80600660009054906101000a900473ffffffffffffffffffffffffffffffffffffffff1673ffffffffffffffffffffffffffffffffffffffff1663dd62ed3e33306040518363ffffffff1660e01b815260040161030f929190611284565b6020604051808303816000875af115801561032e573d6000803e3d6000fd5b505050506040513d601f19601f8201168201806040525081019061035291906112c2565b1015610393576040517f08c379a000000000000000000000000000000000000000000000000000000000815260040161038a9061134c565b60405180910390fd5b600660009054906101000a900473ffffffffffffffffffffffffffffffffffffffff1673ffffffffffffffffffffffffffffffffffffffff166323b872dd3330846040518463ffffffff1660e01b81526004016103f29392919061136c565b6020604051808303816000875af1158015610411573d6000803e3d6000fd5b505050506040513d601f19601f8201168201806040525081019061043591906113cf565b50600560009054906101000a900473ffffffffffffffffffffffffffffffffffffffff1673ffffffffffffffffffffffffffffffffffffffff1663a9059cbb33846040518363ffffffff1660e01b81526004016104939291906113fc565b6020604051808303816000875af11580156104b2573d6000803e3d6000fd5b505050506040513d601f19601f820116820180604052508101906104d691906113cf565b507ecf51cab78618603b70ba6d83208cb163cfaa39d041d7fb33afc5e49970bada33836040516105079291906113fc565b60405180910390a15050565b60015481565b6000429050600060149054906101000a900460ff161561056e576040517f08c379a000000000000000000000000000000000000000000000000000000000815260040161056590611471565b60405180910390fd5b6004600060018152602001908152602001600020600201548110156105c8576040517f08c379a00000000000000000000000000000000000000000000000000000000081526004016105bf906114dd565b60405180910390fd5b60046000600154815260200190815260200160002060030154811061065457600160008154809291906105fa9061152c565b91905055506002546001541115610646576040517f08c379a000000000000000000000000000000000000000000000000000000000815260040161063d906115c0565b60405180910390fd5b61064f82610519565b6106f3565b600254600154116106b757610667610945565b600080600061067860015486610a18565b80935081945082955050505061068f838383610c5e565b61069a828483610cfd565b6106af8382876106aa91906115e0565b6102b1565b5050506106f2565b6040517f08c379a00000000000000000000000000000000000000000000000000000000081526004016106e9906115c0565b60405180910390fd5b5b5050565b600080633b9aca00905060006305f5e100846107139190611614565b858361071f9190611614565b6107299190611685565b9050809250505092915050565b61073e610e24565b6107486000610ea2565b565b600080633b9aca0090506000816305f5e10086600460008881526020019081526020016000206004015461077e9190611614565b6107889190611614565b6107929190611685565b9050809250505092915050565b600060149054906101000a900460ff1681565b60008060009054906101000a900473ffffffffffffffffffffffffffffffffffffffff16905090565b6107e3610e24565b600060149054906101000a900460ff1615600060146101000a81548160ff021916908315150217905550565b60046020528060005260406000206000915090508060000154908060010154908060020154908060030154908060040154905085565b600042905090565b60025481565b600080600060149054906101000a900460ff16156108a6576040517f08c379a000000000000000000000000000000000000000000000000000000000815260040161089d90611471565b60405180910390fd5b6108b260015484610a18565b9050508091505080915050919050565b6108ca610e24565b600073ffffffffffffffffffffffffffffffffffffffff168173ffffffffffffffffffffffffffffffffffffffff1603610939576040517f08c379a000000000000000000000000000000000000000000000000000000000815260040161093090611728565b60405180910390fd5b61094281610ea2565b50565b600180541415801561097a57506000600460006001805461096691906115e0565b815260200190815260200160002060040154115b15610a1657600080600190505b6001548110156109e4576004600082815260200190815260200160002060040154826109b39190611748565b91506000600460008381526020019081526020016000206004018190555080806109dc9061152c565b915050610987565b50806004600060015481526020019081526020016000206004016000828254610a0d9190611748565b92505081905550505b565b6000806000600254851115610a62576040517f08c379a0000000000000000000000000000000000000000000000000000000008152600401610a59906115c0565b60405180910390fd5b60046000868152602001908152602001600020600301544210610a9d57610a95600186610a8f9190611748565b85610a18565b505050610c4b565b6000806000806000600460008b81526020019081526020016000206040518060a00160405290816000820154815260200160018201548152602001600282015481526020016003820154815260200160048201548152505090506000610b078a83600001516106f7565b90508160800151811015610b2a57808b6000985098509850505050505050610c57565b81608001518103610b4a57808b6000985098509850505050505050610c57565b8160800151811115610c445781608001519450610b9c6040518060400160405280600b81526020017f746f74616c746f6b656e7300000000000000000000000000000000000000000081525082610f66565b6000610bac83600001518d61074a565b90506002548c1015610c1857610bd960018d610bc89190611748565b828d610bd491906115e0565b610a18565b8096508197508299505050508686610bf19190611748565b610bfb8d87611002565b610c06600087611002565b99509950995050505050505050610c57565b6002548c03610c4257856003828d610c3091906115e0565b99509950995050505050505050610c57565b505b5050505050505b60008060009250925092505b9250925092565b610cf8838383604051602401610c769392919061177c565b6040516020818303038152906040527fd1ed7a3c000000000000000000000000000000000000000000000000000000007bffffffffffffffffffffffffffffffffffffffffffffffffffffffff19166020820180517bffffffffffffffffffffffffffffffffffffffffffffffffffffffff838183161783525050505061101c565b505050565b6001548303610d3a57816004600060015481526020019081526020016000206004016000828254610d2e91906115e0565b92505081905550610df4565b60008060015490505b84811015610db957600460008281526020019081526020016000206004015482610d6d9190611748565b9150600060046000838152602001908152602001600020600401819055504260046000838152602001908152602001600020600301819055508080610db19061152c565b915050610d43565b508083610dc691906115e0565b600460008681526020019081526020016000206004016000828254610deb91906115e0565b92505081905550505b6000811115610e17576001600254610e0c9190611748565b600181905550610e1f565b826001819055505b505050565b610e2c611036565b73ffffffffffffffffffffffffffffffffffffffff16610e4a6107b2565b73ffffffffffffffffffffffffffffffffffffffff1614610ea0576040517f08c379a0000000000000000000000000000000000000000000000000000000008152600401610e97906117ff565b60405180910390fd5b565b60008060009054906101000a900473ffffffffffffffffffffffffffffffffffffffff169050816000806101000a81548173ffffffffffffffffffffffffffffffffffffffff021916908373ffffffffffffffffffffffffffffffffffffffff1602179055508173ffffffffffffffffffffffffffffffffffffffff168173ffffffffffffffffffffffffffffffffffffffff167f8be0079c531659141344cd1fd0a4f28419497f9722a3daafe3b4186f6b6457e060405160405180910390a35050565b610ffe8282604051602401610f7c92919061189e565b6040516020818303038152906040527fb60e72cc000000000000000000000000000000000000000000000000000000007bffffffffffffffffffffffffffffffffffffffffffffffffffffffff19166020820180517bffffffffffffffffffffffffffffffffffffffffffffffffffffffff838183161783525050505061101c565b5050565b6000818310156110125781611014565b825b905092915050565b6110338161102b61103e61105f565b63ffffffff16565b50565b600033905090565b60006a636f6e736f6c652e6c6f679050600080835160208501845afa505050565b61106a819050919050565b6110726118ce565b565b600080fd5b6000819050919050565b61108c81611079565b811461109757600080fd5b50565b6000813590506110a981611083565b92915050565b600080604083850312156110c6576110c5611074565b5b60006110d48582860161109a565b92505060206110e58582860161109a565b9150509250929050565b6110f881611079565b82525050565b600060208201905061111360008301846110ef565b92915050565b60006020828403121561112f5761112e611074565b5b600061113d8482850161109a565b91505092915050565b60008115159050919050565b61115b81611146565b82525050565b60006020820190506111766000830184611152565b92915050565b600073ffffffffffffffffffffffffffffffffffffffff82169050919050565b60006111a78261117c565b9050919050565b6111b78161119c565b82525050565b60006020820190506111d260008301846111ae565b92915050565b600060a0820190506111ed60008301886110ef565b6111fa60208301876110ef565b61120760408301866110ef565b61121460608301856110ef565b61122160808301846110ef565b9695505050505050565b6112348161119c565b811461123f57600080fd5b50565b6000813590506112518161122b565b92915050565b60006020828403121561126d5761126c611074565b5b600061127b84828501611242565b91505092915050565b600060408201905061129960008301856111ae565b6112a660208301846111ae565b9392505050565b6000815190506112bc81611083565b92915050565b6000602082840312156112d8576112d7611074565b5b60006112e6848285016112ad565b91505092915050565b600082825260208201905092915050565b7f706c6561736520696e63726561736520616c6c6f77616e636500000000000000600082015250565b60006113366019836112ef565b915061134182611300565b602082019050919050565b6000602082019050818103600083015261136581611329565b9050919050565b600060608201905061138160008301866111ae565b61138e60208301856111ae565b61139b60408301846110ef565b949350505050565b6113ac81611146565b81146113b757600080fd5b50565b6000815190506113c9816113a3565b92915050565b6000602082840312156113e5576113e4611074565b5b60006113f3848285016113ba565b91505092915050565b600060408201905061141160008301856111ae565b61141e60208301846110ef565b9392505050565b7f63757272656e746c792069636f20697320636c6f736564000000000000000000600082015250565b600061145b6017836112ef565b915061146682611425565b602082019050919050565b6000602082019050818103600083015261148a8161144e565b9050919050565b7f7761697420666f722069636f20746f206f70656e757000000000000000000000600082015250565b60006114c76016836112ef565b91506114d282611491565b602082019050919050565b600060208201905081810360008301526114f6816114ba565b9050919050565b7f4e487b7100000000000000000000000000000000000000000000000000000000600052601160045260246000fd5b600061153782611079565b91507fffffffffffffffffffffffffffffffffffffffffffffffffffffffffffffffff8203611569576115686114fd565b5b600182019050919050565b7f69636f206973206f766572000000000000000000000000000000000000000000600082015250565b60006115aa600b836112ef565b91506115b582611574565b602082019050919050565b600060208201905081810360008301526115d98161159d565b9050919050565b60006115eb82611079565b91506115f683611079565b925082820390508181111561160e5761160d6114fd565b5b92915050565b600061161f82611079565b915061162a83611079565b925082820261163881611079565b9150828204841483151761164f5761164e6114fd565b5b5092915050565b7f4e487b7100000000000000000000000000000000000000000000000000000000600052601260045260246000fd5b600061169082611079565b915061169b83611079565b9250826116ab576116aa611656565b5b828204905092915050565b7f4f776e61626c653a206e6577206f776e657220697320746865207a65726f206160008201527f6464726573730000000000000000000000000000000000000000000000000000602082015250565b60006117126026836112ef565b915061171d826116b6565b604082019050919050565b6000602082019050818103600083015261174181611705565b9050919050565b600061175382611079565b915061175e83611079565b9250828201905080821115611776576117756114fd565b5b92915050565b600060608201905061179160008301866110ef565b61179e60208301856110ef565b6117ab60408301846110ef565b949350505050565b7f4f776e61626c653a2063616c6c6572206973206e6f7420746865206f776e6572600082015250565b60006117e96020836112ef565b91506117f4826117b3565b602082019050919050565b60006020820190508181036000830152611818816117dc565b9050919050565b600081519050919050565b60005b8381101561184857808201518184015260208101905061182d565b60008484015250505050565b6000601f19601f8301169050919050565b60006118708261181f565b61187a81856112ef565b935061188a81856020860161182a565b61189381611854565b840191505092915050565b600060408201905081810360008301526118b88185611865565b90506118c760208301846110ef565b9392505050565b7f4e487b7100000000000000000000000000000000000000000000000000000000600052605160045260246000fdfea26469706673582212205b649e00813f33d1898b67b3231450189b7221fbddafd17014a8c1dc6cf5102c64736f6c63430008130033","opcodes":"PUSH1 0x80 PUSH1 0x40 MSTORE PUSH1 0x1 DUP1 SSTORE PUSH1 0x3 PUSH1 0x2 SSTORE PUSH20 0x4B531A318B0E44B549F3B2F824721B3D0D51930A PUSH1 0x3 PUSH1 0x0 PUSH2 0x100 EXP DUP2 SLOAD DUP2 PUSH20 0xFFFFFFFFFFFFFFFFFFFFFFFFFFFFFFFFFFFFFFFF MUL NOT AND SWAP1 DUP4 PUSH20 0xFFFFFFFFFFFFFFFFFFFFFFFFFFFFFFFFFFFFFFFF AND MUL OR SWAP1 SSTORE POP CALLVALUE DUP1 ISZERO PUSH3 0x6F JUMPI PUSH1 0x0 DUP1 REVERT JUMPDEST POP PUSH1 0x40 MLOAD PUSH3 0x1E9F CODESIZE SUB DUP1 PUSH3 0x1E9F DUP4 CODECOPY DUP2 DUP2 ADD PUSH1 0x40 MSTORE DUP2 ADD SWAP1 PUSH3 0x95 SWAP2 SWAP1 PUSH3 0x496 JUMP JUMPDEST PUSH3 0xB5 PUSH3 0xA9 PUSH3 0x325 PUSH1 0x20 SHL PUSH1 0x20 SHR JUMP JUMPDEST PUSH3 0x32D PUSH1 0x20 SHL PUSH1 0x20 SHR JUMP JUMPDEST PUSH1 0x40 MLOAD DUP1 PUSH1 0xA0 ADD PUSH1 0x40 MSTORE DUP1 PUSH1 0x1 DUP2 MSTORE PUSH1 0x20 ADD PUSH1 0xC8 DUP2 MSTORE PUSH1 0x20 ADD DUP5 DUP2 MSTORE PUSH1 0x20 ADD PUSH2 0x190 DUP6 PUSH3 0xE4 SWAP2 SWAP1 PUSH3 0x521 JUMP JUMPDEST DUP2 MSTORE PUSH1 0x20 ADD PUSH1 0xC8 DUP2 MSTORE POP PUSH1 0x4 PUSH1 0x0 PUSH1 0x1 DUP2 MSTORE PUSH1 0x20 ADD SWAP1 DUP2 MSTORE PUSH1 0x20 ADD PUSH1 0x0 KECCAK256 PUSH1 0x0 DUP3 ADD MLOAD DUP2 PUSH1 0x0 ADD SSTORE PUSH1 0x20 DUP3 ADD MLOAD DUP2 PUSH1 0x1 ADD SSTORE PUSH1 0x40 DUP3 ADD MLOAD DUP2 PUSH1 0x2 ADD SSTORE PUSH1 0x60 DUP3 ADD MLOAD DUP2 PUSH1 0x3 ADD SSTORE PUSH1 0x80 DUP3 ADD MLOAD DUP2 PUSH1 0x4 ADD SSTORE SWAP1 POP POP PUSH1 0x40 MLOAD DUP1 PUSH1 0xA0 ADD PUSH1 0x40 MSTORE DUP1 PUSH1 0x2 DUP2 MSTORE PUSH1 0x20 ADD PUSH2 0x12C DUP2 MSTORE PUSH1 0x20 ADD PUSH1 0x4 PUSH1 0x0 PUSH1 0x1 DUP2 MSTORE PUSH1 0x20 ADD SWAP1 DUP2 MSTORE PUSH1 0x20 ADD PUSH1 0x0 KECCAK256 PUSH1 0x3 ADD SLOAD DUP2 MSTORE PUSH1 0x20 ADD PUSH2 0x190 PUSH1 0x4 PUSH1 0x0 PUSH1 0x1 DUP2 MSTORE PUSH1 0x20 ADD SWAP1 DUP2 MSTORE PUSH1 0x20 ADD PUSH1 0x0 KECCAK256 PUSH1 0x3 ADD SLOAD PUSH3 0x195 SWAP2 SWAP1 PUSH3 0x521 JUMP JUMPDEST DUP2 MSTORE PUSH1 0x20 ADD PUSH1 0xC8 DUP2 MSTORE POP PUSH1 0x4 PUSH1 0x0 PUSH1 0x2 DUP2 MSTORE PUSH1 0x20 ADD SWAP1 DUP2 MSTORE PUSH1 0x20 ADD PUSH1 0x0 KECCAK256 PUSH1 0x0 DUP3 ADD MLOAD DUP2 PUSH1 0x0 ADD SSTORE PUSH1 0x20 DUP3 ADD MLOAD DUP2 PUSH1 0x1 ADD SSTORE PUSH1 0x40 DUP3 ADD MLOAD DUP2 PUSH1 0x2 ADD SSTORE PUSH1 0x60 DUP3 ADD MLOAD DUP2 PUSH1 0x3 ADD SSTORE PUSH1 0x80 DUP3 ADD MLOAD DUP2 PUSH1 0x4 ADD SSTORE SWAP1 POP POP PUSH1 0x40 MLOAD DUP1 PUSH1 0xA0 ADD PUSH1 0x40 MSTORE DUP1 PUSH1 0x3 DUP2 MSTORE PUSH1 0x20 ADD PUSH2 0x190 DUP2 MSTORE PUSH1 0x20 ADD PUSH1 0x4 PUSH1 0x0 PUSH1 0x2 DUP2 MSTORE PUSH1 0x20 ADD SWAP1 DUP2 MSTORE PUSH1 0x20 ADD PUSH1 0x0 KECCAK256 PUSH1 0x3 ADD SLOAD DUP2 MSTORE PUSH1 0x20 ADD PUSH2 0x190 PUSH1 0x4 PUSH1 0x0 PUSH1 0x2 DUP2 MSTORE PUSH1 0x20 ADD SWAP1 DUP2 MSTORE PUSH1 0x20 ADD PUSH1 0x0 KECCAK256 PUSH1 0x3 ADD SLOAD PUSH3 0x246 SWAP2 SWAP1 PUSH3 0x521 JUMP JUMPDEST DUP2 MSTORE PUSH1 0x20 ADD PUSH2 0x190 DUP2 MSTORE POP PUSH1 0x4 PUSH1 0x0 PUSH1 0x3 DUP2 MSTORE PUSH1 0x20 ADD SWAP1 DUP2 MSTORE PUSH1 0x20 ADD PUSH1 0x0 KECCAK256 PUSH1 0x0 DUP3 ADD MLOAD DUP2 PUSH1 0x0 ADD SSTORE PUSH1 0x20 DUP3 ADD MLOAD DUP2 PUSH1 0x1 ADD SSTORE PUSH1 0x40 DUP3 ADD MLOAD DUP2 PUSH1 0x2 ADD SSTORE PUSH1 0x60 DUP3 ADD MLOAD DUP2 PUSH1 0x3 ADD SSTORE PUSH1 0x80 DUP3 ADD MLOAD DUP2 PUSH1 0x4 ADD SSTORE SWAP1 POP POP DUP2 PUSH1 0x5 PUSH1 0x0 PUSH2 0x100 EXP DUP2 SLOAD DUP2 PUSH20 0xFFFFFFFFFFFFFFFFFFFFFFFFFFFFFFFFFFFFFFFF MUL NOT AND SWAP1 DUP4 PUSH20 0xFFFFFFFFFFFFFFFFFFFFFFFFFFFFFFFFFFFFFFFF AND MUL OR SWAP1 SSTORE POP DUP1 PUSH1 0x6 PUSH1 0x0 PUSH2 0x100 EXP DUP2 SLOAD DUP2 PUSH20 0xFFFFFFFFFFFFFFFFFFFFFFFFFFFFFFFFFFFFFFFF MUL NOT AND SWAP1 DUP4 PUSH20 0xFFFFFFFFFFFFFFFFFFFFFFFFFFFFFFFFFFFFFFFF AND MUL OR SWAP1 SSTORE POP POP POP POP PUSH3 0x55C JUMP JUMPDEST PUSH1 0x0 CALLER SWAP1 POP SWAP1 JUMP JUMPDEST PUSH1 0x0 DUP1 PUSH1 0x0 SWAP1 SLOAD SWAP1 PUSH2 0x100 EXP SWAP1 DIV PUSH20 0xFFFFFFFFFFFFFFFFFFFFFFFFFFFFFFFFFFFFFFFF AND SWAP1 POP DUP2 PUSH1 0x0 DUP1 PUSH2 0x100 EXP DUP2 SLOAD DUP2 PUSH20 0xFFFFFFFFFFFFFFFFFFFFFFFFFFFFFFFFFFFFFFFF MUL NOT AND SWAP1 DUP4 PUSH20 0xFFFFFFFFFFFFFFFFFFFFFFFFFFFFFFFFFFFFFFFF AND MUL OR SWAP1 SSTORE POP DUP2 PUSH20 0xFFFFFFFFFFFFFFFFFFFFFFFFFFFFFFFFFFFFFFFF AND DUP2 PUSH20 0xFFFFFFFFFFFFFFFFFFFFFFFFFFFFFFFFFFFFFFFF AND PUSH32 0x8BE0079C531659141344CD1FD0A4F28419497F9722A3DAAFE3B4186F6B6457E0 PUSH1 0x40 MLOAD PUSH1 0x40 MLOAD DUP1 SWAP2 SUB SWAP1 LOG3 POP POP JUMP JUMPDEST PUSH1 0x0 DUP1 REVERT JUMPDEST PUSH1 0x0 DUP2 SWAP1 POP SWAP2 SWAP1 POP JUMP JUMPDEST PUSH3 0x40B DUP2 PUSH3 0x3F6 JUMP JUMPDEST DUP2 EQ PUSH3 0x417 JUMPI PUSH1 0x0 DUP1 REVERT JUMPDEST POP JUMP JUMPDEST PUSH1 0x0 DUP2 MLOAD SWAP1 POP PUSH3 0x42B DUP2 PUSH3 0x400 JUMP JUMPDEST SWAP3 SWAP2 POP POP JUMP JUMPDEST PUSH1 0x0 PUSH20 0xFFFFFFFFFFFFFFFFFFFFFFFFFFFFFFFFFFFFFFFF DUP3 AND SWAP1 POP SWAP2 SWAP1 POP JUMP JUMPDEST PUSH1 0x0 PUSH3 0x45E DUP3 PUSH3 0x431 JUMP JUMPDEST SWAP1 POP SWAP2 SWAP1 POP JUMP JUMPDEST PUSH3 0x470 DUP2 PUSH3 0x451 JUMP JUMPDEST DUP2 EQ PUSH3 0x47C JUMPI PUSH1 0x0 DUP1 REVERT JUMPDEST POP JUMP JUMPDEST PUSH1 0x0 DUP2 MLOAD SWAP1 POP PUSH3 0x490 DUP2 PUSH3 0x465 JUMP JUMPDEST SWAP3 SWAP2 POP POP JUMP JUMPDEST PUSH1 0x0 DUP1 PUSH1 0x0 PUSH1 0x60 DUP5 DUP7 SUB SLT ISZERO PUSH3 0x4B2 JUMPI PUSH3 0x4B1 PUSH3 0x3F1 JUMP JUMPDEST JUMPDEST PUSH1 0x0 PUSH3 0x4C2 DUP7 DUP3 DUP8 ADD PUSH3 0x41A JUMP JUMPDEST SWAP4 POP POP PUSH1 0x20 PUSH3 0x4D5 DUP7 DUP3 DUP8 ADD PUSH3 0x47F JUMP JUMPDEST SWAP3 POP POP PUSH1 0x40 PUSH3 0x4E8 DUP7 DUP3 DUP8 ADD PUSH3 0x47F JUMP JUMPDEST SWAP2 POP POP SWAP3 POP SWAP3 POP SWAP3 JUMP JUMPDEST PUSH32 0x4E487B7100000000000000000000000000000000000000000000000000000000 PUSH1 0x0 MSTORE PUSH1 0x11 PUSH1 0x4 MSTORE PUSH1 0x24 PUSH1 0x0 REVERT JUMPDEST PUSH1 0x0 PUSH3 0x52E DUP3 PUSH3 0x3F6 JUMP JUMPDEST SWAP2 POP PUSH3 0x53B DUP4 PUSH3 0x3F6 JUMP JUMPDEST SWAP3 POP DUP3 DUP3 ADD SWAP1 POP DUP1 DUP3 GT ISZERO PUSH3 0x556 JUMPI PUSH3 0x555 PUSH3 0x4F2 JUMP JUMPDEST JUMPDEST SWAP3 SWAP2 POP POP JUMP JUMPDEST PUSH2 0x1933 DUP1 PUSH3 0x56C PUSH1 0x0 CODECOPY PUSH1 0x0 RETURN INVALID PUSH1 0x80 PUSH1 0x40 MSTORE CALLVALUE DUP1 ISZERO PUSH2 0x10 JUMPI PUSH1 0x0 DUP1 REVERT JUMPDEST POP PUSH1 0x4 CALLDATASIZE LT PUSH2 0xEA JUMPI PUSH1 0x0 CALLDATALOAD PUSH1 0xE0 SHR DUP1 PUSH4 0x8DA5CB5B GT PUSH2 0x8C JUMPI DUP1 PUSH4 0xD93A4E89 GT PUSH2 0x66 JUMPI DUP1 PUSH4 0xD93A4E89 EQ PUSH2 0x229 JUMPI DUP1 PUSH4 0xE9E21000 EQ PUSH2 0x247 JUMPI DUP1 PUSH4 0xEA6BE96F EQ PUSH2 0x265 JUMPI DUP1 PUSH4 0xF2FDE38B EQ PUSH2 0x295 JUMPI PUSH2 0xEA JUMP JUMPDEST DUP1 PUSH4 0x8DA5CB5B EQ PUSH2 0x1CD JUMPI DUP1 PUSH4 0x9D325CE8 EQ PUSH2 0x1EB JUMPI DUP1 PUSH4 0xC729029D EQ PUSH2 0x1F5 JUMPI PUSH2 0xEA JUMP JUMPDEST DUP1 PUSH4 0x6B89C2C9 GT PUSH2 0xC8 JUMPI DUP1 PUSH4 0x6B89C2C9 EQ PUSH2 0x145 JUMPI DUP1 PUSH4 0x715018A6 EQ PUSH2 0x175 JUMPI DUP1 PUSH4 0x7B80D25E EQ PUSH2 0x17F JUMPI DUP1 PUSH4 0x8456CB59 EQ PUSH2 0x1AF JUMPI PUSH2 0xEA JUMP JUMPDEST DUP1 PUSH4 0xCF79E0A EQ PUSH2 0xEF JUMPI DUP1 PUSH4 0x3CC89380 EQ PUSH2 0x10B JUMPI DUP1 PUSH4 0x5ED1CA85 EQ PUSH2 0x129 JUMPI JUMPDEST PUSH1 0x0 DUP1 REVERT JUMPDEST PUSH2 0x109 PUSH1 0x4 DUP1 CALLDATASIZE SUB DUP2 ADD SWAP1 PUSH2 0x104 SWAP2 SWAP1 PUSH2 0x10AF JUMP JUMPDEST PUSH2 0x2B1 JUMP JUMPDEST STOP JUMPDEST PUSH2 0x113 PUSH2 0x513 JUMP JUMPDEST PUSH1 0x40 MLOAD PUSH2 0x120 SWAP2 SWAP1 PUSH2 0x10FE JUMP JUMPDEST PUSH1 0x40 MLOAD DUP1 SWAP2 SUB SWAP1 RETURN JUMPDEST PUSH2 0x143 PUSH1 0x4 DUP1 CALLDATASIZE SUB DUP2 ADD SWAP1 PUSH2 0x13E SWAP2 SWAP1 PUSH2 0x1119 JUMP JUMPDEST PUSH2 0x519 JUMP JUMPDEST STOP JUMPDEST PUSH2 0x15F PUSH1 0x4 DUP1 CALLDATASIZE SUB DUP2 ADD SWAP1 PUSH2 0x15A SWAP2 SWAP1 PUSH2 0x10AF JUMP JUMPDEST PUSH2 0x6F7 JUMP JUMPDEST PUSH1 0x40 MLOAD PUSH2 0x16C SWAP2 SWAP1 PUSH2 0x10FE JUMP JUMPDEST PUSH1 0x40 MLOAD DUP1 SWAP2 SUB SWAP1 RETURN JUMPDEST PUSH2 0x17D PUSH2 0x736 JUMP JUMPDEST STOP JUMPDEST PUSH2 0x199 PUSH1 0x4 DUP1 CALLDATASIZE SUB DUP2 ADD SWAP1 PUSH2 0x194 SWAP2 SWAP1 PUSH2 0x10AF JUMP JUMPDEST PUSH2 0x74A JUMP JUMPDEST PUSH1 0x40 MLOAD PUSH2 0x1A6 SWAP2 SWAP1 PUSH2 0x10FE JUMP JUMPDEST PUSH1 0x40 MLOAD DUP1 SWAP2 SUB SWAP1 RETURN JUMPDEST PUSH2 0x1B7 PUSH2 0x79F JUMP JUMPDEST PUSH1 0x40 MLOAD PUSH2 0x1C4 SWAP2 SWAP1 PUSH2 0x1161 JUMP JUMPDEST PUSH1 0x40 MLOAD DUP1 SWAP2 SUB SWAP1 RETURN JUMPDEST PUSH2 0x1D5 PUSH2 0x7B2 JUMP JUMPDEST PUSH1 0x40 MLOAD PUSH2 0x1E2 SWAP2 SWAP1 PUSH2 0x11BD JUMP JUMPDEST PUSH1 0x40 MLOAD DUP1 SWAP2 SUB SWAP1 RETURN JUMPDEST PUSH2 0x1F3 PUSH2 0x7DB JUMP JUMPDEST STOP JUMPDEST PUSH2 0x20F PUSH1 0x4 DUP1 CALLDATASIZE SUB DUP2 ADD SWAP1 PUSH2 0x20A SWAP2 SWAP1 PUSH2 0x1119 JUMP JUMPDEST PUSH2 0x80F JUMP JUMPDEST PUSH1 0x40 MLOAD PUSH2 0x220 SWAP6 SWAP5 SWAP4 SWAP3 SWAP2 SWAP1 PUSH2 0x11D8 JUMP JUMPDEST PUSH1 0x40 MLOAD DUP1 SWAP2 SUB SWAP1 RETURN JUMPDEST PUSH2 0x231 PUSH2 0x845 JUMP JUMPDEST PUSH1 0x40 MLOAD PUSH2 0x23E SWAP2 SWAP1 PUSH2 0x10FE JUMP JUMPDEST PUSH1 0x40 MLOAD DUP1 SWAP2 SUB SWAP1 RETURN JUMPDEST PUSH2 0x24F PUSH2 0x84D JUMP JUMPDEST PUSH1 0x40 MLOAD PUSH2 0x25C SWAP2 SWAP1 PUSH2 0x10FE JUMP JUMPDEST PUSH1 0x40 MLOAD DUP1 SWAP2 SUB SWAP1 RETURN JUMPDEST PUSH2 0x27F PUSH1 0x4 DUP1 CALLDATASIZE SUB DUP2 ADD SWAP1 PUSH2 0x27A SWAP2 SWAP1 PUSH2 0x1119 JUMP JUMPDEST PUSH2 0x853 JUMP JUMPDEST PUSH1 0x40 MLOAD PUSH2 0x28C SWAP2 SWAP1 PUSH2 0x10FE JUMP JUMPDEST PUSH1 0x40 MLOAD DUP1 SWAP2 SUB SWAP1 RETURN JUMPDEST PUSH2 0x2AF PUSH1 0x4 DUP1 CALLDATASIZE SUB DUP2 ADD SWAP1 PUSH2 0x2AA SWAP2 SWAP1 PUSH2 0x1257 JUMP JUMPDEST PUSH2 0x8C2 JUMP JUMPDEST STOP JUMPDEST DUP1 PUSH1 0x6 PUSH1 0x0 SWAP1 SLOAD SWAP1 PUSH2 0x100 EXP SWAP1 DIV PUSH20 0xFFFFFFFFFFFFFFFFFFFFFFFFFFFFFFFFFFFFFFFF AND PUSH20 0xFFFFFFFFFFFFFFFFFFFFFFFFFFFFFFFFFFFFFFFF AND PUSH4 0xDD62ED3E CALLER ADDRESS PUSH1 0x40 MLOAD DUP4 PUSH4 0xFFFFFFFF AND PUSH1 0xE0 SHL DUP2 MSTORE PUSH1 0x4 ADD PUSH2 0x30F SWAP3 SWAP2 SWAP1 PUSH2 0x1284 JUMP JUMPDEST PUSH1 0x20 PUSH1 0x40 MLOAD DUP1 DUP4 SUB DUP2 PUSH1 0x0 DUP8 GAS CALL ISZERO DUP1 ISZERO PUSH2 0x32E JUMPI RETURNDATASIZE PUSH1 0x0 DUP1 RETURNDATACOPY RETURNDATASIZE PUSH1 0x0 REVERT JUMPDEST POP POP POP POP PUSH1 0x40 MLOAD RETURNDATASIZE PUSH1 0x1F NOT PUSH1 0x1F DUP3 ADD AND DUP3 ADD DUP1 PUSH1 0x40 MSTORE POP DUP2 ADD SWAP1 PUSH2 0x352 SWAP2 SWAP1 PUSH2 0x12C2 JUMP JUMPDEST LT ISZERO PUSH2 0x393 JUMPI PUSH1 0x40 MLOAD PUSH32 0x8C379A000000000000000000000000000000000000000000000000000000000 DUP2 MSTORE PUSH1 0x4 ADD PUSH2 0x38A SWAP1 PUSH2 0x134C JUMP JUMPDEST PUSH1 0x40 MLOAD DUP1 SWAP2 SUB SWAP1 REVERT JUMPDEST PUSH1 0x6 PUSH1 0x0 SWAP1 SLOAD SWAP1 PUSH2 0x100 EXP SWAP1 DIV PUSH20 0xFFFFFFFFFFFFFFFFFFFFFFFFFFFFFFFFFFFFFFFF AND PUSH20 0xFFFFFFFFFFFFFFFFFFFFFFFFFFFFFFFFFFFFFFFF AND PUSH4 0x23B872DD CALLER ADDRESS DUP5 PUSH1 0x40 MLOAD DUP5 PUSH4 0xFFFFFFFF AND PUSH1 0xE0 SHL DUP2 MSTORE PUSH1 0x4 ADD PUSH2 0x3F2 SWAP4 SWAP3 SWAP2 SWAP1 PUSH2 0x136C JUMP JUMPDEST PUSH1 0x20 PUSH1 0x40 MLOAD DUP1 DUP4 SUB DUP2 PUSH1 0x0 DUP8 GAS CALL ISZERO DUP1 ISZERO PUSH2 0x411 JUMPI RETURNDATASIZE PUSH1 0x0 DUP1 RETURNDATACOPY RETURNDATASIZE PUSH1 0x0 REVERT JUMPDEST POP POP POP POP PUSH1 0x40 MLOAD RETURNDATASIZE PUSH1 0x1F NOT PUSH1 0x1F DUP3 ADD AND DUP3 ADD DUP1 PUSH1 0x40 MSTORE POP DUP2 ADD SWAP1 PUSH2 0x435 SWAP2 SWAP1 PUSH2 0x13CF JUMP JUMPDEST POP PUSH1 0x5 PUSH1 0x0 SWAP1 SLOAD SWAP1 PUSH2 0x100 EXP SWAP1 DIV PUSH20 0xFFFFFFFFFFFFFFFFFFFFFFFFFFFFFFFFFFFFFFFF AND PUSH20 0xFFFFFFFFFFFFFFFFFFFFFFFFFFFFFFFFFFFFFFFF AND PUSH4 0xA9059CBB CALLER DUP5 PUSH1 0x40 MLOAD DUP4 PUSH4 0xFFFFFFFF AND PUSH1 0xE0 SHL DUP2 MSTORE PUSH1 0x4 ADD PUSH2 0x493 SWAP3 SWAP2 SWAP1 PUSH2 0x13FC JUMP JUMPDEST PUSH1 0x20 PUSH1 0x40 MLOAD DUP1 DUP4 SUB DUP2 PUSH1 0x0 DUP8 GAS CALL ISZERO DUP1 ISZERO PUSH2 0x4B2 JUMPI RETURNDATASIZE PUSH1 0x0 DUP1 RETURNDATACOPY RETURNDATASIZE PUSH1 0x0 REVERT JUMPDEST POP POP POP POP PUSH1 0x40 MLOAD RETURNDATASIZE PUSH1 0x1F NOT PUSH1 0x1F DUP3 ADD AND DUP3 ADD DUP1 PUSH1 0x40 MSTORE POP DUP2 ADD SWAP1 PUSH2 0x4D6 SWAP2 SWAP1 PUSH2 0x13CF JUMP JUMPDEST POP PUSH31 0xCF51CAB78618603B70BA6D83208CB163CFAA39D041D7FB33AFC5E49970BADA CALLER DUP4 PUSH1 0x40 MLOAD PUSH2 0x507 SWAP3 SWAP2 SWAP1 PUSH2 0x13FC JUMP JUMPDEST PUSH1 0x40 MLOAD DUP1 SWAP2 SUB SWAP1 LOG1 POP POP JUMP JUMPDEST PUSH1 0x1 SLOAD DUP2 JUMP JUMPDEST PUSH1 0x0 TIMESTAMP SWAP1 POP PUSH1 0x0 PUSH1 0x14 SWAP1 SLOAD SWAP1 PUSH2 0x100 EXP SWAP1 DIV PUSH1 0xFF AND ISZERO PUSH2 0x56E JUMPI PUSH1 0x40 MLOAD PUSH32 0x8C379A000000000000000000000000000000000000000000000000000000000 DUP2 MSTORE PUSH1 0x4 ADD PUSH2 0x565 SWAP1 PUSH2 0x1471 JUMP JUMPDEST PUSH1 0x40 MLOAD DUP1 SWAP2 SUB SWAP1 REVERT JUMPDEST PUSH1 0x4 PUSH1 0x0 PUSH1 0x1 DUP2 MSTORE PUSH1 0x20 ADD SWAP1 DUP2 MSTORE PUSH1 0x20 ADD PUSH1 0x0 KECCAK256 PUSH1 0x2 ADD SLOAD DUP2 LT ISZERO PUSH2 0x5C8 JUMPI PUSH1 0x40 MLOAD PUSH32 0x8C379A000000000000000000000000000000000000000000000000000000000 DUP2 MSTORE PUSH1 0x4 ADD PUSH2 0x5BF SWAP1 PUSH2 0x14DD JUMP JUMPDEST PUSH1 0x40 MLOAD DUP1 SWAP2 SUB SWAP1 REVERT JUMPDEST PUSH1 0x4 PUSH1 0x0 PUSH1 0x1 SLOAD DUP2 MSTORE PUSH1 0x20 ADD SWAP1 DUP2 MSTORE PUSH1 0x20 ADD PUSH1 0x0 KECCAK256 PUSH1 0x3 ADD SLOAD DUP2 LT PUSH2 0x654 JUMPI PUSH1 0x1 PUSH1 0x0 DUP2 SLOAD DUP1 SWAP3 SWAP2 SWAP1 PUSH2 0x5FA SWAP1 PUSH2 0x152C JUMP JUMPDEST SWAP2 SWAP1 POP SSTORE POP PUSH1 0x2 SLOAD PUSH1 0x1 SLOAD GT ISZERO PUSH2 0x646 JUMPI PUSH1 0x40 MLOAD PUSH32 0x8C379A000000000000000000000000000000000000000000000000000000000 DUP2 MSTORE PUSH1 0x4 ADD PUSH2 0x63D SWAP1 PUSH2 0x15C0 JUMP JUMPDEST PUSH1 0x40 MLOAD DUP1 SWAP2 SUB SWAP1 REVERT JUMPDEST PUSH2 0x64F DUP3 PUSH2 0x519 JUMP JUMPDEST PUSH2 0x6F3 JUMP JUMPDEST PUSH1 0x2 SLOAD PUSH1 0x1 SLOAD GT PUSH2 0x6B7 JUMPI PUSH2 0x667 PUSH2 0x945 JUMP JUMPDEST PUSH1 0x0 DUP1 PUSH1 0x0 PUSH2 0x678 PUSH1 0x1 SLOAD DUP7 PUSH2 0xA18 JUMP JUMPDEST DUP1 SWAP4 POP DUP2 SWAP5 POP DUP3 SWAP6 POP POP POP POP PUSH2 0x68F DUP4 DUP4 DUP4 PUSH2 0xC5E JUMP JUMPDEST PUSH2 0x69A DUP3 DUP5 DUP4 PUSH2 0xCFD JUMP JUMPDEST PUSH2 0x6AF DUP4 DUP3 DUP8 PUSH2 0x6AA SWAP2 SWAP1 PUSH2 0x15E0 JUMP JUMPDEST PUSH2 0x2B1 JUMP JUMPDEST POP POP POP PUSH2 0x6F2 JUMP JUMPDEST PUSH1 0x40 MLOAD PUSH32 0x8C379A000000000000000000000000000000000000000000000000000000000 DUP2 MSTORE PUSH1 0x4 ADD PUSH2 0x6E9 SWAP1 PUSH2 0x15C0 JUMP JUMPDEST PUSH1 0x40 MLOAD DUP1 SWAP2 SUB SWAP1 REVERT JUMPDEST JUMPDEST POP POP JUMP JUMPDEST PUSH1 0x0 DUP1 PUSH4 0x3B9ACA00 SWAP1 POP PUSH1 0x0 PUSH4 0x5F5E100 DUP5 PUSH2 0x713 SWAP2 SWAP1 PUSH2 0x1614 JUMP JUMPDEST DUP6 DUP4 PUSH2 0x71F SWAP2 SWAP1 PUSH2 0x1614 JUMP JUMPDEST PUSH2 0x729 SWAP2 SWAP1 PUSH2 0x1685 JUMP JUMPDEST SWAP1 POP DUP1 SWAP3 POP POP POP SWAP3 SWAP2 POP POP JUMP JUMPDEST PUSH2 0x73E PUSH2 0xE24 JUMP JUMPDEST PUSH2 0x748 PUSH1 0x0 PUSH2 0xEA2 JUMP JUMPDEST JUMP JUMPDEST PUSH1 0x0 DUP1 PUSH4 0x3B9ACA00 SWAP1 POP PUSH1 0x0 DUP2 PUSH4 0x5F5E100 DUP7 PUSH1 0x4 PUSH1 0x0 DUP9 DUP2 MSTORE PUSH1 0x20 ADD SWAP1 DUP2 MSTORE PUSH1 0x20 ADD PUSH1 0x0 KECCAK256 PUSH1 0x4 ADD SLOAD PUSH2 0x77E SWAP2 SWAP1 PUSH2 0x1614 JUMP JUMPDEST PUSH2 0x788 SWAP2 SWAP1 PUSH2 0x1614 JUMP JUMPDEST PUSH2 0x792 SWAP2 SWAP1 PUSH2 0x1685 JUMP JUMPDEST SWAP1 POP DUP1 SWAP3 POP POP POP SWAP3 SWAP2 POP POP JUMP JUMPDEST PUSH1 0x0 PUSH1 0x14 SWAP1 SLOAD SWAP1 PUSH2 0x100 EXP SWAP1 DIV PUSH1 0xFF AND DUP2 JUMP JUMPDEST PUSH1 0x0 DUP1 PUSH1 0x0 SWAP1 SLOAD SWAP1 PUSH2 0x100 EXP SWAP1 DIV PUSH20 0xFFFFFFFFFFFFFFFFFFFFFFFFFFFFFFFFFFFFFFFF AND SWAP1 POP SWAP1 JUMP JUMPDEST PUSH2 0x7E3 PUSH2 0xE24 JUMP JUMPDEST PUSH1 0x0 PUSH1 0x14 SWAP1 SLOAD SWAP1 PUSH2 0x100 EXP SWAP1 DIV PUSH1 0xFF AND ISZERO PUSH1 0x0 PUSH1 0x14 PUSH2 0x100 EXP DUP2 SLOAD DUP2 PUSH1 0xFF MUL NOT AND SWAP1 DUP4 ISZERO ISZERO MUL OR SWAP1 SSTORE POP JUMP JUMPDEST PUSH1 0x4 PUSH1 0x20 MSTORE DUP1 PUSH1 0x0 MSTORE PUSH1 0x40 PUSH1 0x0 KECCAK256 PUSH1 0x0 SWAP2 POP SWAP1 POP DUP1 PUSH1 0x0 ADD SLOAD SWAP1 DUP1 PUSH1 0x1 ADD SLOAD SWAP1 DUP1 PUSH1 0x2 ADD SLOAD SWAP1 DUP1 PUSH1 0x3 ADD SLOAD SWAP1 DUP1 PUSH1 0x4 ADD SLOAD SWAP1 POP DUP6 JUMP JUMPDEST PUSH1 0x0 TIMESTAMP SWAP1 POP SWAP1 JUMP JUMPDEST PUSH1 0x2 SLOAD DUP2 JUMP JUMPDEST PUSH1 0x0 DUP1 PUSH1 0x0 PUSH1 0x14 SWAP1 SLOAD SWAP1 PUSH2 0x100 EXP SWAP1 DIV PUSH1 0xFF AND ISZERO PUSH2 0x8A6 JUMPI PUSH1 0x40 MLOAD PUSH32 0x8C379A000000000000000000000000000000000000000000000000000000000 DUP2 MSTORE PUSH1 0x4 ADD PUSH2 0x89D SWAP1 PUSH2 0x1471 JUMP JUMPDEST PUSH1 0x40 MLOAD DUP1 SWAP2 SUB SWAP1 REVERT JUMPDEST PUSH2 0x8B2 PUSH1 0x1 SLOAD DUP5 PUSH2 0xA18 JUMP JUMPDEST SWAP1 POP POP DUP1 SWAP2 POP POP DUP1 SWAP2 POP POP SWAP2 SWAP1 POP JUMP JUMPDEST PUSH2 0x8CA PUSH2 0xE24 JUMP JUMPDEST PUSH1 0x0 PUSH20 0xFFFFFFFFFFFFFFFFFFFFFFFFFFFFFFFFFFFFFFFF AND DUP2 PUSH20 0xFFFFFFFFFFFFFFFFFFFFFFFFFFFFFFFFFFFFFFFF AND SUB PUSH2 0x939 JUMPI PUSH1 0x40 MLOAD PUSH32 0x8C379A000000000000000000000000000000000000000000000000000000000 DUP2 MSTORE PUSH1 0x4 ADD PUSH2 0x930 SWAP1 PUSH2 0x1728 JUMP JUMPDEST PUSH1 0x40 MLOAD DUP1 SWAP2 SUB SWAP1 REVERT JUMPDEST PUSH2 0x942 DUP2 PUSH2 0xEA2 JUMP JUMPDEST POP JUMP JUMPDEST PUSH1 0x1 DUP1 SLOAD EQ ISZERO DUP1 ISZERO PUSH2 0x97A JUMPI POP PUSH1 0x0 PUSH1 0x4 PUSH1 0x0 PUSH1 0x1 DUP1 SLOAD PUSH2 0x966 SWAP2 SWAP1 PUSH2 0x15E0 JUMP JUMPDEST DUP2 MSTORE PUSH1 0x20 ADD SWAP1 DUP2 MSTORE PUSH1 0x20 ADD PUSH1 0x0 KECCAK256 PUSH1 0x4 ADD SLOAD GT JUMPDEST ISZERO PUSH2 0xA16 JUMPI PUSH1 0x0 DUP1 PUSH1 0x1 SWAP1 POP JUMPDEST PUSH1 0x1 SLOAD DUP2 LT ISZERO PUSH2 0x9E4 JUMPI PUSH1 0x4 PUSH1 0x0 DUP3 DUP2 MSTORE PUSH1 0x20 ADD SWAP1 DUP2 MSTORE PUSH1 0x20 ADD PUSH1 0x0 KECCAK256 PUSH1 0x4 ADD SLOAD DUP3 PUSH2 0x9B3 SWAP2 SWAP1 PUSH2 0x1748 JUMP JUMPDEST SWAP2 POP PUSH1 0x0 PUSH1 0x4 PUSH1 0x0 DUP4 DUP2 MSTORE PUSH1 0x20 ADD SWAP1 DUP2 MSTORE PUSH1 0x20 ADD PUSH1 0x0 KECCAK256 PUSH1 0x4 ADD DUP2 SWAP1 SSTORE POP DUP1 DUP1 PUSH2 0x9DC SWAP1 PUSH2 0x152C JUMP JUMPDEST SWAP2 POP POP PUSH2 0x987 JUMP JUMPDEST POP DUP1 PUSH1 0x4 PUSH1 0x0 PUSH1 0x1 SLOAD DUP2 MSTORE PUSH1 0x20 ADD SWAP1 DUP2 MSTORE PUSH1 0x20 ADD PUSH1 0x0 KECCAK256 PUSH1 0x4 ADD PUSH1 0x0 DUP3 DUP3 SLOAD PUSH2 0xA0D SWAP2 SWAP1 PUSH2 0x1748 JUMP JUMPDEST SWAP3 POP POP DUP2 SWAP1 SSTORE POP POP JUMPDEST JUMP JUMPDEST PUSH1 0x0 DUP1 PUSH1 0x0 PUSH1 0x2 SLOAD DUP6 GT ISZERO PUSH2 0xA62 JUMPI PUSH1 0x40 MLOAD PUSH32 0x8C379A000000000000000000000000000000000000000000000000000000000 DUP2 MSTORE PUSH1 0x4 ADD PUSH2 0xA59 SWAP1 PUSH2 0x15C0 JUMP JUMPDEST PUSH1 0x40 MLOAD DUP1 SWAP2 SUB SWAP1 REVERT JUMPDEST PUSH1 0x4 PUSH1 0x0 DUP7 DUP2 MSTORE PUSH1 0x20 ADD SWAP1 DUP2 MSTORE PUSH1 0x20 ADD PUSH1 0x0 KECCAK256 PUSH1 0x3 ADD SLOAD TIMESTAMP LT PUSH2 0xA9D JUMPI PUSH2 0xA95 PUSH1 0x1 DUP7 PUSH2 0xA8F SWAP2 SWAP1 PUSH2 0x1748 JUMP JUMPDEST DUP6 PUSH2 0xA18 JUMP JUMPDEST POP POP POP PUSH2 0xC4B JUMP JUMPDEST PUSH1 0x0 DUP1 PUSH1 0x0 DUP1 PUSH1 0x0 PUSH1 0x4 PUSH1 0x0 DUP12 DUP2 MSTORE PUSH1 0x20 ADD SWAP1 DUP2 MSTORE PUSH1 0x20 ADD PUSH1 0x0 KECCAK256 PUSH1 0x40 MLOAD DUP1 PUSH1 0xA0 ADD PUSH1 0x40 MSTORE SWAP1 DUP2 PUSH1 0x0 DUP3 ADD SLOAD DUP2 MSTORE PUSH1 0x20 ADD PUSH1 0x1 DUP3 ADD SLOAD DUP2 MSTORE PUSH1 0x20 ADD PUSH1 0x2 DUP3 ADD SLOAD DUP2 MSTORE PUSH1 0x20 ADD PUSH1 0x3 DUP3 ADD SLOAD DUP2 MSTORE PUSH1 0x20 ADD PUSH1 0x4 DUP3 ADD SLOAD DUP2 MSTORE POP POP SWAP1 POP PUSH1 0x0 PUSH2 0xB07 DUP11 DUP4 PUSH1 0x0 ADD MLOAD PUSH2 0x6F7 JUMP JUMPDEST SWAP1 POP DUP2 PUSH1 0x80 ADD MLOAD DUP2 LT ISZERO PUSH2 0xB2A JUMPI DUP1 DUP12 PUSH1 0x0 SWAP9 POP SWAP9 POP SWAP9 POP POP POP POP POP POP POP PUSH2 0xC57 JUMP JUMPDEST DUP2 PUSH1 0x80 ADD MLOAD DUP2 SUB PUSH2 0xB4A JUMPI DUP1 DUP12 PUSH1 0x0 SWAP9 POP SWAP9 POP SWAP9 POP POP POP POP POP POP POP PUSH2 0xC57 JUMP JUMPDEST DUP2 PUSH1 0x80 ADD MLOAD DUP2 GT ISZERO PUSH2 0xC44 JUMPI DUP2 PUSH1 0x80 ADD MLOAD SWAP5 POP PUSH2 0xB9C PUSH1 0x40 MLOAD DUP1 PUSH1 0x40 ADD PUSH1 0x40 MSTORE DUP1 PUSH1 0xB DUP2 MSTORE PUSH1 0x20 ADD PUSH32 0x746F74616C746F6B656E73000000000000000000000000000000000000000000 DUP2 MSTORE POP DUP3 PUSH2 0xF66 JUMP JUMPDEST PUSH1 0x0 PUSH2 0xBAC DUP4 PUSH1 0x0 ADD MLOAD DUP14 PUSH2 0x74A JUMP JUMPDEST SWAP1 POP PUSH1 0x2 SLOAD DUP13 LT ISZERO PUSH2 0xC18 JUMPI PUSH2 0xBD9 PUSH1 0x1 DUP14 PUSH2 0xBC8 SWAP2 SWAP1 PUSH2 0x1748 JUMP JUMPDEST DUP3 DUP14 PUSH2 0xBD4 SWAP2 SWAP1 PUSH2 0x15E0 JUMP JUMPDEST PUSH2 0xA18 JUMP JUMPDEST DUP1 SWAP7 POP DUP2 SWAP8 POP DUP3 SWAP10 POP POP POP POP DUP7 DUP7 PUSH2 0xBF1 SWAP2 SWAP1 PUSH2 0x1748 JUMP JUMPDEST PUSH2 0xBFB DUP14 DUP8 PUSH2 0x1002 JUMP JUMPDEST PUSH2 0xC06 PUSH1 0x0 DUP8 PUSH2 0x1002 JUMP JUMPDEST SWAP10 POP SWAP10 POP SWAP10 POP POP POP POP POP POP POP POP PUSH2 0xC57 JUMP JUMPDEST PUSH1 0x2 SLOAD DUP13 SUB PUSH2 0xC42 JUMPI DUP6 PUSH1 0x3 DUP3 DUP14 PUSH2 0xC30 SWAP2 SWAP1 PUSH2 0x15E0 JUMP JUMPDEST SWAP10 POP SWAP10 POP SWAP10 POP POP POP POP POP POP POP POP PUSH2 0xC57 JUMP JUMPDEST POP JUMPDEST POP POP POP POP POP POP JUMPDEST PUSH1 0x0 DUP1 PUSH1 0x0 SWAP3 POP SWAP3 POP SWAP3 POP JUMPDEST SWAP3 POP SWAP3 POP SWAP3 JUMP JUMPDEST PUSH2 0xCF8 DUP4 DUP4 DUP4 PUSH1 0x40 MLOAD PUSH1 0x24 ADD PUSH2 0xC76 SWAP4 SWAP3 SWAP2 SWAP1 PUSH2 0x177C JUMP JUMPDEST PUSH1 0x40 MLOAD PUSH1 0x20 DUP2 DUP4 SUB SUB DUP2 MSTORE SWAP1 PUSH1 0x40 MSTORE PUSH32 0xD1ED7A3C00000000000000000000000000000000000000000000000000000000 PUSH28 0xFFFFFFFFFFFFFFFFFFFFFFFFFFFFFFFFFFFFFFFFFFFFFFFFFFFFFFFF NOT AND PUSH1 0x20 DUP3 ADD DUP1 MLOAD PUSH28 0xFFFFFFFFFFFFFFFFFFFFFFFFFFFFFFFFFFFFFFFFFFFFFFFFFFFFFFFF DUP4 DUP2 DUP4 AND OR DUP4 MSTORE POP POP POP POP PUSH2 0x101C JUMP JUMPDEST POP POP POP JUMP JUMPDEST PUSH1 0x1 SLOAD DUP4 SUB PUSH2 0xD3A JUMPI DUP2 PUSH1 0x4 PUSH1 0x0 PUSH1 0x1 SLOAD DUP2 MSTORE PUSH1 0x20 ADD SWAP1 DUP2 MSTORE PUSH1 0x20 ADD PUSH1 0x0 KECCAK256 PUSH1 0x4 ADD PUSH1 0x0 DUP3 DUP3 SLOAD PUSH2 0xD2E SWAP2 SWAP1 PUSH2 0x15E0 JUMP JUMPDEST SWAP3 POP POP DUP2 SWAP1 SSTORE POP PUSH2 0xDF4 JUMP JUMPDEST PUSH1 0x0 DUP1 PUSH1 0x1 SLOAD SWAP1 POP JUMPDEST DUP5 DUP2 LT ISZERO PUSH2 0xDB9 JUMPI PUSH1 0x4 PUSH1 0x0 DUP3 DUP2 MSTORE PUSH1 0x20 ADD SWAP1 DUP2 MSTORE PUSH1 0x20 ADD PUSH1 0x0 KECCAK256 PUSH1 0x4 ADD SLOAD DUP3 PUSH2 0xD6D SWAP2 SWAP1 PUSH2 0x1748 JUMP JUMPDEST SWAP2 POP PUSH1 0x0 PUSH1 0x4 PUSH1 0x0 DUP4 DUP2 MSTORE PUSH1 0x20 ADD SWAP1 DUP2 MSTORE PUSH1 0x20 ADD PUSH1 0x0 KECCAK256 PUSH1 0x4 ADD DUP2 SWAP1 SSTORE POP TIMESTAMP PUSH1 0x4 PUSH1 0x0 DUP4 DUP2 MSTORE PUSH1 0x20 ADD SWAP1 DUP2 MSTORE PUSH1 0x20 ADD PUSH1 0x0 KECCAK256 PUSH1 0x3 ADD DUP2 SWAP1 SSTORE POP DUP1 DUP1 PUSH2 0xDB1 SWAP1 PUSH2 0x152C JUMP JUMPDEST SWAP2 POP POP PUSH2 0xD43 JUMP JUMPDEST POP DUP1 DUP4 PUSH2 0xDC6 SWAP2 SWAP1 PUSH2 0x15E0 JUMP JUMPDEST PUSH1 0x4 PUSH1 0x0 DUP7 DUP2 MSTORE PUSH1 0x20 ADD SWAP1 DUP2 MSTORE PUSH1 0x20 ADD PUSH1 0x0 KECCAK256 PUSH1 0x4 ADD PUSH1 0x0 DUP3 DUP3 SLOAD PUSH2 0xDEB SWAP2 SWAP1 PUSH2 0x15E0 JUMP JUMPDEST SWAP3 POP POP DUP2 SWAP1 SSTORE POP POP JUMPDEST PUSH1 0x0 DUP2 GT ISZERO PUSH2 0xE17 JUMPI PUSH1 0x1 PUSH1 0x2 SLOAD PUSH2 0xE0C SWAP2 SWAP1 PUSH2 0x1748 JUMP JUMPDEST PUSH1 0x1 DUP2 SWAP1 SSTORE POP PUSH2 0xE1F JUMP JUMPDEST DUP3 PUSH1 0x1 DUP2 SWAP1 SSTORE POP JUMPDEST POP POP POP JUMP JUMPDEST PUSH2 0xE2C PUSH2 0x1036 JUMP JUMPDEST PUSH20 0xFFFFFFFFFFFFFFFFFFFFFFFFFFFFFFFFFFFFFFFF AND PUSH2 0xE4A PUSH2 0x7B2 JUMP JUMPDEST PUSH20 0xFFFFFFFFFFFFFFFFFFFFFFFFFFFFFFFFFFFFFFFF AND EQ PUSH2 0xEA0 JUMPI PUSH1 0x40 MLOAD PUSH32 0x8C379A000000000000000000000000000000000000000000000000000000000 DUP2 MSTORE PUSH1 0x4 ADD PUSH2 0xE97 SWAP1 PUSH2 0x17FF JUMP JUMPDEST PUSH1 0x40 MLOAD DUP1 SWAP2 SUB SWAP1 REVERT JUMPDEST JUMP JUMPDEST PUSH1 0x0 DUP1 PUSH1 0x0 SWAP1 SLOAD SWAP1 PUSH2 0x100 EXP SWAP1 DIV PUSH20 0xFFFFFFFFFFFFFFFFFFFFFFFFFFFFFFFFFFFFFFFF AND SWAP1 POP DUP2 PUSH1 0x0 DUP1 PUSH2 0x100 EXP DUP2 SLOAD DUP2 PUSH20 0xFFFFFFFFFFFFFFFFFFFFFFFFFFFFFFFFFFFFFFFF MUL NOT AND SWAP1 DUP4 PUSH20 0xFFFFFFFFFFFFFFFFFFFFFFFFFFFFFFFFFFFFFFFF AND MUL OR SWAP1 SSTORE POP DUP2 PUSH20 0xFFFFFFFFFFFFFFFFFFFFFFFFFFFFFFFFFFFFFFFF AND DUP2 PUSH20 0xFFFFFFFFFFFFFFFFFFFFFFFFFFFFFFFFFFFFFFFF AND PUSH32 0x8BE0079C531659141344CD1FD0A4F28419497F9722A3DAAFE3B4186F6B6457E0 PUSH1 0x40 MLOAD PUSH1 0x40 MLOAD DUP1 SWAP2 SUB SWAP1 LOG3 POP POP JUMP JUMPDEST PUSH2 0xFFE DUP3 DUP3 PUSH1 0x40 MLOAD PUSH1 0x24 ADD PUSH2 0xF7C SWAP3 SWAP2 SWAP1 PUSH2 0x189E JUMP JUMPDEST PUSH1 0x40 MLOAD PUSH1 0x20 DUP2 DUP4 SUB SUB DUP2 MSTORE SWAP1 PUSH1 0x40 MSTORE PUSH32 0xB60E72CC00000000000000000000000000000000000000000000000000000000 PUSH28 0xFFFFFFFFFFFFFFFFFFFFFFFFFFFFFFFFFFFFFFFFFFFFFFFFFFFFFFFF NOT AND PUSH1 0x20 DUP3 ADD DUP1 MLOAD PUSH28 0xFFFFFFFFFFFFFFFFFFFFFFFFFFFFFFFFFFFFFFFFFFFFFFFFFFFFFFFF DUP4 DUP2 DUP4 AND OR DUP4 MSTORE POP POP POP POP PUSH2 0x101C JUMP JUMPDEST POP POP JUMP JUMPDEST PUSH1 0x0 DUP2 DUP4 LT ISZERO PUSH2 0x1012 JUMPI DUP2 PUSH2 0x1014 JUMP JUMPDEST DUP3 JUMPDEST SWAP1 POP SWAP3 SWAP2 POP POP JUMP JUMPDEST PUSH2 0x1033 DUP2 PUSH2 0x102B PUSH2 0x103E PUSH2 0x105F JUMP JUMPDEST PUSH4 0xFFFFFFFF AND JUMP JUMPDEST POP JUMP JUMPDEST PUSH1 0x0 CALLER SWAP1 POP SWAP1 JUMP JUMPDEST PUSH1 0x0 PUSH11 0x636F6E736F6C652E6C6F67 SWAP1 POP PUSH1 0x0 DUP1 DUP4 MLOAD PUSH1 0x20 DUP6 ADD DUP5 GAS STATICCALL POP POP POP JUMP JUMPDEST PUSH2 0x106A DUP2 SWAP1 POP SWAP2 SWAP1 POP JUMP JUMPDEST PUSH2 0x1072 PUSH2 0x18CE JUMP JUMPDEST JUMP JUMPDEST PUSH1 0x0 DUP1 REVERT JUMPDEST PUSH1 0x0 DUP2 SWAP1 POP SWAP2 SWAP1 POP JUMP JUMPDEST PUSH2 0x108C DUP2 PUSH2 0x1079 JUMP JUMPDEST DUP2 EQ PUSH2 0x1097 JUMPI PUSH1 0x0 DUP1 REVERT JUMPDEST POP JUMP JUMPDEST PUSH1 0x0 DUP2 CALLDATALOAD SWAP1 POP PUSH2 0x10A9 DUP2 PUSH2 0x1083 JUMP JUMPDEST SWAP3 SWAP2 POP POP JUMP JUMPDEST PUSH1 0x0 DUP1 PUSH1 0x40 DUP4 DUP6 SUB SLT ISZERO PUSH2 0x10C6 JUMPI PUSH2 0x10C5 PUSH2 0x1074 JUMP JUMPDEST JUMPDEST PUSH1 0x0 PUSH2 0x10D4 DUP6 DUP3 DUP7 ADD PUSH2 0x109A JUMP JUMPDEST SWAP3 POP POP PUSH1 0x20 PUSH2 0x10E5 DUP6 DUP3 DUP7 ADD PUSH2 0x109A JUMP JUMPDEST SWAP2 POP POP SWAP3 POP SWAP3 SWAP1 POP JUMP JUMPDEST PUSH2 0x10F8 DUP2 PUSH2 0x1079 JUMP JUMPDEST DUP3 MSTORE POP POP JUMP JUMPDEST PUSH1 0x0 PUSH1 0x20 DUP3 ADD SWAP1 POP PUSH2 0x1113 PUSH1 0x0 DUP4 ADD DUP5 PUSH2 0x10EF JUMP JUMPDEST SWAP3 SWAP2 POP POP JUMP JUMPDEST PUSH1 0x0 PUSH1 0x20 DUP3 DUP5 SUB SLT ISZERO PUSH2 0x112F JUMPI PUSH2 0x112E PUSH2 0x1074 JUMP JUMPDEST JUMPDEST PUSH1 0x0 PUSH2 0x113D DUP5 DUP3 DUP6 ADD PUSH2 0x109A JUMP JUMPDEST SWAP2 POP POP SWAP3 SWAP2 POP POP JUMP JUMPDEST PUSH1 0x0 DUP2 ISZERO ISZERO SWAP1 POP SWAP2 SWAP1 POP JUMP JUMPDEST PUSH2 0x115B DUP2 PUSH2 0x1146 JUMP JUMPDEST DUP3 MSTORE POP POP JUMP JUMPDEST PUSH1 0x0 PUSH1 0x20 DUP3 ADD SWAP1 POP PUSH2 0x1176 PUSH1 0x0 DUP4 ADD DUP5 PUSH2 0x1152 JUMP JUMPDEST SWAP3 SWAP2 POP POP JUMP JUMPDEST PUSH1 0x0 PUSH20 0xFFFFFFFFFFFFFFFFFFFFFFFFFFFFFFFFFFFFFFFF DUP3 AND SWAP1 POP SWAP2 SWAP1 POP JUMP JUMPDEST PUSH1 0x0 PUSH2 0x11A7 DUP3 PUSH2 0x117C JUMP JUMPDEST SWAP1 POP SWAP2 SWAP1 POP JUMP JUMPDEST PUSH2 0x11B7 DUP2 PUSH2 0x119C JUMP JUMPDEST DUP3 MSTORE POP POP JUMP JUMPDEST PUSH1 0x0 PUSH1 0x20 DUP3 ADD SWAP1 POP PUSH2 0x11D2 PUSH1 0x0 DUP4 ADD DUP5 PUSH2 0x11AE JUMP JUMPDEST SWAP3 SWAP2 POP POP JUMP JUMPDEST PUSH1 0x0 PUSH1 0xA0 DUP3 ADD SWAP1 POP PUSH2 0x11ED PUSH1 0x0 DUP4 ADD DUP9 PUSH2 0x10EF JUMP JUMPDEST PUSH2 0x11FA PUSH1 0x20 DUP4 ADD DUP8 PUSH2 0x10EF JUMP JUMPDEST PUSH2 0x1207 PUSH1 0x40 DUP4 ADD DUP7 PUSH2 0x10EF JUMP JUMPDEST PUSH2 0x1214 PUSH1 0x60 DUP4 ADD DUP6 PUSH2 0x10EF JUMP JUMPDEST PUSH2 0x1221 PUSH1 0x80 DUP4 ADD DUP5 PUSH2 0x10EF JUMP JUMPDEST SWAP7 SWAP6 POP POP POP POP POP POP JUMP JUMPDEST PUSH2 0x1234 DUP2 PUSH2 0x119C JUMP JUMPDEST DUP2 EQ PUSH2 0x123F JUMPI PUSH1 0x0 DUP1 REVERT JUMPDEST POP JUMP JUMPDEST PUSH1 0x0 DUP2 CALLDATALOAD SWAP1 POP PUSH2 0x1251 DUP2 PUSH2 0x122B JUMP JUMPDEST SWAP3 SWAP2 POP POP JUMP JUMPDEST PUSH1 0x0 PUSH1 0x20 DUP3 DUP5 SUB SLT ISZERO PUSH2 0x126D JUMPI PUSH2 0x126C PUSH2 0x1074 JUMP JUMPDEST JUMPDEST PUSH1 0x0 PUSH2 0x127B DUP5 DUP3 DUP6 ADD PUSH2 0x1242 JUMP JUMPDEST SWAP2 POP POP SWAP3 SWAP2 POP POP JUMP JUMPDEST PUSH1 0x0 PUSH1 0x40 DUP3 ADD SWAP1 POP PUSH2 0x1299 PUSH1 0x0 DUP4 ADD DUP6 PUSH2 0x11AE JUMP JUMPDEST PUSH2 0x12A6 PUSH1 0x20 DUP4 ADD DUP5 PUSH2 0x11AE JUMP JUMPDEST SWAP4 SWAP3 POP POP POP JUMP JUMPDEST PUSH1 0x0 DUP2 MLOAD SWAP1 POP PUSH2 0x12BC DUP2 PUSH2 0x1083 JUMP JUMPDEST SWAP3 SWAP2 POP POP JUMP JUMPDEST PUSH1 0x0 PUSH1 0x20 DUP3 DUP5 SUB SLT ISZERO PUSH2 0x12D8 JUMPI PUSH2 0x12D7 PUSH2 0x1074 JUMP JUMPDEST JUMPDEST PUSH1 0x0 PUSH2 0x12E6 DUP5 DUP3 DUP6 ADD PUSH2 0x12AD JUMP JUMPDEST SWAP2 POP POP SWAP3 SWAP2 POP POP JUMP JUMPDEST PUSH1 0x0 DUP3 DUP3 MSTORE PUSH1 0x20 DUP3 ADD SWAP1 POP SWAP3 SWAP2 POP POP JUMP JUMPDEST PUSH32 0x706C6561736520696E63726561736520616C6C6F77616E636500000000000000 PUSH1 0x0 DUP3 ADD MSTORE POP JUMP JUMPDEST PUSH1 0x0 PUSH2 0x1336 PUSH1 0x19 DUP4 PUSH2 0x12EF JUMP JUMPDEST SWAP2 POP PUSH2 0x1341 DUP3 PUSH2 0x1300 JUMP JUMPDEST PUSH1 0x20 DUP3 ADD SWAP1 POP SWAP2 SWAP1 POP JUMP JUMPDEST PUSH1 0x0 PUSH1 0x20 DUP3 ADD SWAP1 POP DUP2 DUP2 SUB PUSH1 0x0 DUP4 ADD MSTORE PUSH2 0x1365 DUP2 PUSH2 0x1329 JUMP JUMPDEST SWAP1 POP SWAP2 SWAP1 POP JUMP JUMPDEST PUSH1 0x0 PUSH1 0x60 DUP3 ADD SWAP1 POP PUSH2 0x1381 PUSH1 0x0 DUP4 ADD DUP7 PUSH2 0x11AE JUMP JUMPDEST PUSH2 0x138E PUSH1 0x20 DUP4 ADD DUP6 PUSH2 0x11AE JUMP JUMPDEST PUSH2 0x139B PUSH1 0x40 DUP4 ADD DUP5 PUSH2 0x10EF JUMP JUMPDEST SWAP5 SWAP4 POP POP POP POP JUMP JUMPDEST PUSH2 0x13AC DUP2 PUSH2 0x1146 JUMP JUMPDEST DUP2 EQ PUSH2 0x13B7 JUMPI PUSH1 0x0 DUP1 REVERT JUMPDEST POP JUMP JUMPDEST PUSH1 0x0 DUP2 MLOAD SWAP1 POP PUSH2 0x13C9 DUP2 PUSH2 0x13A3 JUMP JUMPDEST SWAP3 SWAP2 POP POP JUMP JUMPDEST PUSH1 0x0 PUSH1 0x20 DUP3 DUP5 SUB SLT ISZERO PUSH2 0x13E5 JUMPI PUSH2 0x13E4 PUSH2 0x1074 JUMP JUMPDEST JUMPDEST PUSH1 0x0 PUSH2 0x13F3 DUP5 DUP3 DUP6 ADD PUSH2 0x13BA JUMP JUMPDEST SWAP2 POP POP SWAP3 SWAP2 POP POP JUMP JUMPDEST PUSH1 0x0 PUSH1 0x40 DUP3 ADD SWAP1 POP PUSH2 0x1411 PUSH1 0x0 DUP4 ADD DUP6 PUSH2 0x11AE JUMP JUMPDEST PUSH2 0x141E PUSH1 0x20 DUP4 ADD DUP5 PUSH2 0x10EF JUMP JUMPDEST SWAP4 SWAP3 POP POP POP JUMP JUMPDEST PUSH32 0x63757272656E746C792069636F20697320636C6F736564000000000000000000 PUSH1 0x0 DUP3 ADD MSTORE POP JUMP JUMPDEST PUSH1 0x0 PUSH2 0x145B PUSH1 0x17 DUP4 PUSH2 0x12EF JUMP JUMPDEST SWAP2 POP PUSH2 0x1466 DUP3 PUSH2 0x1425 JUMP JUMPDEST PUSH1 0x20 DUP3 ADD SWAP1 POP SWAP2 SWAP1 POP JUMP JUMPDEST PUSH1 0x0 PUSH1 0x20 DUP3 ADD SWAP1 POP DUP2 DUP2 SUB PUSH1 0x0 DUP4 ADD MSTORE PUSH2 0x148A DUP2 PUSH2 0x144E JUMP JUMPDEST SWAP1 POP SWAP2 SWAP1 POP JUMP JUMPDEST PUSH32 0x7761697420666F722069636F20746F206F70656E757000000000000000000000 PUSH1 0x0 DUP3 ADD MSTORE POP JUMP JUMPDEST PUSH1 0x0 PUSH2 0x14C7 PUSH1 0x16 DUP4 PUSH2 0x12EF JUMP JUMPDEST SWAP2 POP PUSH2 0x14D2 DUP3 PUSH2 0x1491 JUMP JUMPDEST PUSH1 0x20 DUP3 ADD SWAP1 POP SWAP2 SWAP1 POP JUMP JUMPDEST PUSH1 0x0 PUSH1 0x20 DUP3 ADD SWAP1 POP DUP2 DUP2 SUB PUSH1 0x0 DUP4 ADD MSTORE PUSH2 0x14F6 DUP2 PUSH2 0x14BA JUMP JUMPDEST SWAP1 POP SWAP2 SWAP1 POP JUMP JUMPDEST PUSH32 0x4E487B7100000000000000000000000000000000000000000000000000000000 PUSH1 0x0 MSTORE PUSH1 0x11 PUSH1 0x4 MSTORE PUSH1 0x24 PUSH1 0x0 REVERT JUMPDEST PUSH1 0x0 PUSH2 0x1537 DUP3 PUSH2 0x1079 JUMP JUMPDEST SWAP2 POP PUSH32 0xFFFFFFFFFFFFFFFFFFFFFFFFFFFFFFFFFFFFFFFFFFFFFFFFFFFFFFFFFFFFFFFF DUP3 SUB PUSH2 0x1569 JUMPI PUSH2 0x1568 PUSH2 0x14FD JUMP JUMPDEST JUMPDEST PUSH1 0x1 DUP3 ADD SWAP1 POP SWAP2 SWAP1 POP JUMP JUMPDEST PUSH32 0x69636F206973206F766572000000000000000000000000000000000000000000 PUSH1 0x0 DUP3 ADD MSTORE POP JUMP JUMPDEST PUSH1 0x0 PUSH2 0x15AA PUSH1 0xB DUP4 PUSH2 0x12EF JUMP JUMPDEST SWAP2 POP PUSH2 0x15B5 DUP3 PUSH2 0x1574 JUMP JUMPDEST PUSH1 0x20 DUP3 ADD SWAP1 POP SWAP2 SWAP1 POP JUMP JUMPDEST PUSH1 0x0 PUSH1 0x20 DUP3 ADD SWAP1 POP DUP2 DUP2 SUB PUSH1 0x0 DUP4 ADD MSTORE PUSH2 0x15D9 DUP2 PUSH2 0x159D JUMP JUMPDEST SWAP1 POP SWAP2 SWAP1 POP JUMP JUMPDEST PUSH1 0x0 PUSH2 0x15EB DUP3 PUSH2 0x1079 JUMP JUMPDEST SWAP2 POP PUSH2 0x15F6 DUP4 PUSH2 0x1079 JUMP JUMPDEST SWAP3 POP DUP3 DUP3 SUB SWAP1 POP DUP2 DUP2 GT ISZERO PUSH2 0x160E JUMPI PUSH2 0x160D PUSH2 0x14FD JUMP JUMPDEST JUMPDEST SWAP3 SWAP2 POP POP JUMP JUMPDEST PUSH1 0x0 PUSH2 0x161F DUP3 PUSH2 0x1079 JUMP JUMPDEST SWAP2 POP PUSH2 0x162A DUP4 PUSH2 0x1079 JUMP JUMPDEST SWAP3 POP DUP3 DUP3 MUL PUSH2 0x1638 DUP2 PUSH2 0x1079 JUMP JUMPDEST SWAP2 POP DUP3 DUP3 DIV DUP5 EQ DUP4 ISZERO OR PUSH2 0x164F JUMPI PUSH2 0x164E PUSH2 0x14FD JUMP JUMPDEST JUMPDEST POP SWAP3 SWAP2 POP POP JUMP JUMPDEST PUSH32 0x4E487B7100000000000000000000000000000000000000000000000000000000 PUSH1 0x0 MSTORE PUSH1 0x12 PUSH1 0x4 MSTORE PUSH1 0x24 PUSH1 0x0 REVERT JUMPDEST PUSH1 0x0 PUSH2 0x1690 DUP3 PUSH2 0x1079 JUMP JUMPDEST SWAP2 POP PUSH2 0x169B DUP4 PUSH2 0x1079 JUMP JUMPDEST SWAP3 POP DUP3 PUSH2 0x16AB JUMPI PUSH2 0x16AA PUSH2 0x1656 JUMP JUMPDEST JUMPDEST DUP3 DUP3 DIV SWAP1 POP SWAP3 SWAP2 POP POP JUMP JUMPDEST PUSH32 0x4F776E61626C653A206E6577206F776E657220697320746865207A65726F2061 PUSH1 0x0 DUP3 ADD MSTORE PUSH32 0x6464726573730000000000000000000000000000000000000000000000000000 PUSH1 0x20 DUP3 ADD MSTORE POP JUMP JUMPDEST PUSH1 0x0 PUSH2 0x1712 PUSH1 0x26 DUP4 PUSH2 0x12EF JUMP JUMPDEST SWAP2 POP PUSH2 0x171D DUP3 PUSH2 0x16B6 JUMP JUMPDEST PUSH1 0x40 DUP3 ADD SWAP1 POP SWAP2 SWAP1 POP JUMP JUMPDEST PUSH1 0x0 PUSH1 0x20 DUP3 ADD SWAP1 POP DUP2 DUP2 SUB PUSH1 0x0 DUP4 ADD MSTORE PUSH2 0x1741 DUP2 PUSH2 0x1705 JUMP JUMPDEST SWAP1 POP SWAP2 SWAP1 POP JUMP JUMPDEST PUSH1 0x0 PUSH2 0x1753 DUP3 PUSH2 0x1079 JUMP JUMPDEST SWAP2 POP PUSH2 0x175E DUP4 PUSH2 0x1079 JUMP JUMPDEST SWAP3 POP DUP3 DUP3 ADD SWAP1 POP DUP1 DUP3 GT ISZERO PUSH2 0x1776 JUMPI PUSH2 0x1775 PUSH2 0x14FD JUMP JUMPDEST JUMPDEST SWAP3 SWAP2 POP POP JUMP JUMPDEST PUSH1 0x0 PUSH1 0x60 DUP3 ADD SWAP1 POP PUSH2 0x1791 PUSH1 0x0 DUP4 ADD DUP7 PUSH2 0x10EF JUMP JUMPDEST PUSH2 0x179E PUSH1 0x20 DUP4 ADD DUP6 PUSH2 0x10EF JUMP JUMPDEST PUSH2 0x17AB PUSH1 0x40 DUP4 ADD DUP5 PUSH2 0x10EF JUMP JUMPDEST SWAP5 SWAP4 POP POP POP POP JUMP JUMPDEST PUSH32 0x4F776E61626C653A2063616C6C6572206973206E6F7420746865206F776E6572 PUSH1 0x0 DUP3 ADD MSTORE POP JUMP JUMPDEST PUSH1 0x0 PUSH2 0x17E9 PUSH1 0x20 DUP4 PUSH2 0x12EF JUMP JUMPDEST SWAP2 POP PUSH2 0x17F4 DUP3 PUSH2 0x17B3 JUMP JUMPDEST PUSH1 0x20 DUP3 ADD SWAP1 POP SWAP2 SWAP1 POP JUMP JUMPDEST PUSH1 0x0 PUSH1 0x20 DUP3 ADD SWAP1 POP DUP2 DUP2 SUB PUSH1 0x0 DUP4 ADD MSTORE PUSH2 0x1818 DUP2 PUSH2 0x17DC JUMP JUMPDEST SWAP1 POP SWAP2 SWAP1 POP JUMP JUMPDEST PUSH1 0x0 DUP2 MLOAD SWAP1 POP SWAP2 SWAP1 POP JUMP JUMPDEST PUSH1 0x0 JUMPDEST DUP4 DUP2 LT ISZERO PUSH2 0x1848 JUMPI DUP1 DUP3 ADD MLOAD DUP2 DUP5 ADD MSTORE PUSH1 0x20 DUP2 ADD SWAP1 POP PUSH2 0x182D JUMP JUMPDEST PUSH1 0x0 DUP5 DUP5 ADD MSTORE POP POP POP POP JUMP JUMPDEST PUSH1 0x0 PUSH1 0x1F NOT PUSH1 0x1F DUP4 ADD AND SWAP1 POP SWAP2 SWAP1 POP JUMP JUMPDEST PUSH1 0x0 PUSH2 0x1870 DUP3 PUSH2 0x181F JUMP JUMPDEST PUSH2 0x187A DUP2 DUP6 PUSH2 0x12EF JUMP JUMPDEST SWAP4 POP PUSH2 0x188A DUP2 DUP6 PUSH1 0x20 DUP7 ADD PUSH2 0x182A JUMP JUMPDEST PUSH2 0x1893 DUP2 PUSH2 0x1854 JUMP JUMPDEST DUP5 ADD SWAP2 POP POP SWAP3 SWAP2 POP POP JUMP JUMPDEST PUSH1 0x0 PUSH1 0x40 DUP3 ADD SWAP1 POP DUP2 DUP2 SUB PUSH1 0x0 DUP4 ADD MSTORE PUSH2 0x18B8 DUP2 DUP6 PUSH2 0x1865 JUMP JUMPDEST SWAP1 POP PUSH2 0x18C7 PUSH1 0x20 DUP4 ADD DUP5 PUSH2 0x10EF JUMP JUMPDEST SWAP4 SWAP3 POP POP POP JUMP JUMPDEST PUSH32 0x4E487B7100000000000000000000000000000000000000000000000000000000 PUSH1 0x0 MSTORE PUSH1 0x51 PUSH1 0x4 MSTORE PUSH1 0x24 PUSH1 0x0 REVERT INVALID LOG2 PUSH5 0x6970667358 0x22 SLT KECCAK256 JUMPDEST PUSH5 0x9E00813F33 0xD1 DUP10 DUP12 PUSH8 0xB3231450189B7221 0xFB 0xDD 0xAF 0xD1 PUSH17 0x14A8C1DC6CF5102C64736F6C6343000813 STOP CALLER "},"methodIdentifiers":{"_maxPhase()":"e9e21000","buytokens(uint256)":"5ed1ca85","convertToAmount(uint256,uint256)":"7b80d25e","covertToTokens(uint256,uint256)":"6b89c2c9","currPhase()":"3cc89380","estimateTokens(uint256)":"ea6be96f","getCurrtime()":"d93a4e89","myPhases(uint256)":"c729029d","owner()":"8da5cb5b","pause()":"8456cb59","pause_unpause()":"9d325ce8","renounceOwnership()":"715018a6","transfer(uint256,uint256)":"0cf79e0a","transferOwnership(address)":"f2fde38b"}}}}}