{
  "_format": "hh-sol-artifact-1",
  "contractName": "Crowdfund",
  "sourceName": "contracts/crowdfund.sol",
  "abi": [
    {
      "inputs": [
        {
          "internalType": "address",
          "name": "_tokenA",
          "type": "address"
        },
        {
          "internalType": "address",
          "name": "_tokenB",
          "type": "address"
        }
      ],
      "stateMutability": "nonpayable",
      "type": "constructor"
    },
    {
      "inputs": [
        {
          "internalType": "uint256",
          "name": "_crowdFundNo",
          "type": "uint256"
        }
      ],
      "name": "contribute",
      "outputs": [],
      "stateMutability": "nonpayable",
      "type": "function"
    },
    {
      "inputs": [
        {
          "internalType": "uint256",
          "name": "_amount",
          "type": "uint256"
        },
        {
          "internalType": "uint256",
          "name": "_maxDonars",
          "type": "uint256"
        }
      ],
      "name": "createCrowdFund",
      "outputs": [],
      "stateMutability": "nonpayable",
      "type": "function"
    },
    {
      "inputs": [
        {
          "internalType": "uint256",
          "name": "",
          "type": "uint256"
        }
      ],
      "name": "crowdFundLogs",
      "outputs": [
        {
          "internalType": "uint256",
          "name": "timestamp",
          "type": "uint256"
        },
        {
          "internalType": "address",
          "name": "creator",
          "type": "address"
        },
        {
          "internalType": "uint256",
          "name": "amountOfCrowdfund",
          "type": "uint256"
        },
        {
          "internalType": "uint256",
          "name": "maxDonars",
          "type": "uint256"
        },
        {
          "internalType": "uint256",
          "name": "raisedAmount",
          "type": "uint256"
        },
        {
          "internalType": "uint256",
          "name": "donarsRedeemed",
          "type": "uint256"
        },
        {
          "internalType": "uint256",
          "name": "amountRedeemed",
          "type": "uint256"
        }
      ],
      "stateMutability": "view",
      "type": "function"
    },
    {
      "inputs": [],
      "name": "crowdFundNo",
      "outputs": [
        {
          "internalType": "uint256",
          "name": "",
          "type": "uint256"
        }
      ],
      "stateMutability": "view",
      "type": "function"
    },
    {
      "inputs": [],
      "name": "crowdfundTime",
      "outputs": [
        {
          "internalType": "uint256",
          "name": "",
          "type": "uint256"
        }
      ],
      "stateMutability": "view",
      "type": "function"
    },
    {
      "inputs": [
        {
          "internalType": "uint256",
          "name": "crowdfundNo",
          "type": "uint256"
        }
      ],
      "name": "getDonationlogs",
      "outputs": [
        {
          "internalType": "uint256",
          "name": "",
          "type": "uint256"
        }
      ],
      "stateMutability": "view",
      "type": "function"
    },
    {
      "inputs": [
        {
          "internalType": "uint256",
          "name": "crowdfundNo",
          "type": "uint256"
        }
      ],
      "name": "getcrowdfundLogs1",
      "outputs": [
        {
          "internalType": "uint256",
          "name": "",
          "type": "uint256"
        }
      ],
      "stateMutability": "view",
      "type": "function"
    },
    {
      "inputs": [
        {
          "internalType": "uint256",
          "name": "crowdfundNo",
          "type": "uint256"
        }
      ],
      "name": "getcrowdfundLogs2",
      "outputs": [
        {
          "internalType": "uint256",
          "name": "",
          "type": "uint256"
        }
      ],
      "stateMutability": "view",
      "type": "function"
    },
    {
      "inputs": [
        {
          "internalType": "uint256",
          "name": "crowdfundNo",
          "type": "uint256"
        }
      ],
      "name": "getcrowdfundLogs3",
      "outputs": [
        {
          "internalType": "uint256",
          "name": "",
          "type": "uint256"
        }
      ],
      "stateMutability": "view",
      "type": "function"
    },
    {
      "inputs": [
        {
          "internalType": "uint256",
          "name": "crowdfundNo",
          "type": "uint256"
        }
      ],
      "name": "getcrowdfundLogs4",
      "outputs": [
        {
          "internalType": "uint256",
          "name": "",
          "type": "uint256"
        }
      ],
      "stateMutability": "view",
      "type": "function"
    },
    {
      "inputs": [
        {
          "internalType": "uint256",
          "name": "crowdfundNo",
          "type": "uint256"
        }
      ],
      "name": "getcrowdfundLogs5",
      "outputs": [
        {
          "internalType": "uint256",
          "name": "",
          "type": "uint256"
        }
      ],
      "stateMutability": "view",
      "type": "function"
    },
    {
      "inputs": [
        {
          "internalType": "uint256",
          "name": "crowdfundNo",
          "type": "uint256"
        }
      ],
      "name": "getcrowdfundLogs6",
      "outputs": [
        {
          "internalType": "uint256",
          "name": "",
          "type": "uint256"
        }
      ],
      "stateMutability": "view",
      "type": "function"
    },
    {
      "inputs": [],
      "name": "getstakingLogs1",
      "outputs": [
        {
          "internalType": "uint256",
          "name": "",
          "type": "uint256"
        }
      ],
      "stateMutability": "view",
      "type": "function"
    },
    {
      "inputs": [],
      "name": "getstakingLogs2",
      "outputs": [
        {
          "internalType": "uint256",
          "name": "",
          "type": "uint256"
        }
      ],
      "stateMutability": "view",
      "type": "function"
    },
    {
      "inputs": [],
      "name": "maxLimit",
      "outputs": [
        {
          "internalType": "uint256",
          "name": "",
          "type": "uint256"
        }
      ],
      "stateMutability": "view",
      "type": "function"
    },
    {
      "inputs": [
        {
          "internalType": "bool",
          "name": "wantToStake",
          "type": "bool"
        },
        {
          "internalType": "uint256",
          "name": "_crowdFundNo",
          "type": "uint256"
        }
      ],
      "name": "redeemReward",
      "outputs": [],
      "stateMutability": "nonpayable",
      "type": "function"
    },
    {
      "inputs": [
        {
          "internalType": "uint256",
          "name": "amount",
          "type": "uint256"
        }
      ],
      "name": "stake",
      "outputs": [],
      "stateMutability": "nonpayable",
      "type": "function"
    },
    {
      "inputs": [
        {
          "internalType": "address",
          "name": "",
          "type": "address"
        }
      ],
      "name": "stakingLogs",
      "outputs": [
        {
          "internalType": "uint256",
          "name": "amountStaked",
          "type": "uint256"
        },
        {
          "internalType": "uint256",
          "name": "amountAvailableForFundcreation",
          "type": "uint256"
        }
      ],
      "stateMutability": "view",
      "type": "function"
    },
    {
      "inputs": [
        {
          "internalType": "uint256",
          "name": "amount",
          "type": "uint256"
        }
      ],
      "name": "unstake",
      "outputs": [],
      "stateMutability": "nonpayable",
      "type": "function"
    }
  ],
  "bytecode": "0x60806040526103e86003556001600455600a6005553480156200002157600080fd5b506040516200242c3803806200242c83398181016040528101906200004791906200013b565b81600660006101000a81548173ffffffffffffffffffffffffffffffffffffffff021916908373ffffffffffffffffffffffffffffffffffffffff16021790555080600760006101000a81548173ffffffffffffffffffffffffffffffffffffffff021916908373ffffffffffffffffffffffffffffffffffffffff160217905550505062000182565b600080fd5b600073ffffffffffffffffffffffffffffffffffffffff82169050919050565b60006200010382620000d6565b9050919050565b6200011581620000f6565b81146200012157600080fd5b50565b60008151905062000135816200010a565b92915050565b60008060408385031215620001555762000154620000d1565b5b6000620001658582860162000124565b9250506020620001788582860162000124565b9150509250929050565b61229a80620001926000396000f3fe608060405234801561001057600080fd5b50600436106101215760003560e01c8063677e5b29116100ad578063c1cbbca711610071578063c1cbbca714610347578063c3420a3414610363578063de69a36e14610393578063e15c8dab146103c3578063fdace538146103e157610121565b8063677e5b291461028b57806367e57a45146102c15780638a7c849e146102dd578063a694fc3a146102fb578063b7539fdb1461031757610121565b80632e17de78116100f45780632e17de78146101c257806331a65255146101de57806347f090851461020e5780634ffc52361461023f5780635e816d5c1461025b57610121565b80630e6940a51461012657806313849582146101445780631a861d26146101745780631be3da8514610192575b600080fd5b61012e6103ff565b60405161013b9190611883565b60405180910390f35b61015e600480360381019061015991906118cf565b610405565b60405161016b9190611883565b60405180910390f35b61017c610425565b6040516101899190611883565b60405180910390f35b6101ac60048036038101906101a791906118cf565b61042b565b6040516101b99190611883565b60405180910390f35b6101dc60048036038101906101d791906118cf565b610485565b005b6101f860048036038101906101f391906118cf565b6106e5565b6040516102059190611883565b60405180910390f35b6102286004803603810190610223919061195a565b610705565b604051610236929190611987565b60405180910390f35b610259600480360381019061025491906119e8565b610729565b005b610275600480360381019061027091906118cf565b610d85565b6040516102829190611883565b60405180910390f35b6102a560048036038101906102a091906118cf565b610da5565b6040516102b89796959493929190611a37565b60405180910390f35b6102db60048036038101906102d69190611aa6565b610e07565b005b6102e561106d565b6040516102f29190611883565b60405180910390f35b610315600480360381019061031091906118cf565b6110b6565b005b610331600480360381019061032c91906118cf565b611165565b60405161033e9190611883565b60405180910390f35b610361600480360381019061035c91906118cf565b611185565b005b61037d600480360381019061037891906118cf565b61167e565b60405161038a9190611883565b60405180910390f35b6103ad60048036038101906103a891906118cf565b61169e565b6040516103ba9190611883565b60405180910390f35b6103cb6116c1565b6040516103d89190611883565b60405180910390f35b6103e96116c7565b6040516103f69190611883565b60405180910390f35b60035481565b600060016000838152602001908152602001600020600701549050919050565b60055481565b6000600260003373ffffffffffffffffffffffffffffffffffffffff1673ffffffffffffffffffffffffffffffffffffffff1681526020019081526020016000206000838152602001908152602001600020549050919050565b6000803373ffffffffffffffffffffffffffffffffffffffff1673ffffffffffffffffffffffffffffffffffffffff16815260200190815260200160002060000154811115610509576040517f08c379a000000000000000000000000000000000000000000000000000000000815260040161050090611b69565b60405180910390fd5b6000803373ffffffffffffffffffffffffffffffffffffffff1673ffffffffffffffffffffffffffffffffffffffff1681526020019081526020016000206001015481116106a757806000803373ffffffffffffffffffffffffffffffffffffffff1673ffffffffffffffffffffffffffffffffffffffff16815260200190815260200160002060010160008282546105a29190611bb8565b92505081905550806000803373ffffffffffffffffffffffffffffffffffffffff1673ffffffffffffffffffffffffffffffffffffffff16815260200190815260200160002060000160008282546105fa9190611bb8565b92505081905550600660009054906101000a900473ffffffffffffffffffffffffffffffffffffffff1673ffffffffffffffffffffffffffffffffffffffff1663a9059cbb33836040518363ffffffff1660e01b815260040161065e929190611bec565b6020604051808303816000875af115801561067d573d6000803e3d6000fd5b505050506040513d601f19601f820116820180604052508101906106a19190611c2a565b506106e2565b6040517f08c379a00000000000000000000000000000000000000000000000000000000081526004016106d990611cc9565b60405180910390fd5b50565b600060016000838152602001908152602001600020600601549050919050565b60006020528060005260406000206000915090508060000154908060010154905082565b600454811061076d576040517f08c379a000000000000000000000000000000000000000000000000000000000815260040161076490611d35565b60405180910390fd5b60006001600083815260200190815260200160002060405180610100016040529081600082015481526020016001820160009054906101000a900473ffffffffffffffffffffffffffffffffffffffff1673ffffffffffffffffffffffffffffffffffffffff1673ffffffffffffffffffffffffffffffffffffffff168152602001600282015481526020016003820180548060200260200160405190810160405280929190818152602001828054801561087d57602002820191906000526020600020905b8160009054906101000a900473ffffffffffffffffffffffffffffffffffffffff1673ffffffffffffffffffffffffffffffffffffffff1681526020019060010190808311610833575b5050505050815260200160048201548152602001600582015481526020016006820154815260200160078201548152505090506000600260003373ffffffffffffffffffffffffffffffffffffffff1673ffffffffffffffffffffffffffffffffffffffff16815260200190815260200160002060008481526020019081526020016000205403610943576040517f08c379a000000000000000000000000000000000000000000000000000000000815260040161093a90611ded565b60405180910390fd5b806080015181606001515103610ba2576000600182608001516109669190611bb8565b8260c0015103610998578160e0015160055483604001516109879190611e3c565b6109919190611bb8565b90506109bc565b81608001516005546109aa9190611e6d565b82604001516109b99190611e3c565b90505b83156109d0576109cb81611710565b610a72565b600660009054906101000a900473ffffffffffffffffffffffffffffffffffffffff1673ffffffffffffffffffffffffffffffffffffffff1663a9059cbb33836040518363ffffffff1660e01b8152600401610a2d929190611bec565b6020604051808303816000875af1158015610a4c573d6000803e3d6000fd5b505050506040513d601f19601f82011682018060405250810190610a709190611c2a565b505b6000600260003373ffffffffffffffffffffffffffffffffffffffff1673ffffffffffffffffffffffffffffffffffffffff16815260200190815260200160002060008581526020019081526020016000208190555060008260c0015103610b42576005548260400151610ae69190611e3c565b600080846020015173ffffffffffffffffffffffffffffffffffffffff1673ffffffffffffffffffffffffffffffffffffffff1681526020019081526020016000206001016000828254610b3a9190611eaf565b925050819055505b60018060008581526020019081526020016000206006016000828254610b689190611eaf565b9250508190555080600160008581526020019081526020016000206007016000828254610b959190611eaf565b9250508190555050610d80565b600354816000015142610bb59190611bb8565b1115610d44576000600260003373ffffffffffffffffffffffffffffffffffffffff1673ffffffffffffffffffffffffffffffffffffffff168152602001908152602001600020600084815260200190815260200160002081905550600760009054906101000a900473ffffffffffffffffffffffffffffffffffffffff1673ffffffffffffffffffffffffffffffffffffffff1663a9059cbb3383608001518460400151610c649190611e3c565b6040518363ffffffff1660e01b8152600401610c81929190611bec565b6020604051808303816000875af1158015610ca0573d6000803e3d6000fd5b505050506040513d601f19601f82011682018060405250810190610cc49190611c2a565b5060008160c0015103610d3f576005548160400151610ce39190611e3c565b600080836020015173ffffffffffffffffffffffffffffffffffffffff1673ffffffffffffffffffffffffffffffffffffffff1681526020019081526020016000206001016000828254610d379190611eaf565b925050819055505b610d7f565b6040517f08c379a0000000000000000000000000000000000000000000000000000000008152600401610d7690611f55565b60405180910390fd5b5b505050565b600060016000838152602001908152602001600020600501549050919050565b60016020528060005260406000206000915090508060000154908060010160009054906101000a900473ffffffffffffffffffffffffffffffffffffffff16908060020154908060040154908060050154908060060154908060070154905087565b6005546000803373ffffffffffffffffffffffffffffffffffffffff1673ffffffffffffffffffffffffffffffffffffffff16815260200190815260200160002060010154610e569190611e6d565b821115610e98576040517f08c379a0000000000000000000000000000000000000000000000000000000008152600401610e8f90611fe7565b60405180910390fd5b6040518061010001604052804281526020013373ffffffffffffffffffffffffffffffffffffffff168152602001838152602001600067ffffffffffffffff811115610ee757610ee6612007565b5b604051908082528060200260200182016040528015610f155781602001602082028036833780820191505090505b508152602001828152602001600081526020016000815260200160008152506001600060045481526020019081526020016000206000820151816000015560208201518160010160006101000a81548173ffffffffffffffffffffffffffffffffffffffff021916908373ffffffffffffffffffffffffffffffffffffffff160217905550604082015181600201556060820151816003019080519060200190610fc09291906117c3565b506080820151816004015560a0820151816005015560c0820151816006015560e0820151816007015590505060055482610ffa9190611e3c565b6000803373ffffffffffffffffffffffffffffffffffffffff1673ffffffffffffffffffffffffffffffffffffffff168152602001908152602001600020600101600082825461104a9190611bb8565b925050819055506004600081548092919061106490612036565b91905055505050565b60008060003373ffffffffffffffffffffffffffffffffffffffff1673ffffffffffffffffffffffffffffffffffffffff16815260200190815260200160002060000154905090565b6110bf81611710565b600660009054906101000a900473ffffffffffffffffffffffffffffffffffffffff1673ffffffffffffffffffffffffffffffffffffffff166323b872dd3330846040518463ffffffff1660e01b815260040161111e9392919061207e565b6020604051808303816000875af115801561113d573d6000803e3d6000fd5b505050506040513d601f19601f820116820180604052508101906111619190611c2a565b5050565b600060016000838152602001908152602001600020600401549050919050565b60045481106111c9576040517f08c379a00000000000000000000000000000000000000000000000000000000081526004016111c090611d35565b60405180910390fd5b60006001600083815260200190815260200160002060405180610100016040529081600082015481526020016001820160009054906101000a900473ffffffffffffffffffffffffffffffffffffffff1673ffffffffffffffffffffffffffffffffffffffff1673ffffffffffffffffffffffffffffffffffffffff16815260200160028201548152602001600382018054806020026020016040519081016040528092919081815260200182805480156112d957602002820191906000526020600020905b8160009054906101000a900473ffffffffffffffffffffffffffffffffffffffff1673ffffffffffffffffffffffffffffffffffffffff168152602001906001019080831161128f575b50505050508152602001600482015481526020016005820154815260200160068201548152602001600782015481525050905060035481600001514261131f9190611bb8565b1115611360576040517f08c379a000000000000000000000000000000000000000000000000000000000815260040161135790612101565b60405180910390fd5b8060800151816060015151106113ab576040517f08c379a00000000000000000000000000000000000000000000000000000000081526004016113a29061216d565b60405180910390fd5b6000600182608001516113be9190611bb8565b826060015151036113e4578160a0015182604001516113dd9190611bb8565b90506113fb565b816080015182604001516113f89190611e3c565b90505b80600760009054906101000a900473ffffffffffffffffffffffffffffffffffffffff1673ffffffffffffffffffffffffffffffffffffffff1663dd62ed3e33306040518363ffffffff1660e01b815260040161145992919061218d565b6020604051808303816000875af1158015611478573d6000803e3d6000fd5b505050506040513d601f19601f8201168201806040525081019061149c91906121cb565b10156114dd576040517f08c379a00000000000000000000000000000000000000000000000000000000081526004016114d490612244565b60405180910390fd5b60016000848152602001908152602001600020600301339080600181540180825580915050600190039060005260206000200160009091909190916101000a81548173ffffffffffffffffffffffffffffffffffffffff021916908373ffffffffffffffffffffffffffffffffffffffff1602179055508060016000858152602001908152602001600020600501600082825461157a9190611eaf565b9250508190555080600260003373ffffffffffffffffffffffffffffffffffffffff1673ffffffffffffffffffffffffffffffffffffffff168152602001908152602001600020600085815260200190815260200160002081905550600760009054906101000a900473ffffffffffffffffffffffffffffffffffffffff1673ffffffffffffffffffffffffffffffffffffffff166323b872dd3330846040518463ffffffff1660e01b81526004016116359392919061207e565b6020604051808303816000875af1158015611654573d6000803e3d6000fd5b505050506040513d601f19601f820116820180604052508101906116789190611c2a565b50505050565b600060016000838152602001908152602001600020600201549050919050565b600060016000838152602001908152602001600020600301805490509050919050565b60045481565b60008060003373ffffffffffffffffffffffffffffffffffffffff1673ffffffffffffffffffffffffffffffffffffffff16815260200190815260200160002060010154905090565b806000803373ffffffffffffffffffffffffffffffffffffffff1673ffffffffffffffffffffffffffffffffffffffff16815260200190815260200160002060000160008282546117619190611eaf565b92505081905550806000803373ffffffffffffffffffffffffffffffffffffffff1673ffffffffffffffffffffffffffffffffffffffff16815260200190815260200160002060010160008282546117b99190611eaf565b9250508190555050565b82805482825590600052602060002090810192821561183c579160200282015b8281111561183b5782518260006101000a81548173ffffffffffffffffffffffffffffffffffffffff021916908373ffffffffffffffffffffffffffffffffffffffff160217905550916020019190600101906117e3565b5b509050611849919061184d565b5090565b5b8082111561186657600081600090555060010161184e565b5090565b6000819050919050565b61187d8161186a565b82525050565b60006020820190506118986000830184611874565b92915050565b600080fd5b6118ac8161186a565b81146118b757600080fd5b50565b6000813590506118c9816118a3565b92915050565b6000602082840312156118e5576118e461189e565b5b60006118f3848285016118ba565b91505092915050565b600073ffffffffffffffffffffffffffffffffffffffff82169050919050565b6000611927826118fc565b9050919050565b6119378161191c565b811461194257600080fd5b50565b6000813590506119548161192e565b92915050565b6000602082840312156119705761196f61189e565b5b600061197e84828501611945565b91505092915050565b600060408201905061199c6000830185611874565b6119a96020830184611874565b9392505050565b60008115159050919050565b6119c5816119b0565b81146119d057600080fd5b50565b6000813590506119e2816119bc565b92915050565b600080604083850312156119ff576119fe61189e565b5b6000611a0d858286016119d3565b9250506020611a1e858286016118ba565b9150509250929050565b611a318161191c565b82525050565b600060e082019050611a4c600083018a611874565b611a596020830189611a28565b611a666040830188611874565b611a736060830187611874565b611a806080830186611874565b611a8d60a0830185611874565b611a9a60c0830184611874565b98975050505050505050565b60008060408385031215611abd57611abc61189e565b5b6000611acb858286016118ba565b9250506020611adc858286016118ba565b9150509250929050565b600082825260208201905092915050565b7f616d6f756e7420656e7465726564206973206c6172676572207468616e20737460008201527f616b656400000000000000000000000000000000000000000000000000000000602082015250565b6000611b53602483611ae6565b9150611b5e82611af7565b604082019050919050565b60006020820190508181036000830152611b8281611b46565b9050919050565b7f4e487b7100000000000000000000000000000000000000000000000000000000600052601160045260246000fd5b6000611bc38261186a565b9150611bce8361186a565b9250828203905081811115611be657611be5611b89565b5b92915050565b6000604082019050611c016000830185611a28565b611c0e6020830184611874565b9392505050565b600081519050611c24816119bc565b92915050565b600060208284031215611c4057611c3f61189e565b5b6000611c4e84828501611c15565b91505092915050565b7f616d6f756e742061736b6564206973206e6f742073756666696369656e74206160008201527f732063726f776466756e64732061726520616374697665000000000000000000602082015250565b6000611cb3603783611ae6565b9150611cbe82611c57565b604082019050919050565b60006020820190508181036000830152611ce281611ca6565b9050919050565b7f656e74657220612076616c69642063726f776466756e64206e6f000000000000600082015250565b6000611d1f601a83611ae6565b9150611d2a82611ce9565b602082019050919050565b60006020820190508181036000830152611d4e81611d12565b9050919050565b7f65697468657220796f7520686176652072656465656d6564207265776172642060008201527f6f72206e6f7420636f6e747269627574656420746f20746869732063726f776460208201527f66756e6400000000000000000000000000000000000000000000000000000000604082015250565b6000611dd7604483611ae6565b9150611de282611d55565b606082019050919050565b60006020820190508181036000830152611e0681611dca565b9050919050565b7f4e487b7100000000000000000000000000000000000000000000000000000000600052601260045260246000fd5b6000611e478261186a565b9150611e528361186a565b925082611e6257611e61611e0d565b5b828204905092915050565b6000611e788261186a565b9150611e838361186a565b9250828202611e918161186a565b91508282048414831517611ea857611ea7611b89565b5b5092915050565b6000611eba8261186a565b9150611ec58361186a565b9250828201905080821115611edd57611edc611b89565b5b92915050565b7f63757272656e746c792063726f776466756e6420697320676f696e67206f6e2060008201527f20616e642066756e64206973206e6f7420796574207261697365640000000000602082015250565b6000611f3f603b83611ae6565b9150611f4a82611ee3565b604082019050919050565b60006020820190508181036000830152611f6e81611f32565b9050919050565b7f796f7572207374616b696e672066756e647320617265206e6f7420737566666960008201527f6369656e742c706c65617365207374616b65206d6f7265000000000000000000602082015250565b6000611fd1603783611ae6565b9150611fdc82611f75565b604082019050919050565b6000602082019050818103600083015261200081611fc4565b9050919050565b7f4e487b7100000000000000000000000000000000000000000000000000000000600052604160045260246000fd5b60006120418261186a565b91507fffffffffffffffffffffffffffffffffffffffffffffffffffffffffffffffff820361207357612072611b89565b5b600182019050919050565b60006060820190506120936000830186611a28565b6120a06020830185611a28565b6120ad6040830184611874565b949350505050565b7f63726f776466756e64206973206f766572000000000000000000000000000000600082015250565b60006120eb601183611ae6565b91506120f6826120b5565b602082019050919050565b6000602082019050818103600083015261211a816120de565b9050919050565b7f66756e64696e672069732066756c6c0000000000000000000000000000000000600082015250565b6000612157600f83611ae6565b915061216282612121565b602082019050919050565b600060208201905081810360008301526121868161214a565b9050919050565b60006040820190506121a26000830185611a28565b6121af6020830184611a28565b9392505050565b6000815190506121c5816118a3565b92915050565b6000602082840312156121e1576121e061189e565b5b60006121ef848285016121b6565b91505092915050565b7f706c6561736520696e63726561736520616c6c6f77616e636500000000000000600082015250565b600061222e601983611ae6565b9150612239826121f8565b602082019050919050565b6000602082019050818103600083015261225d81612221565b905091905056fea26469706673582212203afca08ce9056b364265d8087f77394c25051ab8ae96d622431a591581a974f964736f6c63430008130033",
  "linkReferences": {},
  "deployedLinkReferences": {}
}