{
  "_format": "hh-sol-artifact-1",
  "contractName": "ICO",
  "sourceName": "contracts/ico.sol",
  "abi": [
    {
      "inputs": [
        {
          "internalType": "address",
          "name": "tokenAddress",
          "type": "address"
        },
        {
          "internalType": "address",
          "name": "usdtadd",
          "type": "address"
        }
      ],
      "stateMutability": "nonpayable",
      "type": "constructor"
    },
    {
      "anonymous": false,
      "inputs": [
        {
          "indexed": false,
          "internalType": "address",
          "name": "buyer",
          "type": "address"
        },
        {
          "indexed": false,
          "internalType": "uint256",
          "name": "noOfTokens",
          "type": "uint256"
        }
      ],
      "name": "IcoTokenpurchased",
      "type": "event"
    },
    {
      "anonymous": false,
      "inputs": [
        {
          "indexed": true,
          "internalType": "address",
          "name": "previousOwner",
          "type": "address"
        },
        {
          "indexed": true,
          "internalType": "address",
          "name": "newOwner",
          "type": "address"
        }
      ],
      "name": "OwnershipTransferred",
      "type": "event"
    },
    {
      "inputs": [],
      "name": "_maxPhase",
      "outputs": [
        {
          "internalType": "uint256",
          "name": "",
          "type": "uint256"
        }
      ],
      "stateMutability": "view",
      "type": "function"
    },
    {
      "inputs": [
        {
          "internalType": "uint256",
          "name": "amount",
          "type": "uint256"
        }
      ],
      "name": "buytokens",
      "outputs": [],
      "stateMutability": "nonpayable",
      "type": "function"
    },
    {
      "inputs": [],
      "name": "claimTokens",
      "outputs": [],
      "stateMutability": "nonpayable",
      "type": "function"
    },
    {
      "inputs": [
        {
          "internalType": "uint256",
          "name": "rate",
          "type": "uint256"
        },
        {
          "internalType": "uint256",
          "name": "phaseNo",
          "type": "uint256"
        }
      ],
      "name": "convertToAmount",
      "outputs": [
        {
          "internalType": "uint256",
          "name": "",
          "type": "uint256"
        }
      ],
      "stateMutability": "view",
      "type": "function"
    },
    {
      "inputs": [
        {
          "internalType": "uint256",
          "name": "amount",
          "type": "uint256"
        },
        {
          "internalType": "uint256",
          "name": "rate",
          "type": "uint256"
        }
      ],
      "name": "covertToTokens",
      "outputs": [
        {
          "internalType": "uint256",
          "name": "",
          "type": "uint256"
        }
      ],
      "stateMutability": "pure",
      "type": "function"
    },
    {
      "inputs": [],
      "name": "currPhase",
      "outputs": [
        {
          "internalType": "uint256",
          "name": "",
          "type": "uint256"
        }
      ],
      "stateMutability": "view",
      "type": "function"
    },
    {
      "inputs": [
        {
          "internalType": "uint256",
          "name": "amount",
          "type": "uint256"
        }
      ],
      "name": "estimateTokens",
      "outputs": [
        {
          "internalType": "uint256",
          "name": "",
          "type": "uint256"
        }
      ],
      "stateMutability": "view",
      "type": "function"
    },
    {
      "inputs": [],
      "name": "getCurrtime",
      "outputs": [
        {
          "internalType": "uint256",
          "name": "",
          "type": "uint256"
        }
      ],
      "stateMutability": "view",
      "type": "function"
    },
    {
      "inputs": [
        {
          "internalType": "uint256",
          "name": "",
          "type": "uint256"
        }
      ],
      "name": "myPhases",
      "outputs": [
        {
          "internalType": "uint256",
          "name": "rate",
          "type": "uint256"
        },
        {
          "internalType": "uint256",
          "name": "limit",
          "type": "uint256"
        },
        {
          "internalType": "uint256",
          "name": "openingTime",
          "type": "uint256"
        },
        {
          "internalType": "uint256",
          "name": "closingTime",
          "type": "uint256"
        },
        {
          "internalType": "uint256",
          "name": "remainingTokens",
          "type": "uint256"
        }
      ],
      "stateMutability": "view",
      "type": "function"
    },
    {
      "inputs": [],
      "name": "owner",
      "outputs": [
        {
          "internalType": "address",
          "name": "",
          "type": "address"
        }
      ],
      "stateMutability": "view",
      "type": "function"
    },
    {
      "inputs": [],
      "name": "pause",
      "outputs": [
        {
          "internalType": "bool",
          "name": "",
          "type": "bool"
        }
      ],
      "stateMutability": "view",
      "type": "function"
    },
    {
      "inputs": [],
      "name": "pause_unpause",
      "outputs": [],
      "stateMutability": "nonpayable",
      "type": "function"
    },
    {
      "inputs": [],
      "name": "renounceOwnership",
      "outputs": [],
      "stateMutability": "nonpayable",
      "type": "function"
    },
    {
      "inputs": [
        {
          "internalType": "uint256",
          "name": "tks",
          "type": "uint256"
        },
        {
          "internalType": "uint256",
          "name": "amount",
          "type": "uint256"
        }
      ],
      "name": "transfer",
      "outputs": [],
      "stateMutability": "nonpayable",
      "type": "function"
    },
    {
      "inputs": [
        {
          "internalType": "address",
          "name": "newOwner",
          "type": "address"
        }
      ],
      "name": "transferOwnership",
      "outputs": [],
      "stateMutability": "nonpayable",
      "type": "function"
    },
    {
      "inputs": [
        {
          "internalType": "address",
          "name": "",
          "type": "address"
        }
      ],
      "name": "userTokens",
      "outputs": [
        {
          "internalType": "uint256",
          "name": "tokensPurchased",
          "type": "uint256"
        },
        {
          "internalType": "uint256",
          "name": "tokensLeft",
          "type": "uint256"
        },
        {
          "internalType": "uint256",
          "name": "partsTaken",
          "type": "uint256"
        }
      ],
      "stateMutability": "view",
      "type": "function"
    }
  ],
  "bytecode": "0x6080604052600180556003600255734b531a318b0e44b549f3b2f824721b3d0d51930a600360006101000a81548173ffffffffffffffffffffffffffffffffffffffff021916908373ffffffffffffffffffffffffffffffffffffffff1602179055503480156200006f57600080fd5b50604051620024ec380380620024ec833981810160405281019062000095919062000459565b620000b5620000a96200032360201b60201c565b6200032b60201b60201c565b6040518060a00160405280600181526020016064815260200142815260200161019042620000e49190620004d9565b81526020016064815250600460006001815260200190815260200160002060008201518160000155602082015181600101556040820151816002015560608201518160030155608082015181600401559050506040518060a001604052806002815260200160c881526020016004600060018152602001908152602001600020600301548152602001610190600460006001815260200190815260200160002060030154620001949190620004d9565b815260200160c8815250600460006002815260200190815260200160002060008201518160000155602082015181600101556040820151816002015560608201518160030155608082015181600401559050506040518060a001604052806005815260200161012c81526020016004600060028152602001908152602001600020600301548152602001610190600460006002815260200190815260200160002060030154620002459190620004d9565b815260200161012c8152506004600060038152602001908152602001600020600082015181600001556020820151816001015560408201518160020155606082015181600301556080820151816004015590505081600660006101000a81548173ffffffffffffffffffffffffffffffffffffffff021916908373ffffffffffffffffffffffffffffffffffffffff16021790555080600760006101000a81548173ffffffffffffffffffffffffffffffffffffffff021916908373ffffffffffffffffffffffffffffffffffffffff160217905550505062000514565b600033905090565b60008060009054906101000a900473ffffffffffffffffffffffffffffffffffffffff169050816000806101000a81548173ffffffffffffffffffffffffffffffffffffffff021916908373ffffffffffffffffffffffffffffffffffffffff1602179055508173ffffffffffffffffffffffffffffffffffffffff168173ffffffffffffffffffffffffffffffffffffffff167f8be0079c531659141344cd1fd0a4f28419497f9722a3daafe3b4186f6b6457e060405160405180910390a35050565b600080fd5b600073ffffffffffffffffffffffffffffffffffffffff82169050919050565b60006200042182620003f4565b9050919050565b620004338162000414565b81146200043f57600080fd5b50565b600081519050620004538162000428565b92915050565b60008060408385031215620004735762000472620003ef565b5b6000620004838582860162000442565b9250506020620004968582860162000442565b9150509250929050565b6000819050919050565b7f4e487b7100000000000000000000000000000000000000000000000000000000600052601160045260246000fd5b6000620004e682620004a0565b9150620004f383620004a0565b92508282019050808211156200050e576200050d620004aa565b5b92915050565b611fc880620005246000396000f3fe608060405234801561001057600080fd5b50600436106101005760003560e01c80638da5cb5b11610097578063e9e2100011610066578063e9e2100014610267578063ea6be96f14610285578063ed498fa8146102b5578063f2fde38b146102e757610100565b80638da5cb5b146101ed5780639d325ce81461020b578063c729029d14610215578063d93a4e891461024957610100565b80636b89c2c9116100d35780636b89c2c914610165578063715018a6146101955780637b80d25e1461019f5780638456cb59146101cf57610100565b80630cf79e0a146101055780633cc893801461012157806348c54b9d1461013f5780635ed1ca8514610149575b600080fd5b61011f600480360381019061011a9190611522565b610303565b005b610129610576565b6040516101369190611571565b60405180910390f35b61014761057c565b005b610163600480360381019061015e919061158c565b610881565b005b61017f600480360381019061017a9190611522565b610a5f565b60405161018c9190611571565b60405180910390f35b61019d610a9e565b005b6101b960048036038101906101b49190611522565b610ab2565b6040516101c69190611571565b60405180910390f35b6101d7610b07565b6040516101e491906115d4565b60405180910390f35b6101f5610b1a565b6040516102029190611630565b60405180910390f35b610213610b43565b005b61022f600480360381019061022a919061158c565b610b77565b60405161024095949392919061164b565b60405180910390f35b610251610bad565b60405161025e9190611571565b60405180910390f35b61026f610bb5565b60405161027c9190611571565b60405180910390f35b61029f600480360381019061029a919061158c565b610bbb565b6040516102ac9190611571565b60405180910390f35b6102cf60048036038101906102ca91906116ca565b610c2a565b6040516102de939291906116f7565b60405180910390f35b61030160048036038101906102fc91906116ca565b610c54565b005b80600760009054906101000a900473ffffffffffffffffffffffffffffffffffffffff1673ffffffffffffffffffffffffffffffffffffffff1663dd62ed3e33306040518363ffffffff1660e01b815260040161036192919061172e565b6020604051808303816000875af1158015610380573d6000803e3d6000fd5b505050506040513d601f19601f820116820180604052508101906103a4919061176c565b10156103e5576040517f08c379a00000000000000000000000000000000000000000000000000000000081526004016103dc906117f6565b60405180910390fd5b600760009054906101000a900473ffffffffffffffffffffffffffffffffffffffff1673ffffffffffffffffffffffffffffffffffffffff166323b872dd3330846040518463ffffffff1660e01b815260040161044493929190611816565b6020604051808303816000875af1158015610463573d6000803e3d6000fd5b505050506040513d601f19601f820116820180604052508101906104879190611879565b5081600560003373ffffffffffffffffffffffffffffffffffffffff1673ffffffffffffffffffffffffffffffffffffffff16815260200190815260200160002060000160008282546104da91906118d5565b9250508190555081600560003373ffffffffffffffffffffffffffffffffffffffff1673ffffffffffffffffffffffffffffffffffffffff168152602001908152602001600020600101600082825461053391906118d5565b925050819055507ecf51cab78618603b70ba6d83208cb163cfaa39d041d7fb33afc5e49970bada338360405161056a929190611909565b60405180910390a15050565b60015481565b60046000600181526020019081526020016000206002015442116105d5576040517f08c379a00000000000000000000000000000000000000000000000000000000081526004016105cc906119a4565b60405180910390fd5b60046000600254815260200190815260200160002060030154421161062f576040517f08c379a000000000000000000000000000000000000000000000000000000000815260040161062690611a36565b60405180910390fd5b601e60046000600254815260200190815260200160002060030154426106559190611a56565b1015610696576040517f08c379a000000000000000000000000000000000000000000000000000000000815260040161068d90611ad6565b60405180910390fd5b6000600560003373ffffffffffffffffffffffffffffffffffffffff1673ffffffffffffffffffffffffffffffffffffffff168152602001908152602001600020600101540361071b576040517f08c379a000000000000000000000000000000000000000000000000000000000815260040161071290611b68565b60405180910390fd5b600080610726610cd7565b9150915080600560003373ffffffffffffffffffffffffffffffffffffffff1673ffffffffffffffffffffffffffffffffffffffff168152602001908152602001600020600201600082825461077c91906118d5565b9250508190555081600560003373ffffffffffffffffffffffffffffffffffffffff1673ffffffffffffffffffffffffffffffffffffffff16815260200190815260200160002060010160008282546107d59190611a56565b92505081905550600660009054906101000a900473ffffffffffffffffffffffffffffffffffffffff1673ffffffffffffffffffffffffffffffffffffffff1663a9059cbb33846040518363ffffffff1660e01b8152600401610839929190611909565b6020604051808303816000875af1158015610858573d6000803e3d6000fd5b505050506040513d601f19601f8201168201806040525081019061087c9190611879565b505050565b6000429050600060149054906101000a900460ff16156108d6576040517f08c379a00000000000000000000000000000000000000000000000000000000081526004016108cd90611bd4565b60405180910390fd5b600460006001815260200190815260200160002060020154811015610930576040517f08c379a000000000000000000000000000000000000000000000000000000000815260040161092790611c40565b60405180910390fd5b6004600060015481526020019081526020016000206003015481106109bc576001600081548092919061096290611c60565b919050555060025460015411156109ae576040517f08c379a00000000000000000000000000000000000000000000000000000000081526004016109a590611cf4565b60405180910390fd5b6109b782610881565b610a5b565b60025460015411610a1f576109cf610dc2565b60008060006109e060015486610e95565b8093508194508295505050506109f78383836110e7565b610a02828483611186565b610a17838287610a129190611a56565b610303565b505050610a5a565b6040517f08c379a0000000000000000000000000000000000000000000000000000000008152600401610a5190611cf4565b60405180910390fd5b5b5050565b600080633b9aca00905060006305f5e10084610a7b9190611d14565b8583610a879190611d14565b610a919190611d85565b9050809250505092915050565b610aa6611297565b610ab06000611315565b565b600080633b9aca0090506000816305f5e100866004600088815260200190815260200160002060040154610ae69190611d14565b610af09190611d14565b610afa9190611d85565b9050809250505092915050565b600060149054906101000a900460ff1681565b60008060009054906101000a900473ffffffffffffffffffffffffffffffffffffffff16905090565b610b4b611297565b600060149054906101000a900460ff1615600060146101000a81548160ff021916908315150217905550565b60046020528060005260406000206000915090508060000154908060010154908060020154908060030154908060040154905085565b600042905090565b60025481565b600080600060149054906101000a900460ff1615610c0e576040517f08c379a0000000000000000000000000000000000000000000000000000000008152600401610c0590611bd4565b60405180910390fd5b610c1a60015484610e95565b9050508091505080915050919050565b60056020528060005260406000206000915090508060000154908060010154908060020154905083565b610c5c611297565b600073ffffffffffffffffffffffffffffffffffffffff168173ffffffffffffffffffffffffffffffffffffffff1603610ccb576040517f08c379a0000000000000000000000000000000000000000000000000000000008152600401610cc290611e28565b60405180910390fd5b610cd481611315565b50565b6000806000601e60046000600254815260200190815260200160002060030154420381610d0757610d06611d56565b5b049050600a811115610d1857600a90505b6000600560003373ffffffffffffffffffffffffffffffffffffffff1673ffffffffffffffffffffffffffffffffffffffff1681526020019081526020016000206002015482039050600a600560003373ffffffffffffffffffffffffffffffffffffffff1673ffffffffffffffffffffffffffffffffffffffff16815260200190815260200160002060000154820281610db657610db5611d56565b5b04819350935050509091565b6001805414158015610df7575060006004600060018054610de39190611a56565b815260200190815260200160002060040154115b15610e9357600080600190505b600154811015610e6157600460008281526020019081526020016000206004015482610e3091906118d5565b9150600060046000838152602001908152602001600020600401819055508080610e5990611c60565b915050610e04565b50806004600060015481526020019081526020016000206004016000828254610e8a91906118d5565b92505081905550505b565b6000806000600254851115610edf576040517f08c379a0000000000000000000000000000000000000000000000000000000008152600401610ed690611cf4565b60405180910390fd5b60046000868152602001908152602001600020600301544210610f1a57610f12600186610f0c91906118d5565b85610e95565b5050506110d4565b6000806000806000600460008b81526020019081526020016000206040518060a00160405290816000820154815260200160018201548152602001600282015481526020016003820154815260200160048201548152505090506000610f848a8360000151610a5f565b90508160800151811015610fa757808b60009850985098505050505050506110e0565b81608001518103610fd3578060018c610fc091906118d5565b60009850985098505050505050506110e0565b81608001518111156110cd57816080015194506110256040518060400160405280600b81526020017f746f74616c746f6b656e73000000000000000000000000000000000000000000815250826113d9565b600061103583600001518d610ab2565b90506002548c10156110a15761106260018d61105191906118d5565b828d61105d9190611a56565b610e95565b809650819750829950505050868661107a91906118d5565b6110848d87611475565b61108f600087611475565b995099509950505050505050506110e0565b6002548c036110cb57856003828d6110b99190611a56565b995099509950505050505050506110e0565b505b5050505050505b60008060009250925092505b9250925092565b6111818383836040516024016110ff939291906116f7565b6040516020818303038152906040527fd1ed7a3c000000000000000000000000000000000000000000000000000000007bffffffffffffffffffffffffffffffffffffffffffffffffffffffff19166020820180517bffffffffffffffffffffffffffffffffffffffffffffffffffffffff838183161783525050505061148f565b505050565b60015483036111ba578160046000600154815260200190815260200160002060040160008282540392505081905550611253565b60008060015490505b8481101561122a576004600082815260200190815260200160002060040154820191506000600460008381526020019081526020016000206004018190555042600460008381526020019081526020016000206003018190555080806001019150506111c3565b508083036004600086815260200190815260200160002060040160008282540392505081905550505b600081111561128a576001600254016001819055504260046000600254815260200190815260200160002060030181905550611292565b826001819055505b505050565b61129f6114a9565b73ffffffffffffffffffffffffffffffffffffffff166112bd610b1a565b73ffffffffffffffffffffffffffffffffffffffff1614611313576040517f08c379a000000000000000000000000000000000000000000000000000000000815260040161130a90611e94565b60405180910390fd5b565b60008060009054906101000a900473ffffffffffffffffffffffffffffffffffffffff169050816000806101000a81548173ffffffffffffffffffffffffffffffffffffffff021916908373ffffffffffffffffffffffffffffffffffffffff1602179055508173ffffffffffffffffffffffffffffffffffffffff168173ffffffffffffffffffffffffffffffffffffffff167f8be0079c531659141344cd1fd0a4f28419497f9722a3daafe3b4186f6b6457e060405160405180910390a35050565b61147182826040516024016113ef929190611f33565b6040516020818303038152906040527fb60e72cc000000000000000000000000000000000000000000000000000000007bffffffffffffffffffffffffffffffffffffffffffffffffffffffff19166020820180517bffffffffffffffffffffffffffffffffffffffffffffffffffffffff838183161783525050505061148f565b5050565b6000818310156114855781611487565b825b905092915050565b6114a68161149e6114b16114d2565b63ffffffff16565b50565b600033905090565b60006a636f6e736f6c652e6c6f679050600080835160208501845afa505050565b6114dd819050919050565b6114e5611f63565b565b600080fd5b6000819050919050565b6114ff816114ec565b811461150a57600080fd5b50565b60008135905061151c816114f6565b92915050565b60008060408385031215611539576115386114e7565b5b60006115478582860161150d565b92505060206115588582860161150d565b9150509250929050565b61156b816114ec565b82525050565b60006020820190506115866000830184611562565b92915050565b6000602082840312156115a2576115a16114e7565b5b60006115b08482850161150d565b91505092915050565b60008115159050919050565b6115ce816115b9565b82525050565b60006020820190506115e960008301846115c5565b92915050565b600073ffffffffffffffffffffffffffffffffffffffff82169050919050565b600061161a826115ef565b9050919050565b61162a8161160f565b82525050565b60006020820190506116456000830184611621565b92915050565b600060a0820190506116606000830188611562565b61166d6020830187611562565b61167a6040830186611562565b6116876060830185611562565b6116946080830184611562565b9695505050505050565b6116a78161160f565b81146116b257600080fd5b50565b6000813590506116c48161169e565b92915050565b6000602082840312156116e0576116df6114e7565b5b60006116ee848285016116b5565b91505092915050565b600060608201905061170c6000830186611562565b6117196020830185611562565b6117266040830184611562565b949350505050565b60006040820190506117436000830185611621565b6117506020830184611621565b9392505050565b600081519050611766816114f6565b92915050565b600060208284031215611782576117816114e7565b5b600061179084828501611757565b91505092915050565b600082825260208201905092915050565b7f706c6561736520696e63726561736520616c6c6f77616e636500000000000000600082015250565b60006117e0601983611799565b91506117eb826117aa565b602082019050919050565b6000602082019050818103600083015261180f816117d3565b9050919050565b600060608201905061182b6000830186611621565b6118386020830185611621565b6118456040830184611562565b949350505050565b611856816115b9565b811461186157600080fd5b50565b6000815190506118738161184d565b92915050565b60006020828403121561188f5761188e6114e7565b5b600061189d84828501611864565b91505092915050565b7f4e487b7100000000000000000000000000000000000000000000000000000000600052601160045260246000fd5b60006118e0826114ec565b91506118eb836114ec565b9250828201905080821115611903576119026118a6565b5b92915050565b600060408201905061191e6000830185611621565b61192b6020830184611562565b9392505050565b7f7761697420666f722049434f20746f206f70656e20666f7220696e766573746d60008201527f656e740000000000000000000000000000000000000000000000000000000000602082015250565b600061198e602383611799565b915061199982611932565b604082019050919050565b600060208201905081810360008301526119bd81611981565b9050919050565b7f7761697420666f722049434f20746f20656e6420746f20636c61696d2079722060008201527f746f6b656e730000000000000000000000000000000000000000000000000000602082015250565b6000611a20602683611799565b9150611a2b826119c4565b604082019050919050565b60006020820190508181036000830152611a4f81611a13565b9050919050565b6000611a61826114ec565b9150611a6c836114ec565b9250828203905081811115611a8457611a836118a6565b5b92915050565b7f706c65617365207761697420666f72206d696e696d756d203330207365630000600082015250565b6000611ac0601e83611799565b9150611acb82611a8a565b602082019050919050565b60006020820190508181036000830152611aef81611ab3565b9050919050565b7f796f75206861766520616c726561647920636c61696d656420616c6c2079722060008201527f746f6b656e730000000000000000000000000000000000000000000000000000602082015250565b6000611b52602683611799565b9150611b5d82611af6565b604082019050919050565b60006020820190508181036000830152611b8181611b45565b9050919050565b7f63757272656e746c792069636f20697320636c6f736564000000000000000000600082015250565b6000611bbe601783611799565b9150611bc982611b88565b602082019050919050565b60006020820190508181036000830152611bed81611bb1565b9050919050565b7f7761697420666f722069636f20746f206f70656e757000000000000000000000600082015250565b6000611c2a601683611799565b9150611c3582611bf4565b602082019050919050565b60006020820190508181036000830152611c5981611c1d565b9050919050565b6000611c6b826114ec565b91507fffffffffffffffffffffffffffffffffffffffffffffffffffffffffffffffff8203611c9d57611c9c6118a6565b5b600182019050919050565b7f69636f206973206f766572000000000000000000000000000000000000000000600082015250565b6000611cde600b83611799565b9150611ce982611ca8565b602082019050919050565b60006020820190508181036000830152611d0d81611cd1565b9050919050565b6000611d1f826114ec565b9150611d2a836114ec565b9250828202611d38816114ec565b91508282048414831517611d4f57611d4e6118a6565b5b5092915050565b7f4e487b7100000000000000000000000000000000000000000000000000000000600052601260045260246000fd5b6000611d90826114ec565b9150611d9b836114ec565b925082611dab57611daa611d56565b5b828204905092915050565b7f4f776e61626c653a206e6577206f776e657220697320746865207a65726f206160008201527f6464726573730000000000000000000000000000000000000000000000000000602082015250565b6000611e12602683611799565b9150611e1d82611db6565b604082019050919050565b60006020820190508181036000830152611e4181611e05565b9050919050565b7f4f776e61626c653a2063616c6c6572206973206e6f7420746865206f776e6572600082015250565b6000611e7e602083611799565b9150611e8982611e48565b602082019050919050565b60006020820190508181036000830152611ead81611e71565b9050919050565b600081519050919050565b60005b83811015611edd578082015181840152602081019050611ec2565b60008484015250505050565b6000601f19601f8301169050919050565b6000611f0582611eb4565b611f0f8185611799565b9350611f1f818560208601611ebf565b611f2881611ee9565b840191505092915050565b60006040820190508181036000830152611f4d8185611efa565b9050611f5c6020830184611562565b9392505050565b7f4e487b7100000000000000000000000000000000000000000000000000000000600052605160045260246000fdfea2646970667358221220ebecb5cf9a121cb67d2aaf20a019b72a35c41000a43d70fa489fd2a32598fe6064736f6c63430008130033",
  "linkReferences": {},
  "deployedLinkReferences": {}
}